{
  "_format": "hh-sol-artifact-1",
  "contractName": "PropAIToken",
  "sourceName": "src/PropAIToken.sol",
  "abi": [
    {
      "inputs": [
        {
          "internalType": "string",
          "name": "_name",
          "type": "string"
        },
        {
          "internalType": "string",
          "name": "_symbol",
          "type": "string"
        },
        {
          "internalType": "uint64",
          "name": "_lockupEndTime",
          "type": "uint64"
        }
      ],
      "stateMutability": "nonpayable",
      "type": "constructor"
    },
    {
      "inputs": [],
      "name": "EnforcedPause",
      "type": "error"
    },
    {
      "inputs": [],
      "name": "ExpectedPause",
      "type": "error"
    },
    {
      "inputs": [
        {
          "internalType": "address",
          "name": "owner",
          "type": "address"
        },
        {
          "internalType": "address",
          "name": "spender",
          "type": "address"
        },
        {
          "internalType": "uint256",
          "name": "requested",
          "type": "uint256"
        },
        {
          "internalType": "uint256",
          "name": "available",
          "type": "uint256"
        }
      ],
      "name": "InsufficientAllowance",
      "type": "error"
    },
    {
      "inputs": [
        {
          "internalType": "address",
          "name": "account",
          "type": "address"
        },
        {
          "internalType": "uint256",
          "name": "requested",
          "type": "uint256"
        },
        {
          "internalType": "uint256",
          "name": "available",
          "type": "uint256"
        }
      ],
      "name": "InsufficientBalance",
      "type": "error"
    },
    {
      "inputs": [],
      "name": "InvalidAddress",
      "type": "error"
    },
    {
      "inputs": [],
      "name": "InvalidAmount",
      "type": "error"
    },
    {
      "inputs": [],
      "name": "LockupActive",
      "type": "error"
    },
    {
      "inputs": [],
      "name": "NoDividend",
      "type": "error"
    },
    {
      "inputs": [
        {
          "internalType": "address",
          "name": "account",
          "type": "address"
        }
      ],
      "name": "NotWhitelisted",
      "type": "error"
    },
    {
      "inputs": [
        {
          "internalType": "address",
          "name": "owner",
          "type": "address"
        }
      ],
      "name": "OwnableInvalidOwner",
      "type": "error"
    },
    {
      "inputs": [
        {
          "internalType": "address",
          "name": "account",
          "type": "address"
        }
      ],
      "name": "OwnableUnauthorizedAccount",
      "type": "error"
    },
    {
      "inputs": [],
      "name": "ReentrancyGuardReentrantCall",
      "type": "error"
    },
    {
      "inputs": [],
      "name": "TransferFailed",
      "type": "error"
    },
    {
      "anonymous": false,
      "inputs": [
        {
          "indexed": true,
          "internalType": "address",
          "name": "owner",
          "type": "address"
        },
        {
          "indexed": true,
          "internalType": "address",
          "name": "spender",
          "type": "address"
        },
        {
          "indexed": false,
          "internalType": "uint256",
          "name": "amount",
          "type": "uint256"
        }
      ],
      "name": "Approval",
      "type": "event"
    },
    {
      "anonymous": false,
      "inputs": [
        {
          "indexed": true,
          "internalType": "address",
          "name": "account",
          "type": "address"
        },
        {
          "indexed": false,
          "internalType": "uint256",
          "name": "amount",
          "type": "uint256"
        }
      ],
      "name": "DividendClaimed",
      "type": "event"
    },
    {
      "anonymous": false,
      "inputs": [
        {
          "indexed": false,
          "internalType": "uint256",
          "name": "totalAmount",
          "type": "uint256"
        },
        {
          "indexed": false,
          "internalType": "uint256",
          "name": "perToken",
          "type": "uint256"
        }
      ],
      "name": "DividendDistributed",
      "type": "event"
    },
    {
      "anonymous": false,
      "inputs": [
        {
          "indexed": false,
          "internalType": "uint64",
          "name": "endTime",
          "type": "uint64"
        }
      ],
      "name": "LockupSet",
      "type": "event"
    },
    {
      "anonymous": false,
      "inputs": [
        {
          "indexed": true,
          "internalType": "address",
          "name": "previousOwner",
          "type": "address"
        },
        {
          "indexed": true,
          "internalType": "address",
          "name": "newOwner",
          "type": "address"
        }
      ],
      "name": "OwnershipTransferred",
      "type": "event"
    },
    {
      "anonymous": false,
      "inputs": [
        {
          "indexed": false,
          "internalType": "address",
          "name": "account",
          "type": "address"
        }
      ],
      "name": "Paused",
      "type": "event"
    },
    {
      "anonymous": false,
      "inputs": [
        {
          "indexed": true,
          "internalType": "address",
          "name": "from",
          "type": "address"
        },
        {
          "indexed": false,
          "internalType": "uint256",
          "name": "amount",
          "type": "uint256"
        }
      ],
      "name": "TokensBurned",
      "type": "event"
    },
    {
      "anonymous": false,
      "inputs": [
        {
          "indexed": true,
          "internalType": "address",
          "name": "to",
          "type": "address"
        },
        {
          "indexed": false,
          "internalType": "uint256",
          "name": "amount",
          "type": "uint256"
        }
      ],
      "name": "TokensMinted",
      "type": "event"
    },
    {
      "anonymous": false,
      "inputs": [
        {
          "indexed": true,
          "internalType": "address",
          "name": "from",
          "type": "address"
        },
        {
          "indexed": true,
          "internalType": "address",
          "name": "to",
          "type": "address"
        },
        {
          "indexed": false,
          "internalType": "uint256",
          "name": "amount",
          "type": "uint256"
        }
      ],
      "name": "Transfer",
      "type": "event"
    },
    {
      "anonymous": false,
      "inputs": [
        {
          "indexed": false,
          "internalType": "address",
          "name": "account",
          "type": "address"
        }
      ],
      "name": "Unpaused",
      "type": "event"
    },
    {
      "anonymous": false,
      "inputs": [
        {
          "indexed": true,
          "internalType": "address",
          "name": "account",
          "type": "address"
        },
        {
          "indexed": false,
          "internalType": "bool",
          "name": "status",
          "type": "bool"
        }
      ],
      "name": "WhitelistUpdated",
      "type": "event"
    },
    {
      "inputs": [
        {
          "internalType": "address",
          "name": "",
          "type": "address"
        },
        {
          "internalType": "address",
          "name": "",
          "type": "address"
        }
      ],
      "name": "allowance",
      "outputs": [
        {
          "internalType": "uint256",
          "name": "",
          "type": "uint256"
        }
      ],
      "stateMutability": "view",
      "type": "function"
    },
    {
      "inputs": [
        {
          "internalType": "address",
          "name": "_spender",
          "type": "address"
        },
        {
          "internalType": "uint256",
          "name": "_amount",
          "type": "uint256"
        }
      ],
      "name": "approve",
      "outputs": [
        {
          "internalType": "bool",
          "name": "",
          "type": "bool"
        }
      ],
      "stateMutability": "nonpayable",
      "type": "function"
    },
    {
      "inputs": [
        {
          "internalType": "address",
          "name": "",
          "type": "address"
        }
      ],
      "name": "balanceOf",
      "outputs": [
        {
          "internalType": "uint256",
          "name": "",
          "type": "uint256"
        }
      ],
      "stateMutability": "view",
      "type": "function"
    },
    {
      "inputs": [
        {
          "internalType": "address[]",
          "name": "_accounts",
          "type": "address[]"
        },
        {
          "internalType": "bool",
          "name": "_status",
          "type": "bool"
        }
      ],
      "name": "batchSetWhitelist",
      "outputs": [],
      "stateMutability": "nonpayable",
      "type": "function"
    },
    {
      "inputs": [
        {
          "internalType": "uint256",
          "name": "_amount",
          "type": "uint256"
        }
      ],
      "name": "burn",
      "outputs": [],
      "stateMutability": "nonpayable",
      "type": "function"
    },
    {
      "inputs": [],
      "name": "claimDividend",
      "outputs": [],
      "stateMutability": "nonpayable",
      "type": "function"
    },
    {
      "inputs": [],
      "name": "decimals",
      "outputs": [
        {
          "internalType": "uint8",
          "name": "",
          "type": "uint8"
        }
      ],
      "stateMutability": "view",
      "type": "function"
    },
    {
      "inputs": [],
      "name": "distributeDividend",
      "outputs": [],
      "stateMutability": "payable",
      "type": "function"
    },
    {
      "inputs": [
        {
          "internalType": "address",
          "name": "",
          "type": "address"
        }
      ],
      "name": "dividendCredit",
      "outputs": [
        {
          "internalType": "uint256",
          "name": "",
          "type": "uint256"
        }
      ],
      "stateMutability": "view",
      "type": "function"
    },
    {
      "inputs": [
        {
          "internalType": "address",
          "name": "",
          "type": "address"
        }
      ],
      "name": "dividendDebit",
      "outputs": [
        {
          "internalType": "uint256",
          "name": "",
          "type": "uint256"
        }
      ],
      "stateMutability": "view",
      "type": "function"
    },
    {
      "inputs": [],
      "name": "dividendPerToken",
      "outputs": [
        {
          "internalType": "uint256",
          "name": "",
          "type": "uint256"
        }
      ],
      "stateMutability": "view",
      "type": "function"
    },
    {
      "inputs": [],
      "name": "lockupEndTime",
      "outputs": [
        {
          "internalType": "uint64",
          "name": "",
          "type": "uint64"
        }
      ],
      "stateMutability": "view",
      "type": "function"
    },
    {
      "inputs": [
        {
          "internalType": "address",
          "name": "_to",
          "type": "address"
        },
        {
          "internalType": "uint256",
          "name": "_amount",
          "type": "uint256"
        }
      ],
      "name": "mint",
      "outputs": [],
      "stateMutability": "nonpayable",
      "type": "function"
    },
    {
      "inputs": [],
      "name": "name",
      "outputs": [
        {
          "internalType": "string",
          "name": "",
          "type": "string"
        }
      ],
      "stateMutability": "view",
      "type": "function"
    },
    {
      "inputs": [],
      "name": "owner",
      "outputs": [
        {
          "internalType": "address",
          "name": "",
          "type": "address"
        }
      ],
      "stateMutability": "view",
      "type": "function"
    },
    {
      "inputs": [],
      "name": "pause",
      "outputs": [],
      "stateMutability": "nonpayable",
      "type": "function"
    },
    {
      "inputs": [],
      "name": "paused",
      "outputs": [
        {
          "internalType": "bool",
          "name": "",
          "type": "bool"
        }
      ],
      "stateMutability": "view",
      "type": "function"
    },
    {
      "inputs": [
        {
          "internalType": "address",
          "name": "_account",
          "type": "address"
        }
      ],
      "name": "pendingDividend",
      "outputs": [
        {
          "internalType": "uint256",
          "name": "",
          "type": "uint256"
        }
      ],
      "stateMutability": "view",
      "type": "function"
    },
    {
      "inputs": [],
      "name": "renounceOwnership",
      "outputs": [],
      "stateMutability": "nonpayable",
      "type": "function"
    },
    {
      "inputs": [
        {
          "internalType": "uint64",
          "name": "_endTime",
          "type": "uint64"
        }
      ],
      "name": "setLockupEndTime",
      "outputs": [],
      "stateMutability": "nonpayable",
      "type": "function"
    },
    {
      "inputs": [
        {
          "internalType": "address",
          "name": "_account",
          "type": "address"
        },
        {
          "internalType": "bool",
          "name": "_status",
          "type": "bool"
        }
      ],
      "name": "setWhitelist",
      "outputs": [],
      "stateMutability": "nonpayable",
      "type": "function"
    },
    {
      "inputs": [],
      "name": "symbol",
      "outputs": [
        {
          "internalType": "string",
          "name": "",
          "type": "string"
        }
      ],
      "stateMutability": "view",
      "type": "function"
    },
    {
      "inputs": [],
      "name": "totalDividendsDistributed",
      "outputs": [
        {
          "internalType": "uint256",
          "name": "",
          "type": "uint256"
        }
      ],
      "stateMutability": "view",
      "type": "function"
    },
    {
      "inputs": [],
      "name": "totalSupply",
      "outputs": [
        {
          "internalType": "uint256",
          "name": "",
          "type": "uint256"
        }
      ],
      "stateMutability": "view",
      "type": "function"
    },
    {
      "inputs": [
        {
          "internalType": "address",
          "name": "_to",
          "type": "address"
        },
        {
          "internalType": "uint256",
          "name": "_amount",
          "type": "uint256"
        }
      ],
      "name": "transfer",
      "outputs": [
        {
          "internalType": "bool",
          "name": "",
          "type": "bool"
        }
      ],
      "stateMutability": "nonpayable",
      "type": "function"
    },
    {
      "inputs": [
        {
          "internalType": "address",
          "name": "_from",
          "type": "address"
        },
        {
          "internalType": "address",
          "name": "_to",
          "type": "address"
        },
        {
          "internalType": "uint256",
          "name": "_amount",
          "type": "uint256"
        }
      ],
      "name": "transferFrom",
      "outputs": [
        {
          "internalType": "bool",
          "name": "",
          "type": "bool"
        }
      ],
      "stateMutability": "nonpayable",
      "type": "function"
    },
    {
      "inputs": [
        {
          "internalType": "address",
          "name": "newOwner",
          "type": "address"
        }
      ],
      "name": "transferOwnership",
      "outputs": [],
      "stateMutability": "nonpayable",
      "type": "function"
    },
    {
      "inputs": [],
      "name": "unpause",
      "outputs": [],
      "stateMutability": "nonpayable",
      "type": "function"
    },
    {
      "inputs": [
        {
          "internalType": "address",
          "name": "",
          "type": "address"
        }
      ],
      "name": "whitelisted",
      "outputs": [
        {
          "internalType": "bool",
          "name": "",
          "type": "bool"
        }
      ],
      "stateMutability": "view",
      "type": "function"
    }
  ],
  "bytecode": "0x608060405234620003ca576200183c803803806200001d81620003cf565b9283398101606082820312620003ca5781516001600160401b0390818111620003ca57826200004e9185016200040b565b9260209283820151838111620003ca576040916200006e9184016200040b565b91015193828516809503620003ca573315620003b15760008054336001600160a01b0319821681178355919391906001600160a01b03167f8be0079c531659141344cd1fd0a4f28419497f9722a3daafe3b4186f6b6457e08580a3600192837f9b779b17422d0df92223018b32b4d1fa46e071723d6817e2486d003becc55f005582518581116200039d578454938585811c9516801562000392575b888610146200037e578190601f958681116200032b575b508890868311600114620002c7578492620002bb575b5050600019600383901b1c191690851b1784555b8151948511620002a7576002548481811c911680156200029c575b8782101462000288578381116200023f575b5085928511600114620001d6579394508492919083620001ca575b50501b916000199060031b1c1916176002555b600480546001600160401b0319169190911790556040516113be90816200047e8239f35b01519250388062000193565b6002815285812093958591601f198316915b888383106200022457505050106200020a575b505050811b01600255620001a6565b015160001960f88460031b161c19169055388080620001fb565b858701518855909601959485019487935090810190620001e8565b600282528682208480880160051c8201928989106200027e575b0160051c019085905b8281106200027257505062000178565b83815501859062000262565b9250819262000259565b634e487b7160e01b82526022600452602482fd5b90607f169062000166565b634e487b7160e01b81526041600452602490fd5b01519050388062000137565b8785528985208894509190601f198416865b8c828210620003145750508411620002fa575b505050811b0184556200014b565b015160001960f88460031b161c19169055388080620002ec565b8385015186558b97909501949384019301620002d9565b9091508684528884208680850160051c8201928b861062000374575b918991869594930160051c01915b8281106200036557505062000121565b86815585945089910162000355565b9250819262000347565b634e487b7160e01b83526022600452602483fd5b94607f16946200010a565b634e487b7160e01b82526041600452602482fd5b604051631e4fbdf760e01b815260006004820152602490fd5b600080fd5b6040519190601f01601f191682016001600160401b03811183821017620003f557604052565b634e487b7160e01b600052604160045260246000fd5b919080601f84011215620003ca5782516001600160401b038111620003f55760209062000441601f8201601f19168301620003cf565b92818452828287010111620003ca5760005b8181106200046957508260009394955001015290565b85810183015184820184015282016200045356fe60806040908082526004918236101561001757600080fd5b600091823560e01c90816306fdde0314610f3557508063095ea7b314610ec55780630a26c14514610e5457806318160ddd14610e3657806323b872dd14610d13578063266d7bda14610ceb578063313ce56714610cd05780633f4ba83a14610c62578063406bc10814610c2b57806340c10f1914610b1f57806342966c6814610a2357806353d6fd59146109895780635c975abb1461096557806370a082311461092e578063715018a6146108d157806377ec0feb146108b35780638456cb591461085557806385a6b3ae146108375780638da5cb5b1461081057806395d89b411461070d578063a095e8f9146105d3578063a9059cbb1461051a578063c5f96572146104e3578063d936547e146104a6578063dd62ed3e1461045e578063deedd49c146103e8578063f0fc6bca146102da578063f2fde38b1461024f5763f6ef8f0a1461016457600080fd5b8160031936011261024b576101776110d2565b61017f61129e565b341561023c57600354801561022c57670de0b6b3a76400008034029034820403610219577f2f588cf4bb0247b0f3f60e06187f92e6fd1deaabb56e2bcc567235233787132792916101d39104600b54611138565b80600b556101e334600554611138565b6005558151903482526020820152a160017f9b779b17422d0df92223018b32b4d1fa46e071723d6817e2486d003becc55f005580f35b634e487b7160e01b845260118552602484fd5b815163162908e360e11b81528490fd5b5163162908e360e11b81529050fd5b5080fd5b5082346102d65760203660031901126102d65761026a611092565b906102736110d2565b6001600160a01b039182169283156102c057505082546001600160a01b0319811683178455167f8be0079c531659141344cd1fd0a4f28419497f9722a3daafe3b4186f6b6457e08380a380f35b51631e4fbdf760e01b8152908101849052602490fd5b8280fd5b508290346102d657826003193601126102d6576102f561129e565b6102fe336112e0565b3383526009602052808320549182156103da57338452600960205283828120558380808086335af13d156103d5573d67ffffffffffffffff81116103c257835190610353601f8201601f191660200183611011565b81528560203d92013e5b156103b45750519081527f5efa67896a23b651b741b525caacba039c00ca7853be3de8eb1f4269e8669c5660203392a260017f9b779b17422d0df92223018b32b4d1fa46e071723d6817e2486d003becc55f005580f35b90516312171d8360e31b8152fd5b634e487b7160e01b865260418352602486fd5b61035d565b9051635589b7d360e01b8152fd5b503461024b57602036600319011261024b5760209161045790826001600160a01b03610412611092565b169182815260068652610448670de0b6b3a764000061043784842054600b549061128b565b048483526009885283832054611138565b928152600a865220549061117c565b9051908152f35b503461024b578060031936011261024b578060209261047b611092565b6104836110ad565b6001600160a01b0391821683526007865283832091168252845220549051908152f35b503461024b57602036600319011261024b5760209160ff9082906001600160a01b036104d0611092565b1681526008855220541690519015158152f35b503461024b57602036600319011261024b5760209181906001600160a01b0361050a611092565b168152600a845220549051908152f35b5082346102d657816003193601126102d657610534611092565b9267ffffffffffffffff82541642106105c557338152600860205260ff8382205416156105ae576001600160a01b0384168082526008602052908390205460ff161561059a576020836105938661058961115b565b6024359033611189565b5160018152f35b6024925191636f8bf18b60e11b8352820152fd5b506024915190636f8bf18b60e11b82523390820152fd5b50905162ccaec560e61b8152fd5b508290346102d657806003193601126102d65781359167ffffffffffffffff918284116107095736602385011215610709578382013592831161070957602493848101908536918660051b010111610705579261062e6110c3565b6106366110d2565b80151591875b818110610647578880f35b6001600160a01b038061066361065e84868c6110fe565b611124565b16156106f5577ff93f9a76c1bf3444d22400a00cb9fe990e6abe9dbb333fda48859cfee864543d818b9261069b61065e86888e6110fe565b1683526106bc868960209560088752209060ff801983541691151516179055565b6106ca61065e85878d6110fe565b16918751878152a260001981146106e35760010161063c565b634e487b7160e01b8952601186528789fd5b855163e6c4247b60e01b81528790fd5b8580fd5b8480fd5b508290346102d657826003193601126102d657805191836002549060019082821c928281168015610806575b60209586861082146107f357508488529081156107d15750600114610778575b610774868661076a828b0383611011565b5191829182611049565b0390f35b929550600283527f405787fa12a823e0f2b7631cc41b3ba8828b3321ca811111fa75cd3aa3bb5ace5b8284106107be57505050826107749461076a928201019486610759565b80548685018801529286019281016107a1565b60ff191687860152505050151560051b830101925061076a8261077486610759565b634e487b7160e01b845260229052602483fd5b93607f1693610739565b503461024b578160031936011261024b57905490516001600160a01b039091168152602090f35b503461024b578160031936011261024b576020906005549051908152f35b503461024b578160031936011261024b5760207f62e78cea01bee320cd4e420270b5ea74000d11b0c9f74754ebdbfc544b05a258916108926110d2565b61089a61115b565b835460ff60a01b1916600160a01b17845551338152a180f35b503461024b578160031936011261024b57602090600b549051908152f35b823461092b578060031936011261092b576108ea6110d2565b80546001600160a01b03198116825581906001600160a01b03167f8be0079c531659141344cd1fd0a4f28419497f9722a3daafe3b4186f6b6457e08280a380f35b80fd5b503461024b57602036600319011261024b5760209181906001600160a01b03610955611092565b1681526006845220549051908152f35b503461024b578160031936011261024b5760ff6020925460a01c1690519015158152f35b508290346102d657806003193601126102d6576109a4611092565b906109ad6110c3565b916109b66110d2565b6001600160a01b0316928315610a1557507ff93f9a76c1bf3444d22400a00cb9fe990e6abe9dbb333fda48859cfee864543d9160209184865260088352610a0b828288209060ff801983541691151516179055565b519015158152a280f35b905163e6c4247b60e01b8152fd5b503461024b57602036600319011261024b578235928315610b1157338352600660205281832054848110610ae65783808685610a5e336112e0565b610a6a8260035461117c565b6003553383526006602052808320610a8383825461117c565b9055610a8e33611347565b80518281527ffd38818f5291bf0bb3a2a48aadc06ba8757865d1dabd804585338aab3009dcb660203392a2519081527fddf252ad1be2c89b69c2b068fc378daa952ba7f163c4a11628f55a4df523b3ef60203392a380f35b915163db42144d60e01b81523391810191825260208201859052604082019290925281906060010390fd5b905163162908e360e11b8152fd5b508290346102d657806003193601126102d657610b3a611092565b9060243591610b476110d2565b6001600160a01b03811680865260086020528286205490949060ff1615610c1457610b7061115b565b8315610c06575084927fddf252ad1be2c89b69c2b068fc378daa952ba7f163c4a11628f55a4df523b3ef92610bd583610baa6020956112e0565b610bb684600354611138565b60035587875260068552828720610bce858254611138565b9055611347565b857f3f2c9d57c068687834f0de942a9babb9e5acab57d516d3480a3c16ee165a4273848351858152a251908152a380f35b825163162908e360e11b8152fd5b8251636f8bf18b60e11b8152908101859052602490fd5b503461024b57602036600319011261024b5760209181906001600160a01b03610c52611092565b1681526009845220549051908152f35b5082346102d657826003193601126102d657610c7c6110d2565b82549060ff8260a01c1615610cc2575060ff60a01b19168255513381527f5db9ee0a495bf2e6ff9c91a7834c1ba4fdd244a5e8aa4e537bd38aeae4b073aa90602090a180f35b8251638dfc202b60e01b8152fd5b503461024b578160031936011261024b576020905160128152f35b50903461092b578060031936011261092b575067ffffffffffffffff60209254169051908152f35b503461024b57606036600319011261024b57610d2d611092565b610d356110ad565b6044359167ffffffffffffffff8654164210610e27576001600160a01b038181168087526008602090815286882054909791929060ff1615610e105784168082526008885260ff878320541615610dfa5750610d8f61115b565b8181526007875285812033825287528581205497858910610dd257509461059395610dbc8683999a61117c565b9281526007895281812033825289522055611189565b6084908987858a519363246fb68960e21b855284015233602484015260448301526064820152fd5b88602491885191636f8bf18b60e11b8352820152fd5b8651636f8bf18b60e11b8152808a01849052602490fd5b835162ccaec560e61b81528690fd5b503461024b578160031936011261024b576020906003549051908152f35b5082346102d65760203660031901126102d657803567ffffffffffffffff8116809103610ec1577f88a70b8474359935b2f4983b30ce3659775dd27232c7e6c23a82052f10da0d5f92602092610ea86110d2565b805467ffffffffffffffff19168317905551908152a180f35b8380fd5b503461024b578060031936011261024b5760209181610ee2611092565b91602435918291338152600787528181209460018060a01b0316948582528752205582519081527f8c5be1e5ebec7d5bd14f71427d1e84f3dd0314c0f7b2291e5b200ac8c7c3b925843392a35160018152f35b9293905034610ec15783600319360112610ec15783600180549182821c928281168015611007575b60209586861082146107f35750848852908115610fe55750600114610f8d57610774868661076a828b0383611011565b9295508083527fb10e2d527612073b26eecdfd717e6a320cf44b4afac2b0732d9fcbe2b7fa0cf65b828410610fd257505050826107749461076a928201019438610759565b8054868501880152928601928101610fb5565b60ff191687860152505050151560051b830101925061076a8261077438610759565b93607f1693610f5d565b90601f8019910116810190811067ffffffffffffffff82111761103357604052565b634e487b7160e01b600052604160045260246000fd5b6020808252825181830181905290939260005b82811061107e57505060409293506000838284010152601f8019910116010190565b81810186015184820160400152850161105c565b600435906001600160a01b03821682036110a857565b600080fd5b602435906001600160a01b03821682036110a857565b6024359081151582036110a857565b6000546001600160a01b031633036110e657565b60405163118cdaa760e01b8152336004820152602490fd5b919081101561110e5760051b0190565b634e487b7160e01b600052603260045260246000fd5b356001600160a01b03811681036110a85790565b9190820180921161114557565b634e487b7160e01b600052601160045260246000fd5b60ff60005460a01c1661116a57565b60405163d93c066560e01b8152600490fd5b9190820391821161114557565b6001600160a01b0380831693919290841561127957821561126757831692600084815260066020526040812054848110611237575060209261122983604061122e946111f67fddf252ad1be2c89b69c2b068fc378daa952ba7f163c4a11628f55a4df523b3ef99976112e0565b6111ff856112e0565b8981526006885281812061121488825461117c565b90558a81526006885220610bce868254611138565b611347565b604051908152a3565b60405163db42144d60e01b81526001600160a01b0384166004820152602481018690526044810191909152606490fd5b60405163162908e360e11b8152600490fd5b60405163e6c4247b60e01b8152600490fd5b8181029291811591840414171561114557565b7f9b779b17422d0df92223018b32b4d1fa46e071723d6817e2486d003becc55f0060028154146112ce5760029055565b604051633ee5aeb560e01b8152600490fd5b60018060a01b0316604060008281526006602052670de0b6b3a764000061130d83832054600b549061128b565b0492808252600a602052611324838320548561117c565b818352600960205261133a848420918254611138565b90558152600a6020522055565b6001600160a01b0316600081815260066020526040902054600b54670de0b6b3a764000091611376919061128b565b0490600052600a60205260406000205556fea2646970667358221220c9446ef2fae82e414f3b05c04194e9007f81dd4034b9ec052c4b96956bbaa5ac64736f6c63430008140033",
  "linkReferences": {},
  "deployedLinkReferences": {}
}