{
  "_format": "hh-sol-artifact-1",
  "contractName": "ReentrantRefundAttacker",
  "sourceName": "src/mocks/ReentrantRefundAttacker.sol",
  "abi": [
    {
      "inputs": [
        {
          "internalType": "address",
          "name": "escrowAddress",
          "type": "address"
        }
      ],
      "stateMutability": "nonpayable",
      "type": "constructor"
    },
    {
      "inputs": [],
      "name": "attackOnReceive",
      "outputs": [
        {
          "internalType": "bool",
          "name": "",
          "type": "bool"
        }
      ],
      "stateMutability": "view",
      "type": "function"
    },
    {
      "inputs": [
        {
          "internalType": "address",
          "name": "payee",
          "type": "address"
        },
        {
          "internalType": "uint64",
          "name": "expiresAt",
          "type": "uint64"
        },
        {
          "internalType": "bytes32",
          "name": "conditionHash",
          "type": "bytes32"
        }
      ],
      "name": "createEscrowAndFund",
      "outputs": [],
      "stateMutability": "payable",
      "type": "function"
    },
    {
      "inputs": [],
      "name": "escrow",
      "outputs": [
        {
          "internalType": "contract PropAIEscrow",
          "name": "",
          "type": "address"
        }
      ],
      "stateMutability": "view",
      "type": "function"
    },
    {
      "inputs": [],
      "name": "escrowId",
      "outputs": [
        {
          "internalType": "uint256",
          "name": "",
          "type": "uint256"
        }
      ],
      "stateMutability": "view",
      "type": "function"
    },
    {
      "inputs": [],
      "name": "reentrancyBlocked",
      "outputs": [
        {
          "internalType": "bool",
          "name": "",
          "type": "bool"
        }
      ],
      "stateMutability": "view",
      "type": "function"
    },
    {
      "inputs": [
        {
          "internalType": "bool",
          "name": "nextValue",
          "type": "bool"
        }
      ],
      "name": "setAttackOnReceive",
      "outputs": [],
      "stateMutability": "nonpayable",
      "type": "function"
    },
    {
      "inputs": [],
      "name": "triggerRefund",
      "outputs": [],
      "stateMutability": "nonpayable",
      "type": "function"
    },
    {
      "stateMutability": "payable",
      "type": "receive"
    }
  ],
  "bytecode": "0x60a03461008057601f6104e338819003918201601f19168301916001600160401b038311848410176100855780849260209460405283398101031261008057516001600160a01b0381169081900361008057608052604051610447908161009c8239608051818181609a01528181610159015281816102b501526103840152f35b600080fd5b634e487b7160e01b600052604160045260246000fdfe608060408181526004918236101561002a575b505050361561002057600080fd5b61002861036c565b005b600092833560e01c91826324b03fd21461032157508163263d48781461029e5781632878145b1461027757816333ea6c7c146101195781635753d989146100fc578163b7991a84146100cd575063e2fdcc17146100875780610012565b346100c957816003193601126100c957517f00000000000000000000000000000000000000000000000000000000000000006001600160a01b03168152602090f35b5080fd5b8390346100c95760203660031901126100c957358015158091036100c95760ff80196001541691161760015580f35b5050346100c957816003193601126100c957602091549051908152f35b838360603660031901126100c9576001600160a01b03928035848116929190839003610273576024359267ffffffffffffffff9586851680950361026f577f00000000000000000000000000000000000000000000000000000000000000001693835191630e7bbe9d60e21b8352838301528560248301526044820152604435606482015260208160848188885af190811561026557859161020f575b50849550808555833b1561020b57602485928451958693849263c9c31af560e01b845283015234905af190811561020257506101ef5750f35b6101f890610342565b6101ff5780f35b80fd5b513d84823e3d90fd5b8480fd5b90506020953d871161025d575b601f8701601f19168201908111828210176102485781869760209286528101031261020b5751866101b6565b604183634e487b7160e01b6000525260246000fd5b3d965061021c565b83513d87823e3d90fd5b8580fd5b8380fd5b5050346100c957816003193601126100c95760209060ff60015460081c1690519015158152f35b9190503461031d578260031936011261031d5782547f00000000000000000000000000000000000000000000000000000000000000006001600160a01b031692849190843b1561031d5760249083855196879485936245626760e31b85528401525af19081156102025750610311575080f35b61031a90610342565b80f35b8280fd5b8490346100c957816003193601126100c95760209060ff6001541615158152f35b67ffffffffffffffff811161035657604052565b634e487b7160e01b600052604160045260246000fd5b6001805460ff81161561040d5760ff191681556000547f00000000000000000000000000000000000000000000000000000000000000006001600160a01b031690813b15610408576000916024839260405194859384926245626760e31b845260048401525af190816103f9575b506103ee57805461ff001916610100179055565b805461ff0019169055565b61040290610342565b386103da565b600080fd5b505056fea2646970667358221220494632919522d8ec41ab52592166186be8d6362e2eea47af610baefa0e80703964736f6c63430008140033",
  "linkReferences": {},
  "deployedLinkReferences": {}
}