{
  "contractName": "PropAIEscrow",
  "network": "hardhat",
  "chainId": 31337,
  "address": "0x5FbDB2315678afecb367f032d93F642f64180aa3",
  "deploymentTransactionHash": "0xd0686ee290d506f6218bfc81fa17cbf0f23f81a4c47adb4d3a5b3131f2d70188",
  "deployedAt": "2026-03-18T03:38:28.693Z",
  "abi": [
    {
      "inputs": [],
      "stateMutability": "nonpayable",
      "type": "constructor"
    },
    {
      "inputs": [
        {
          "internalType": "uint256",
          "name": "escrowId",
          "type": "uint256"
        },
        {
          "internalType": "uint256",
          "name": "requested",
          "type": "uint256"
        },
        {
          "internalType": "uint256",
          "name": "available",
          "type": "uint256"
        }
      ],
      "name": "AmountExceedsBalance",
      "type": "error"
    },
    {
      "inputs": [],
      "name": "EnforcedPause",
      "type": "error"
    },
    {
      "inputs": [
        {
          "internalType": "uint256",
          "name": "escrowId",
          "type": "uint256"
        }
      ],
      "name": "EscrowExpired",
      "type": "error"
    },
    {
      "inputs": [
        {
          "internalType": "uint256",
          "name": "escrowId",
          "type": "uint256"
        }
      ],
      "name": "EscrowNotExpired",
      "type": "error"
    },
    {
      "inputs": [
        {
          "internalType": "uint256",
          "name": "escrowId",
          "type": "uint256"
        }
      ],
      "name": "EscrowNotFound",
      "type": "error"
    },
    {
      "inputs": [],
      "name": "ExpectedPause",
      "type": "error"
    },
    {
      "inputs": [],
      "name": "InvalidAddress",
      "type": "error"
    },
    {
      "inputs": [],
      "name": "InvalidAmount",
      "type": "error"
    },
    {
      "inputs": [],
      "name": "InvalidConditionHash",
      "type": "error"
    },
    {
      "inputs": [
        {
          "internalType": "uint256",
          "name": "escrowId",
          "type": "uint256"
        },
        {
          "internalType": "enum PropAIEscrow.EscrowStatus",
          "name": "currentStatus",
          "type": "uint8"
        }
      ],
      "name": "InvalidEscrowState",
      "type": "error"
    },
    {
      "inputs": [],
      "name": "InvalidExpiry",
      "type": "error"
    },
    {
      "inputs": [
        {
          "internalType": "uint256",
          "name": "escrowId",
          "type": "uint256"
        },
        {
          "internalType": "address",
          "name": "subcontractor",
          "type": "address"
        }
      ],
      "name": "InvalidSubcontractor",
      "type": "error"
    },
    {
      "inputs": [
        {
          "internalType": "address",
          "name": "owner",
          "type": "address"
        }
      ],
      "name": "OwnableInvalidOwner",
      "type": "error"
    },
    {
      "inputs": [
        {
          "internalType": "address",
          "name": "account",
          "type": "address"
        }
      ],
      "name": "OwnableUnauthorizedAccount",
      "type": "error"
    },
    {
      "inputs": [],
      "name": "ReentrancyGuardReentrantCall",
      "type": "error"
    },
    {
      "inputs": [],
      "name": "TransferFailed",
      "type": "error"
    },
    {
      "inputs": [],
      "name": "Unauthorized",
      "type": "error"
    },
    {
      "anonymous": false,
      "inputs": [
        {
          "indexed": true,
          "internalType": "uint256",
          "name": "escrowId",
          "type": "uint256"
        },
        {
          "indexed": true,
          "internalType": "address",
          "name": "payer",
          "type": "address"
        },
        {
          "indexed": true,
          "internalType": "address",
          "name": "payee",
          "type": "address"
        },
        {
          "indexed": false,
          "internalType": "address",
          "name": "subcontractor",
          "type": "address"
        },
        {
          "indexed": false,
          "internalType": "uint64",
          "name": "expiresAt",
          "type": "uint64"
        },
        {
          "indexed": false,
          "internalType": "bytes32",
          "name": "conditionHash",
          "type": "bytes32"
        }
      ],
      "name": "EscrowCreated",
      "type": "event"
    },
    {
      "anonymous": false,
      "inputs": [
        {
          "indexed": true,
          "internalType": "uint256",
          "name": "escrowId",
          "type": "uint256"
        },
        {
          "indexed": true,
          "internalType": "address",
          "name": "initiator",
          "type": "address"
        },
        {
          "indexed": false,
          "internalType": "bytes32",
          "name": "reasonHash",
          "type": "bytes32"
        }
      ],
      "name": "EscrowDisputed",
      "type": "event"
    },
    {
      "anonymous": false,
      "inputs": [
        {
          "indexed": true,
          "internalType": "uint256",
          "name": "escrowId",
          "type": "uint256"
        },
        {
          "indexed": false,
          "internalType": "uint256",
          "name": "amount",
          "type": "uint256"
        }
      ],
      "name": "EscrowFunded",
      "type": "event"
    },
    {
      "anonymous": false,
      "inputs": [
        {
          "indexed": true,
          "internalType": "uint256",
          "name": "escrowId",
          "type": "uint256"
        },
        {
          "indexed": false,
          "internalType": "uint256",
          "name": "amount",
          "type": "uint256"
        }
      ],
      "name": "EscrowRefunded",
      "type": "event"
    },
    {
      "anonymous": false,
      "inputs": [
        {
          "indexed": true,
          "internalType": "uint256",
          "name": "escrowId",
          "type": "uint256"
        },
        {
          "indexed": true,
          "internalType": "address",
          "name": "recipient",
          "type": "address"
        },
        {
          "indexed": false,
          "internalType": "uint256",
          "name": "grossAmount",
          "type": "uint256"
        },
        {
          "indexed": false,
          "internalType": "uint256",
          "name": "feeAmount",
          "type": "uint256"
        }
      ],
      "name": "EscrowReleased",
      "type": "event"
    },
    {
      "anonymous": false,
      "inputs": [
        {
          "indexed": true,
          "internalType": "address",
          "name": "previousOwner",
          "type": "address"
        },
        {
          "indexed": true,
          "internalType": "address",
          "name": "newOwner",
          "type": "address"
        }
      ],
      "name": "OwnershipTransferred",
      "type": "event"
    },
    {
      "anonymous": false,
      "inputs": [
        {
          "indexed": false,
          "internalType": "address",
          "name": "account",
          "type": "address"
        }
      ],
      "name": "Paused",
      "type": "event"
    },
    {
      "anonymous": false,
      "inputs": [
        {
          "indexed": false,
          "internalType": "address",
          "name": "account",
          "type": "address"
        }
      ],
      "name": "Unpaused",
      "type": "event"
    },
    {
      "inputs": [],
      "name": "BPS_DENOMINATOR",
      "outputs": [
        {
          "internalType": "uint16",
          "name": "",
          "type": "uint16"
        }
      ],
      "stateMutability": "view",
      "type": "function"
    },
    {
      "inputs": [],
      "name": "FEE_BPS",
      "outputs": [
        {
          "internalType": "uint16",
          "name": "",
          "type": "uint16"
        }
      ],
      "stateMutability": "view",
      "type": "function"
    },
    {
      "inputs": [
        {
          "internalType": "uint256",
          "name": "escrowId",
          "type": "uint256"
        }
      ],
      "name": "autoRefundOnExpiry",
      "outputs": [],
      "stateMutability": "nonpayable",
      "type": "function"
    },
    {
      "inputs": [
        {
          "internalType": "uint256",
          "name": "grossAmount",
          "type": "uint256"
        }
      ],
      "name": "calculateFee",
      "outputs": [
        {
          "internalType": "uint256",
          "name": "",
          "type": "uint256"
        }
      ],
      "stateMutability": "pure",
      "type": "function"
    },
    {
      "inputs": [
        {
          "internalType": "address",
          "name": "payee",
          "type": "address"
        },
        {
          "internalType": "address",
          "name": "subcontractor",
          "type": "address"
        },
        {
          "internalType": "uint64",
          "name": "expiresAt",
          "type": "uint64"
        },
        {
          "internalType": "bytes32",
          "name": "conditionHash",
          "type": "bytes32"
        }
      ],
      "name": "createEscrow",
      "outputs": [
        {
          "internalType": "uint256",
          "name": "escrowId",
          "type": "uint256"
        }
      ],
      "stateMutability": "nonpayable",
      "type": "function"
    },
    {
      "inputs": [
        {
          "internalType": "uint256",
          "name": "escrowId",
          "type": "uint256"
        },
        {
          "internalType": "address",
          "name": "subcontractor",
          "type": "address"
        },
        {
          "internalType": "uint256",
          "name": "grossAmount",
          "type": "uint256"
        }
      ],
      "name": "directPaymentToSubcontractor",
      "outputs": [],
      "stateMutability": "nonpayable",
      "type": "function"
    },
    {
      "inputs": [
        {
          "internalType": "uint256",
          "name": "escrowId",
          "type": "uint256"
        }
      ],
      "name": "fundEscrow",
      "outputs": [],
      "stateMutability": "payable",
      "type": "function"
    },
    {
      "inputs": [
        {
          "internalType": "uint256",
          "name": "escrowId",
          "type": "uint256"
        }
      ],
      "name": "getEscrow",
      "outputs": [
        {
          "components": [
            {
              "internalType": "address",
              "name": "payer",
              "type": "address"
            },
            {
              "internalType": "address",
              "name": "payee",
              "type": "address"
            },
            {
              "internalType": "address",
              "name": "subcontractor",
              "type": "address"
            },
            {
              "internalType": "uint256",
              "name": "totalAmount",
              "type": "uint256"
            },
            {
              "internalType": "uint256",
              "name": "remainingAmount",
              "type": "uint256"
            },
            {
              "internalType": "uint64",
              "name": "expiresAt",
              "type": "uint64"
            },
            {
              "internalType": "bytes32",
              "name": "conditionHash",
              "type": "bytes32"
            },
            {
              "internalType": "enum PropAIEscrow.EscrowStatus",
              "name": "status",
              "type": "uint8"
            }
          ],
          "internalType": "struct PropAIEscrow.Escrow",
          "name": "",
          "type": "tuple"
        }
      ],
      "stateMutability": "view",
      "type": "function"
    },
    {
      "inputs": [],
      "name": "getNextEscrowId",
      "outputs": [
        {
          "internalType": "uint256",
          "name": "",
          "type": "uint256"
        }
      ],
      "stateMutability": "view",
      "type": "function"
    },
    {
      "inputs": [
        {
          "internalType": "uint256",
          "name": "escrowId",
          "type": "uint256"
        },
        {
          "internalType": "bytes32",
          "name": "reasonHash",
          "type": "bytes32"
        }
      ],
      "name": "initiateDispute",
      "outputs": [],
      "stateMutability": "nonpayable",
      "type": "function"
    },
    {
      "inputs": [],
      "name": "owner",
      "outputs": [
        {
          "internalType": "address",
          "name": "",
          "type": "address"
        }
      ],
      "stateMutability": "view",
      "type": "function"
    },
    {
      "inputs": [],
      "name": "pause",
      "outputs": [],
      "stateMutability": "nonpayable",
      "type": "function"
    },
    {
      "inputs": [],
      "name": "paused",
      "outputs": [
        {
          "internalType": "bool",
          "name": "",
          "type": "bool"
        }
      ],
      "stateMutability": "view",
      "type": "function"
    },
    {
      "inputs": [
        {
          "internalType": "uint256",
          "name": "escrowId",
          "type": "uint256"
        }
      ],
      "name": "releaseEscrow",
      "outputs": [],
      "stateMutability": "nonpayable",
      "type": "function"
    },
    {
      "inputs": [],
      "name": "renounceOwnership",
      "outputs": [],
      "stateMutability": "nonpayable",
      "type": "function"
    },
    {
      "inputs": [
        {
          "internalType": "uint256",
          "name": "escrowId",
          "type": "uint256"
        },
        {
          "internalType": "bool",
          "name": "releaseToPayee",
          "type": "bool"
        }
      ],
      "name": "resolveDispute",
      "outputs": [],
      "stateMutability": "nonpayable",
      "type": "function"
    },
    {
      "inputs": [
        {
          "internalType": "address",
          "name": "newOwner",
          "type": "address"
        }
      ],
      "name": "transferOwnership",
      "outputs": [],
      "stateMutability": "nonpayable",
      "type": "function"
    },
    {
      "inputs": [],
      "name": "unpause",
      "outputs": [],
      "stateMutability": "nonpayable",
      "type": "function"
    }
  ],
  "bytecode": "0x6080604052600160025534801561001557600080fd5b50338061003c57604051631e4fbdf760e01b81526000600482015260240160405180910390fd5b6100458161006f565b5060017f9b779b17422d0df92223018b32b4d1fa46e071723d6817e2486d003becc55f00556100bf565b600080546001600160a01b038381166001600160a01b0319831681178455604051919092169283917f8be0079c531659141344cd1fd0a4f28419497f9722a3daafe3b4186f6b6457e09190a35050565b6115b0806100ce6000396000f3fe6080604052600436106101095760003560e01c80637d19e59611610095578063bf333f2c11610064578063bf333f2c146102b6578063c9c31af5146102de578063e1a45218146102f1578063ed65316414610307578063f2fde38b1461032757600080fd5b80637d19e5961461022c5780638456cb59146102595780638da5cb5b1461026e57806399a5d7471461029657600080fd5b80633f4ba83a116100dc5780633f4ba83a146101a3578063400f4696146101b85780635ba462f1146101cd5780635c975abb146101ed578063715018a61461021757600080fd5b8063022b13381461010e57806311e683161461013057806334b25ee21461015057806339eefa7414610170575b600080fd5b34801561011a57600080fd5b5061012e6101293660046112e7565b610347565b005b34801561013c57600080fd5b5061012e61014b366004611317565b610492565b34801561015c57600080fd5b5061012e61016b36600461134c565b61072a565b34801561017c57600080fd5b5061019061018b366004611381565b6108a5565b6040519081526020015b60405180910390f35b3480156101af57600080fd5b5061012e610ae0565b3480156101c457600080fd5b50600254610190565b3480156101d957600080fd5b5061012e6101e83660046113db565b610af2565b3480156101f957600080fd5b50600054600160a01b900460ff16604051901515815260200161019a565b34801561022357600080fd5b5061012e610bf5565b34801561023857600080fd5b5061024c6102473660046112e7565b610c07565b60405161019a9190611435565b34801561026557600080fd5b5061012e610cf7565b34801561027a57600080fd5b506000546040516001600160a01b03909116815260200161019a565b3480156102a257600080fd5b506101906102b13660046112e7565b610d07565b3480156102c257600080fd5b506102cb601e81565b60405161ffff909116815260200161019a565b61012e6102ec3660046112e7565b610d27565b3480156102fd57600080fd5b506102cb61271081565b34801561031357600080fd5b5061012e6103223660046112e7565b610e56565b34801561033357600080fd5b5061012e6103423660046114af565b610ff8565b61034f611033565b61035761104f565b60006103628261107a565b90506001600782015460ff16600481111561037f5761037f6113fd565b141580156103a657506002600782015460ff1660048111156103a3576103a36113fd565b14155b156103da576007810154604051637741837360e01b81526103d191849160ff909116906004016114d1565b60405180910390fd5b600581015467ffffffffffffffff16421161040b57604051631576df4f60e11b8152600481018390526024016103d1565b60048181018054600090915560078301805460ff1916909217909155815461043c906001600160a01b0316826110b8565b827f8e09fed7623ad9f8d5a701dd9f3233197147d0043c564dfb1a6c0023ab568c208260405161046e91815260200190565b60405180910390a2505061048f600160008051602061155b83398151915255565b50565b61049a611033565b6104a261104f565b60006104ad8461107a565b80549091506001600160a01b031633148015906104d557506000546001600160a01b03163314155b156104f2576040516282b42960e81b815260040160405180910390fd5b6001600782015460ff16600481111561050d5761050d6113fd565b14610538576007810154604051637741837360e01b81526103d191869160ff909116906004016114d1565b600581015467ffffffffffffffff1642111561056a57604051636ae6b96160e11b8152600481018590526024016103d1565b6001600160a01b0383166105915760405163e6c4247b60e01b815260040160405180910390fd5b816000036105b25760405163162908e360e11b815260040160405180910390fd5b80600401548211156105eb57600480820154604051631416471160e01b81529182018690526024820184905260448201526064016103d1565b60028101546001600160a01b031615801590610617575060028101546001600160a01b03848116911614155b156106475760405163ac7508b160e01b8152600481018590526001600160a01b03841660248201526044016103d1565b60028101546001600160a01b0316610677576002810180546001600160a01b0319166001600160a01b0385161790555b8181600401600082825461068b91906114fb565b909155505060048101546000036106ac5760078101805460ff191660031790555b6000806106b9858561112c565b90925090506001600160a01b038516867f07dd78b97459a0754e75d3d53bbd26afd8a683f317c40b50eea07d05c49f966b6106f4848661150e565b60408051918252602082018690520160405180910390a3505050610725600160008051602061155b83398151915255565b505050565b610732611178565b61073a611033565b60006107458361107a565b90506002600782015460ff166004811115610762576107626113fd565b1461078d576007810154604051637741837360e01b81526103d191859160ff909116906004016114d1565b600481018054600090915582156108295760078201805460ff19166003179055600182015460009081906107ca906001600160a01b03168461112c565b600186015491935091506001600160a01b0316867f07dd78b97459a0754e75d3d53bbd26afd8a683f317c40b50eea07d05c49f966b610809848661150e565b60408051918252602082018690520160405180910390a35050505061088a565b60078201805460ff19166004179055815461084d906001600160a01b0316826110b8565b837f8e09fed7623ad9f8d5a701dd9f3233197147d0043c564dfb1a6c0023ab568c208260405161087f91815260200190565b60405180910390a250505b6108a1600160008051602061155b83398151915255565b5050565b60006108af61104f565b6001600160a01b0385166108d65760405163e6c4247b60e01b815260040160405180910390fd5b428367ffffffffffffffff16116108ff5760405162d36c8560e81b815260040160405180910390fd5b8161091d5760405163204a5e5960e11b815260040160405180910390fd5b5060028054906001906000610932838561150e565b92505081905550604051806101000160405280336001600160a01b03168152602001866001600160a01b03168152602001856001600160a01b0316815260200160008152602001600081526020018467ffffffffffffffff168152602001838152602001600060048111156109a9576109a96113fd565b9052600082815260016020818152604092839020845181546001600160a01b03199081166001600160a01b03928316178355928601518285018054851691831691909117905593850151600282018054909316941693909317905560608301516003830155608083015160048084019190915560a084015160058401805467ffffffffffffffff191667ffffffffffffffff90921691909117905560c0840151600684015560e08401516007840180549193909260ff19909216918490811115610a7557610a756113fd565b021790555050604080516001600160a01b03878116825267ffffffffffffffff871660208301529181018590529087169150339083907ffa47e8a9e04e14a5d1c30a7445ba6a2090cab575b5ed84738131f871cb447b069060600160405180910390a4949350505050565b610ae8611178565b610af06111a5565b565b610afa61104f565b6000610b058361107a565b80549091506000906001600160a01b0316331480610b2f575060018201546001600160a01b031633145b80610b4457506000546001600160a01b031633145b905080610b63576040516282b42960e81b815260040160405180910390fd5b6001600783015460ff166004811115610b7e57610b7e6113fd565b14610ba9576007820154604051637741837360e01b81526103d191869160ff909116906004016114d1565b60078201805460ff19166002179055604051838152339085907f4c548bccf96a2e8d1f33a7c2725b1d0c734b1ea738a1fa2e4c65e78c33b81e219060200160405180910390a350505050565b610bfd611178565b610af060006111fa565b610c4c6040805161010081018252600080825260208201819052918101829052606081018290526080810182905260a0810182905260c081018290529060e082015290565b610c558261107a565b604080516101008101825282546001600160a01b03908116825260018401548116602083015260028401541691810191909152600382015460608201526004808301546080830152600583015467ffffffffffffffff1660a0830152600683015460c0830152600783015491929160e084019160ff90911690811115610cdd57610cdd6113fd565b6004811115610cee57610cee6113fd565b90525092915050565b610cff611178565b610af061124a565b6000612710610d17601e84611521565b610d219190611538565b92915050565b610d2f61104f565b6000610d3a8261107a565b80549091506001600160a01b03163314610d66576040516282b42960e81b815260040160405180910390fd5b6000600782015460ff166004811115610d8157610d816113fd565b14610dac576007810154604051637741837360e01b81526103d191849160ff909116906004016114d1565b600581015467ffffffffffffffff16421115610dde57604051636ae6b96160e11b8152600481018390526024016103d1565b34600003610dff5760405163162908e360e11b815260040160405180910390fd5b34600382018190556004820181905560078201805460ff1916600117905560405190815282907f911052e1be46242b46bf3c2762227ff37c000e5fe38727638096f3a17fbfe1709060200160405180910390a25050565b610e5e611033565b610e6661104f565b6000610e718261107a565b80549091506001600160a01b03163314801590610e9957506000546001600160a01b03163314155b15610eb6576040516282b42960e81b815260040160405180910390fd5b6001600782015460ff166004811115610ed157610ed16113fd565b14610efc576007810154604051637741837360e01b81526103d191849160ff909116906004016114d1565b600581015467ffffffffffffffff16421115610f2e57604051636ae6b96160e11b8152600481018390526024016103d1565b60048101546000819003610f555760405163162908e360e11b815260040160405180910390fd5b60006004830181905560078301805460ff1916600317905560018301548190610f87906001600160a01b03168461112c565b600186015491935091506001600160a01b0316857f07dd78b97459a0754e75d3d53bbd26afd8a683f317c40b50eea07d05c49f966b610fc6848661150e565b60408051918252602082018690520160405180910390a35050505061048f600160008051602061155b83398151915255565b611000611178565b6001600160a01b03811661102a57604051631e4fbdf760e01b8152600060048201526024016103d1565b61048f816111fa565b61103b61128d565b600260008051602061155b83398151915255565b600054600160a01b900460ff1615610af05760405163d93c066560e01b815260040160405180910390fd5b600081815260016020526040902080546001600160a01b03166110b3576040516305b3479760e11b8152600481018390526024016103d1565b919050565b6000826001600160a01b03168260405160006040518083038185875af1925050503d8060008114611105576040519150601f19603f3d011682016040523d82523d6000602084013e61110a565b606091505b5050905080610725576040516312171d8360e31b815260040160405180910390fd5b60008061113883610d07565b905061114481846114fb565b91508015611167576111676111616000546001600160a01b031690565b826110b8565b61117184836110b8565b9250929050565b6000546001600160a01b03163314610af05760405163118cdaa760e01b81523360048201526024016103d1565b6111ad6112bd565b6000805460ff60a01b191690557f5db9ee0a495bf2e6ff9c91a7834c1ba4fdd244a5e8aa4e537bd38aeae4b073aa335b6040516001600160a01b03909116815260200160405180910390a1565b600080546001600160a01b038381166001600160a01b0319831681178455604051919092169283917f8be0079c531659141344cd1fd0a4f28419497f9722a3daafe3b4186f6b6457e09190a35050565b61125261104f565b6000805460ff60a01b1916600160a01b1790557f62e78cea01bee320cd4e420270b5ea74000d11b0c9f74754ebdbfc544b05a2586111dd3390565b60008051602061155b83398151915254600203610af057604051633ee5aeb560e01b815260040160405180910390fd5b600054600160a01b900460ff16610af057604051638dfc202b60e01b815260040160405180910390fd5b6000602082840312156112f957600080fd5b5035919050565b80356001600160a01b03811681146110b357600080fd5b60008060006060848603121561132c57600080fd5b8335925061133c60208501611300565b9150604084013590509250925092565b6000806040838503121561135f57600080fd5b823591506020830135801515811461137657600080fd5b809150509250929050565b6000806000806080858703121561139757600080fd5b6113a085611300565b93506113ae60208601611300565b9250604085013567ffffffffffffffff811681146113cb57600080fd5b9396929550929360600135925050565b600080604083850312156113ee57600080fd5b50508035926020909101359150565b634e487b7160e01b600052602160045260246000fd5b6005811061143157634e487b7160e01b600052602160045260246000fd5b9052565b60006101008201905060018060a01b0380845116835280602085015116602084015280604085015116604084015250606083015160608301526080830151608083015267ffffffffffffffff60a08401511660a083015260c083015160c083015260e08301516114a860e0840182611413565b5092915050565b6000602082840312156114c157600080fd5b6114ca82611300565b9392505050565b828152604081016114ca6020830184611413565b634e487b7160e01b600052601160045260246000fd5b81810381811115610d2157610d216114e5565b80820180821115610d2157610d216114e5565b8082028115828204841417610d2157610d216114e5565b60008261155557634e487b7160e01b600052601260045260246000fd5b50049056fe9b779b17422d0df92223018b32b4d1fa46e071723d6817e2486d003becc55f00a2646970667358221220ae7eeebb638caf2603bbe7dfbd3cb6a2547ce353cdf92c703e9c1eaa91498f2864736f6c63430008140033"
}