{
  "_format": "hh-sol-artifact-1",
  "contractName": "SubcontractPayment",
  "sourceName": "src/SubcontractPayment.sol",
  "abi": [
    {
      "inputs": [],
      "stateMutability": "nonpayable",
      "type": "constructor"
    },
    {
      "inputs": [
        {
          "internalType": "uint256",
          "name": "id",
          "type": "uint256"
        },
        {
          "internalType": "uint256",
          "name": "requested",
          "type": "uint256"
        },
        {
          "internalType": "uint256",
          "name": "remaining",
          "type": "uint256"
        }
      ],
      "name": "AmountExceedRemaining",
      "type": "error"
    },
    {
      "inputs": [
        {
          "internalType": "uint256",
          "name": "id",
          "type": "uint256"
        }
      ],
      "name": "ClaimNotFound",
      "type": "error"
    },
    {
      "inputs": [],
      "name": "EnforcedPause",
      "type": "error"
    },
    {
      "inputs": [],
      "name": "ExpectedPause",
      "type": "error"
    },
    {
      "inputs": [],
      "name": "InsufficientFunds",
      "type": "error"
    },
    {
      "inputs": [],
      "name": "InvalidAddress",
      "type": "error"
    },
    {
      "inputs": [],
      "name": "InvalidAmount",
      "type": "error"
    },
    {
      "inputs": [],
      "name": "InvalidDates",
      "type": "error"
    },
    {
      "inputs": [
        {
          "internalType": "uint256",
          "name": "id",
          "type": "uint256"
        }
      ],
      "name": "InvalidStatus",
      "type": "error"
    },
    {
      "inputs": [
        {
          "internalType": "address",
          "name": "owner",
          "type": "address"
        }
      ],
      "name": "OwnableInvalidOwner",
      "type": "error"
    },
    {
      "inputs": [
        {
          "internalType": "address",
          "name": "account",
          "type": "address"
        }
      ],
      "name": "OwnableUnauthorizedAccount",
      "type": "error"
    },
    {
      "inputs": [],
      "name": "ReentrancyGuardReentrantCall",
      "type": "error"
    },
    {
      "inputs": [],
      "name": "RetentionTooHigh",
      "type": "error"
    },
    {
      "inputs": [
        {
          "internalType": "uint256",
          "name": "id",
          "type": "uint256"
        }
      ],
      "name": "SubcontractNotFound",
      "type": "error"
    },
    {
      "inputs": [],
      "name": "TransferFailed",
      "type": "error"
    },
    {
      "inputs": [],
      "name": "Unauthorized",
      "type": "error"
    },
    {
      "anonymous": false,
      "inputs": [
        {
          "indexed": true,
          "internalType": "uint256",
          "name": "claimId",
          "type": "uint256"
        },
        {
          "indexed": true,
          "internalType": "uint256",
          "name": "subcontractId",
          "type": "uint256"
        },
        {
          "indexed": true,
          "internalType": "address",
          "name": "subcontractor",
          "type": "address"
        },
        {
          "indexed": false,
          "internalType": "uint256",
          "name": "netAmount",
          "type": "uint256"
        },
        {
          "indexed": false,
          "internalType": "uint256",
          "name": "retention",
          "type": "uint256"
        }
      ],
      "name": "DirectPaymentReleased",
      "type": "event"
    },
    {
      "anonymous": false,
      "inputs": [
        {
          "indexed": true,
          "internalType": "address",
          "name": "previousOwner",
          "type": "address"
        },
        {
          "indexed": true,
          "internalType": "address",
          "name": "newOwner",
          "type": "address"
        }
      ],
      "name": "OwnershipTransferred",
      "type": "event"
    },
    {
      "anonymous": false,
      "inputs": [
        {
          "indexed": false,
          "internalType": "address",
          "name": "account",
          "type": "address"
        }
      ],
      "name": "Paused",
      "type": "event"
    },
    {
      "anonymous": false,
      "inputs": [
        {
          "indexed": true,
          "internalType": "uint256",
          "name": "claimId",
          "type": "uint256"
        },
        {
          "indexed": true,
          "internalType": "uint256",
          "name": "subcontractId",
          "type": "uint256"
        },
        {
          "indexed": false,
          "internalType": "uint256",
          "name": "amount",
          "type": "uint256"
        }
      ],
      "name": "PaymentClaimed",
      "type": "event"
    },
    {
      "anonymous": false,
      "inputs": [
        {
          "indexed": true,
          "internalType": "uint256",
          "name": "subcontractId",
          "type": "uint256"
        },
        {
          "indexed": true,
          "internalType": "address",
          "name": "subcontractor",
          "type": "address"
        },
        {
          "indexed": false,
          "internalType": "uint256",
          "name": "amount",
          "type": "uint256"
        }
      ],
      "name": "RetentionReleased",
      "type": "event"
    },
    {
      "anonymous": false,
      "inputs": [
        {
          "indexed": true,
          "internalType": "uint256",
          "name": "id",
          "type": "uint256"
        }
      ],
      "name": "SubcontractApproved",
      "type": "event"
    },
    {
      "anonymous": false,
      "inputs": [
        {
          "indexed": true,
          "internalType": "uint256",
          "name": "id",
          "type": "uint256"
        }
      ],
      "name": "SubcontractCompleted",
      "type": "event"
    },
    {
      "anonymous": false,
      "inputs": [
        {
          "indexed": true,
          "internalType": "uint256",
          "name": "id",
          "type": "uint256"
        }
      ],
      "name": "SubcontractDisputed",
      "type": "event"
    },
    {
      "anonymous": false,
      "inputs": [
        {
          "indexed": true,
          "internalType": "uint256",
          "name": "id",
          "type": "uint256"
        },
        {
          "indexed": true,
          "internalType": "address",
          "name": "generalContractor",
          "type": "address"
        },
        {
          "indexed": true,
          "internalType": "address",
          "name": "subcontractor",
          "type": "address"
        },
        {
          "indexed": false,
          "internalType": "uint256",
          "name": "totalAmount",
          "type": "uint256"
        }
      ],
      "name": "SubcontractRegistered",
      "type": "event"
    },
    {
      "anonymous": false,
      "inputs": [
        {
          "indexed": false,
          "internalType": "address",
          "name": "account",
          "type": "address"
        }
      ],
      "name": "Unpaused",
      "type": "event"
    },
    {
      "inputs": [],
      "name": "BPS_DENOMINATOR",
      "outputs": [
        {
          "internalType": "uint16",
          "name": "",
          "type": "uint16"
        }
      ],
      "stateMutability": "view",
      "type": "function"
    },
    {
      "inputs": [],
      "name": "MAX_RETENTION_RATE",
      "outputs": [
        {
          "internalType": "uint16",
          "name": "",
          "type": "uint16"
        }
      ],
      "stateMutability": "view",
      "type": "function"
    },
    {
      "inputs": [
        {
          "internalType": "uint256",
          "name": "_id",
          "type": "uint256"
        }
      ],
      "name": "approveSubcontract",
      "outputs": [],
      "stateMutability": "nonpayable",
      "type": "function"
    },
    {
      "inputs": [
        {
          "internalType": "uint256",
          "name": "_subcontractId",
          "type": "uint256"
        },
        {
          "internalType": "uint256",
          "name": "_amount",
          "type": "uint256"
        },
        {
          "internalType": "string",
          "name": "_workDescription",
          "type": "string"
        }
      ],
      "name": "claimPayment",
      "outputs": [
        {
          "internalType": "uint256",
          "name": "claimId",
          "type": "uint256"
        }
      ],
      "stateMutability": "nonpayable",
      "type": "function"
    },
    {
      "inputs": [
        {
          "internalType": "uint256",
          "name": "",
          "type": "uint256"
        }
      ],
      "name": "claims",
      "outputs": [
        {
          "internalType": "uint256",
          "name": "subcontractId",
          "type": "uint256"
        },
        {
          "internalType": "uint256",
          "name": "amount",
          "type": "uint256"
        },
        {
          "internalType": "string",
          "name": "workDescription",
          "type": "string"
        },
        {
          "internalType": "uint64",
          "name": "claimDate",
          "type": "uint64"
        },
        {
          "internalType": "enum SubcontractPayment.ClaimStatus",
          "name": "status",
          "type": "uint8"
        }
      ],
      "stateMutability": "view",
      "type": "function"
    },
    {
      "inputs": [
        {
          "internalType": "uint256",
          "name": "_id",
          "type": "uint256"
        }
      ],
      "name": "completeSubcontract",
      "outputs": [],
      "stateMutability": "nonpayable",
      "type": "function"
    },
    {
      "inputs": [
        {
          "internalType": "uint256",
          "name": "_id",
          "type": "uint256"
        }
      ],
      "name": "disputeSubcontract",
      "outputs": [],
      "stateMutability": "nonpayable",
      "type": "function"
    },
    {
      "inputs": [],
      "name": "nextClaimId",
      "outputs": [
        {
          "internalType": "uint256",
          "name": "",
          "type": "uint256"
        }
      ],
      "stateMutability": "view",
      "type": "function"
    },
    {
      "inputs": [],
      "name": "nextSubcontractId",
      "outputs": [
        {
          "internalType": "uint256",
          "name": "",
          "type": "uint256"
        }
      ],
      "stateMutability": "view",
      "type": "function"
    },
    {
      "inputs": [],
      "name": "owner",
      "outputs": [
        {
          "internalType": "address",
          "name": "",
          "type": "address"
        }
      ],
      "stateMutability": "view",
      "type": "function"
    },
    {
      "inputs": [],
      "name": "pause",
      "outputs": [],
      "stateMutability": "nonpayable",
      "type": "function"
    },
    {
      "inputs": [],
      "name": "paused",
      "outputs": [
        {
          "internalType": "bool",
          "name": "",
          "type": "bool"
        }
      ],
      "stateMutability": "view",
      "type": "function"
    },
    {
      "inputs": [
        {
          "internalType": "address",
          "name": "_subcontractor",
          "type": "address"
        },
        {
          "internalType": "uint256",
          "name": "_totalAmount",
          "type": "uint256"
        },
        {
          "internalType": "uint256",
          "name": "_retentionRate",
          "type": "uint256"
        },
        {
          "internalType": "uint64",
          "name": "_startDate",
          "type": "uint64"
        },
        {
          "internalType": "uint64",
          "name": "_endDate",
          "type": "uint64"
        }
      ],
      "name": "registerSubcontract",
      "outputs": [
        {
          "internalType": "uint256",
          "name": "subcontractId",
          "type": "uint256"
        }
      ],
      "stateMutability": "nonpayable",
      "type": "function"
    },
    {
      "inputs": [
        {
          "internalType": "uint256",
          "name": "_claimId",
          "type": "uint256"
        }
      ],
      "name": "rejectClaim",
      "outputs": [],
      "stateMutability": "nonpayable",
      "type": "function"
    },
    {
      "inputs": [
        {
          "internalType": "uint256",
          "name": "_claimId",
          "type": "uint256"
        }
      ],
      "name": "releaseDirectPayment",
      "outputs": [],
      "stateMutability": "payable",
      "type": "function"
    },
    {
      "inputs": [
        {
          "internalType": "uint256",
          "name": "_subcontractId",
          "type": "uint256"
        }
      ],
      "name": "releaseRetention",
      "outputs": [],
      "stateMutability": "payable",
      "type": "function"
    },
    {
      "inputs": [],
      "name": "renounceOwnership",
      "outputs": [],
      "stateMutability": "nonpayable",
      "type": "function"
    },
    {
      "inputs": [
        {
          "internalType": "uint256",
          "name": "",
          "type": "uint256"
        }
      ],
      "name": "retentionBalance",
      "outputs": [
        {
          "internalType": "uint256",
          "name": "",
          "type": "uint256"
        }
      ],
      "stateMutability": "view",
      "type": "function"
    },
    {
      "inputs": [
        {
          "internalType": "uint256",
          "name": "",
          "type": "uint256"
        }
      ],
      "name": "subcontracts",
      "outputs": [
        {
          "internalType": "address",
          "name": "generalContractor",
          "type": "address"
        },
        {
          "internalType": "address",
          "name": "subcontractor",
          "type": "address"
        },
        {
          "internalType": "uint256",
          "name": "totalAmount",
          "type": "uint256"
        },
        {
          "internalType": "uint256",
          "name": "paidAmount",
          "type": "uint256"
        },
        {
          "internalType": "uint256",
          "name": "retentionRate",
          "type": "uint256"
        },
        {
          "internalType": "uint64",
          "name": "startDate",
          "type": "uint64"
        },
        {
          "internalType": "uint64",
          "name": "endDate",
          "type": "uint64"
        },
        {
          "internalType": "enum SubcontractPayment.SubcontractStatus",
          "name": "status",
          "type": "uint8"
        }
      ],
      "stateMutability": "view",
      "type": "function"
    },
    {
      "inputs": [
        {
          "internalType": "address",
          "name": "newOwner",
          "type": "address"
        }
      ],
      "name": "transferOwnership",
      "outputs": [],
      "stateMutability": "nonpayable",
      "type": "function"
    },
    {
      "inputs": [],
      "name": "unpause",
      "outputs": [],
      "stateMutability": "nonpayable",
      "type": "function"
    }
  ],
  "bytecode": "0x6080806040523461009e5733156100885760008054336001600160a01b03198216811783556040519290916001600160a01b0316907f8be0079c531659141344cd1fd0a4f28419497f9722a3daafe3b4186f6b6457e09080a360017f9b779b17422d0df92223018b32b4d1fa46e071723d6817e2486d003becc55f005561126190816100a48239f35b631e4fbdf760e01b815260006004820152602490fd5b600080fdfe6080604052600436101561001257600080fd5b60003560e01c80631c4964be14610cc15780632034110114610c4d57806333556de514610c2157806335dc63ff14610c045780633f4ba83a14610b925780634288f93714610ae65780635c975abb14610ac0578063715018a614610a67578063780230371461095e5780638456cb59146108fc5780638da5cb5b146108d3578063984d5e2314610838578063a0021cf11461081a578063a888c2cd146106c1578063aec7f545146104f0578063b4acfc4a146102eb578063bf7c2d83146102cd578063c46017a414610259578063c9c69450146101b3578063e1a45218146101965763f2fde38b1461010357600080fd5b346101915760203660031901126101915761011c6110ad565b6101246110c3565b6001600160a01b0390811690811561017857600054826bffffffffffffffffffffffff60a01b821617600055167f8be0079c531659141344cd1fd0a4f28419497f9722a3daafe3b4186f6b6457e0600080a3005b604051631e4fbdf760e01b815260006004820152602490fd5b600080fd5b346101915760003660031901126101915760206040516127108152f35b34610191576020366003190112610191576004356101cf6110c3565b60056101da826111c7565b01805460ff8160801c1660068110156102435760020361022a5760ff60801b1916600360801b1790557f1da7a13b2292c7a1502e32bc2ee1a16d05dd3320bd643864220f3f04301ddc2d600080a2005b604051631961fd9360e11b815260048101849052602490fd5b634e487b7160e01b600052602160045260246000fd5b34610191576020366003190112610191576004356102756110c3565b6005610280826111c7565b01805460ff8160801c1660068110156102435761022a5760ff60801b1916600160801b1790557fc4b242f5264f8a565694a739ba5bea51b0e5de7771cd34d39edcec257de85ce4600080a2005b34610191576000366003190112610191576020600154604051908152f35b346101915760a0366003190112610191576103046110ad565b60443567ffffffffffffffff6024356064358281169081900361019157608435838116809103610191576103366110fe565b6001600160a01b039586169384156104de5783156104cc57828211156104ba576107d086116104a8576001549561036c876110ef565b600155604051610100810191818310848411176104925760009960059360405233835260208301898152604084019089825260608501928d84526080860194855260a08601998a5260c0860198895260e086019d8e528c6000526003602052806040600020965116906bffffffffffffffffffffffff60a01b9182885416178755600187019251169082541617905551600284015551600383015551600482015501925116956fffffffffffffffff00000000000000008354925160401b1690519660068810156102435760209760ff60801b9060801b169270ffffffffffffffffffffffffffffffffff19161717179055604051908152827f37cd290f96da38bfc518e27a36ecd11675b2e30f0c7241c3f43ca3f7bb2c371a853393a4604051908152f35b634e487b7160e01b600052604160045260246000fd5b604051632c53f9a960e11b8152600490fd5b60405163364dd21b60e21b8152600490fd5b60405163162908e360e11b8152600490fd5b60405163e6c4247b60e01b8152600490fd5b6020366003190112610191576004356105076110c3565b61050f611185565b6105176110fe565b610520816111f9565b90600382019081549260ff8460401c166004811015610243576106a85761054781546111c7565b93600182015494600481015480870290878204148715171561069257612710900495610573878261111f565b95863410610680576803000000000000000060019460ff60401b19161790556105a160038301918254611148565b90558254600052600560205260406000206105bd878254611148565b9055019260018060a01b0391600080808085878a54165af16105dd611155565b501561066e57813411610647575b907f9684925264666113d8c99a280d237950e071c60554d17b5b81e661990652e74292604092549554169582519182526020820152a460017f9b779b17422d0df92223018b32b4d1fa46e071723d6817e2486d003becc55f0055005b906000808080610657853461111f565b335af1610662611155565b501561066e57906105eb565b6040516312171d8360e31b8152600490fd5b60405163356680b760e01b8152600490fd5b634e487b7160e01b600052601160045260246000fd5b604051631961fd9360e11b815260048101839052602490fd5b3461019157602080600319360112610191576004356000526004815260406000209081549160019182820154916002810160405194859160009181549161070783611051565b928386528783821691826000146107f45750506001146107b2575b5050506003929161073491038661108b565b01549060ff8260401c16926040519586528186015260a060408601528351938460a087015260005b85811061079e575050600085850160c001525067ffffffffffffffff1660608401526004811015610243576080830152601f01601f1916810181900360c00190f35b81810183015187820160c00152820161075c565b86935060009291925282600020916000925b8284106107dc57505050820101816107346003610722565b8054848b0186015289955087949093019281016107c4565b60ff19168782015293151560051b86019093019350849250610734915060039050610722565b34610191576000366003190112610191576020600254604051908152f35b34610191576020366003190112610191576004356000526003602052604060002060018060a01b038082541690600183015416916002810154906003810154600560048301549201549260ff8460801c1695604051958652602086015260408501526060840152608083015267ffffffffffffffff9081811660a084015260401c1660c08201526006821015610243576101009160e0820152f35b34610191576000366003190112610191576000546040516001600160a01b039091168152602090f35b34610191576000366003190112610191576109156110c3565b61091d6110fe565b6000805460ff60a01b1916600160a01b1790556040513381527f62e78cea01bee320cd4e420270b5ea74000d11b0c9f74754ebdbfc544b05a25890602090a1005b6020366003190112610191576004356109756110c3565b61097d611185565b610986816111c7565b908060005260056020526040600020549182156104cc57816000526005602052600060408120558234106106805760010160018060a01b0390600080808087868654165af16109d3611155565b501561066e57833411610a36575b7f768f20c3678ce21009970cf61f3485842971ca8d9f91b7dc7597689b26edb79b91602091541693604051908152a360017f9b779b17422d0df92223018b32b4d1fa46e071723d6817e2486d003becc55f0055005b6000808080610a45883461111f565b335af1610a50611155565b506109e1576040516312171d8360e31b8152600490fd5b3461019157600036600319011261019157610a806110c3565b600080546001600160a01b0319811682556001600160a01b03167f8be0079c531659141344cd1fd0a4f28419497f9722a3daafe3b4186f6b6457e08280a3005b3461019157600036600319011261019157602060ff60005460a01c166040519015158152f35b3461019157602036600319011261019157600435610b03816111c7565b8054336001600160a01b0391821614159081610b80575b81610b71575b50610b6057600501805460ff60801b1916600160821b1790557fbe7dfd27c273525e7d2e5355324e18149f6e9bc060fbc492714133c75a90c12d600080a2005b6040516282b42960e81b8152600490fd5b90506000541633141583610b20565b80915060018301541633141590610b1a565b3461019157600036600319011261019157610bab6110c3565b60005460ff8160a01c1615610bf25760ff60a01b19166000556040513381527f5db9ee0a495bf2e6ff9c91a7834c1ba4fdd244a5e8aa4e537bd38aeae4b073aa90602090a1005b604051638dfc202b60e01b8152600490fd5b346101915760003660031901126101915760206040516107d08152f35b346101915760203660031901126101915760043560005260056020526020604060002054604051908152f35b3461019157602036600319011261019157600435610c696110c3565b6003610c74826111f9565b019081549060ff8260401c16600481101561024357610ca9575068ff0000000000000000191668020000000000000000179055005b60249060405190631961fd9360e11b82526004820152fd5b346101915760603660031901126101915767ffffffffffffffff60443511610191573660236044350112156101915767ffffffffffffffff6044356004013511610191573660246044356004013560443501011161019157610d216110fe565b610d2c6004356111c7565b60018101546001600160a01b03163303610b605760ff600582015460801c1660068110156102435760018114159081611045575b5061102c57610d78600282015460038301549061111f565b80602435116110045750600254610d8e816110ef565b60025560405160a0810181811067ffffffffffffffff821117610492576040526004358152602081016024358152610dcb6044356004013561112c565b610dd8604051918261108b565b60443560048101358083529060240160208301376000602060443560040135830101526040830190815267ffffffffffffffff4216606084015260006080840152836000526004602052604060002091835183555160018301555180519067ffffffffffffffff821161049257610e526002840154611051565b601f8111610fbd575b50602090601f8311600114610f4d57600393929160009183610f42575b50508160011b9160001990851b1c19161760028201555b019067ffffffffffffffff6060820151166080835492015160048110156102435760ff60401b9060401b169168ffffffffffffffffff19161717905560058201549160ff8360801c1692600684101561024357600160209414610f27575b50506040516024358152817f9575a289a9bfc7a5fd845ab0763b8d498955692c0aa7fec362de9bb9d27afbaa8460043593a3604051908152f35b60ff60801b1916600160811b17600591909101558280610eed565b015190508780610e78565b90601f198316916002850160005260206000209260005b818110610fa55750916001939185600397969410610f8d575b505050811b016002820155610e8f565b015160001983871b60f8161c19169055878080610f7d565b92936020600181928786015181550195019301610f64565b600284016000526020600020601f840160051c810160208510610ffd575b601f830160051c82018110610ff1575050610e5b565b60008155600101610fdb565b5080610fdb565b606490604051906373445d6360e01b8252600435600483015260243560248301526044820152fd5b6024604051631961fd9360e11b81526004356004820152fd5b60029150141582610d60565b90600182811c92168015611081575b602083101461106b57565b634e487b7160e01b600052602260045260246000fd5b91607f1691611060565b90601f8019910116810190811067ffffffffffffffff82111761049257604052565b600435906001600160a01b038216820361019157565b6000546001600160a01b031633036110d757565b60405163118cdaa760e01b8152336004820152602490fd5b60001981146106925760010190565b60ff60005460a01c1661110d57565b60405163d93c066560e01b8152600490fd5b9190820391821161069257565b67ffffffffffffffff811161049257601f01601f191660200190565b9190820180921161069257565b3d15611180573d906111668261112c565b91611174604051938461108b565b82523d6000602084013e565b606090565b7f9b779b17422d0df92223018b32b4d1fa46e071723d6817e2486d003becc55f0060028154146111b55760029055565b604051633ee5aeb560e01b8152600490fd5b6001548110156111e1576000526003602052604060002090565b602490604051906328eb96e760e11b82526004820152fd5b600254811015611213576000526004602052604060002090565b60249060405190633373e46160e01b82526004820152fdfea2646970667358221220a500ce273047b08d1c0a6d0ecb86ba28519ee7d889616b3673b614d3c6d904b164736f6c63430008140033",
  "linkReferences": {},
  "deployedLinkReferences": {}
}