{"src/PropAIEscrow.sol":{"PropAIEscrow":{"abi":[{"inputs":[],"stateMutability":"nonpayable","type":"constructor"},{"inputs":[{"internalType":"uint256","name":"escrowId","type":"uint256"},{"internalType":"uint256","name":"requested","type":"uint256"},{"internalType":"uint256","name":"available","type":"uint256"}],"name":"AmountExceedsBalance","type":"error"},{"inputs":[],"name":"EnforcedPause","type":"error"},{"inputs":[{"internalType":"uint256","name":"escrowId","type":"uint256"}],"name":"EscrowExpired","type":"error"},{"inputs":[{"internalType":"uint256","name":"escrowId","type":"uint256"}],"name":"EscrowNotExpired","type":"error"},{"inputs":[{"internalType":"uint256","name":"escrowId","type":"uint256"}],"name":"EscrowNotFound","type":"error"},{"inputs":[],"name":"ExpectedPause","type":"error"},{"inputs":[],"name":"InvalidAddress","type":"error"},{"inputs":[],"name":"InvalidAmount","type":"error"},{"inputs":[],"name":"InvalidConditionHash","type":"error"},{"inputs":[{"internalType":"uint256","name":"escrowId","type":"uint256"},{"internalType":"enum PropAIEscrow.EscrowStatus","name":"currentStatus","type":"uint8"}],"name":"InvalidEscrowState","type":"error"},{"inputs":[],"name":"InvalidExpiry","type":"error"},{"inputs":[{"internalType":"uint256","name":"escrowId","type":"uint256"},{"internalType":"address","name":"subcontractor","type":"address"}],"name":"InvalidSubcontractor","type":"error"},{"inputs":[{"internalType":"address","name":"owner","type":"address"}],"name":"OwnableInvalidOwner","type":"error"},{"inputs":[{"internalType":"address","name":"account","type":"address"}],"name":"OwnableUnauthorizedAccount","type":"error"},{"inputs":[],"name":"ReentrancyGuardReentrantCall","type":"error"},{"inputs":[],"name":"TransferFailed","type":"error"},{"inputs":[],"name":"Unauthorized","type":"error"},{"anonymous":false,"inputs":[{"indexed":true,"internalType":"uint256","name":"escrowId","type":"uint256"},{"indexed":true,"internalType":"address","name":"payer","type":"address"},{"indexed":true,"internalType":"address","name":"payee","type":"address"},{"indexed":false,"internalType":"address","name":"subcontractor","type":"address"},{"indexed":false,"internalType":"uint64","name":"expiresAt","type":"uint64"},{"indexed":false,"internalType":"bytes32","name":"conditionHash","type":"bytes32"}],"name":"EscrowCreated","type":"event"},{"anonymous":false,"inputs":[{"indexed":true,"internalType":"uint256","name":"escrowId","type":"uint256"},{"indexed":true,"internalType":"address","name":"initiator","type":"address"},{"indexed":false,"internalType":"bytes32","name":"reasonHash","type":"bytes32"}],"name":"EscrowDisputed","type":"event"},{"anonymous":false,"inputs":[{"indexed":true,"internalType":"uint256","name":"escrowId","type":"uint256"},{"indexed":false,"internalType":"uint256","name":"amount","type":"uint256"}],"name":"EscrowFunded","type":"event"},{"anonymous":false,"inputs":[{"indexed":true,"internalType":"uint256","name":"escrowId","type":"uint256"},{"indexed":false,"internalType":"uint256","name":"amount","type":"uint256"}],"name":"EscrowRefunded","type":"event"},{"anonymous":false,"inputs":[{"indexed":true,"internalType":"uint256","name":"escrowId","type":"uint256"},{"indexed":true,"internalType":"address","name":"recipient","type":"address"},{"indexed":false,"internalType":"uint256","name":"grossAmount","type":"uint256"},{"indexed":false,"internalType":"uint256","name":"feeAmount","type":"uint256"}],"name":"EscrowReleased","type":"event"},{"anonymous":false,"inputs":[{"indexed":true,"internalType":"address","name":"previousOwner","type":"address"},{"indexed":true,"internalType":"address","name":"newOwner","type":"address"}],"name":"OwnershipTransferred","type":"event"},{"anonymous":false,"inputs":[{"indexed":false,"internalType":"address","name":"account","type":"address"}],"name":"Paused","type":"event"},{"anonymous":false,"inputs":[{"indexed":false,"internalType":"address","name":"account","type":"address"}],"name":"Unpaused","type":"event"},{"inputs":[],"name":"BPS_DENOMINATOR","outputs":[{"internalType":"uint16","name":"","type":"uint16"}],"stateMutability":"view","type":"function"},{"inputs":[],"name":"FEE_BPS","outputs":[{"internalType":"uint16","name":"","type":"uint16"}],"stateMutability":"view","type":"function"},{"inputs":[{"internalType":"uint256","name":"escrowId","type":"uint256"}],"name":"autoRefundOnExpiry","outputs":[],"stateMutability":"nonpayable","type":"function"},{"inputs":[{"internalType":"uint256","name":"grossAmount","type":"uint256"}],"name":"calculateFee","outputs":[{"internalType":"uint256","name":"","type":"uint256"}],"stateMutability":"pure","type":"function"},{"inputs":[{"internalType":"address","name":"payee","type":"address"},{"internalType":"address","name":"subcontractor","type":"address"},{"internalType":"uint64","name":"expiresAt","type":"uint64"},{"internalType":"bytes32","name":"conditionHash","type":"bytes32"}],"name":"createEscrow","outputs":[{"internalType":"uint256","name":"escrowId","type":"uint256"}],"stateMutability":"nonpayable","type":"function"},{"inputs":[{"internalType":"uint256","name":"escrowId","type":"uint256"},{"internalType":"address","name":"subcontractor","type":"address"},{"internalType":"uint256","name":"grossAmount","type":"uint256"}],"name":"directPaymentToSubcontractor","outputs":[],"stateMutability":"nonpayable","type":"function"},{"inputs":[{"internalType":"uint256","name":"escrowId","type":"uint256"}],"name":"fundEscrow","outputs":[],"stateMutability":"payable","type":"function"},{"inputs":[{"internalType":"uint256","name":"escrowId","type":"uint256"}],"name":"getEscrow","outputs":[{"components":[{"internalType":"address","name":"payer","type":"address"},{"internalType":"address","name":"payee","type":"address"},{"internalType":"address","name":"subcontractor","type":"address"},{"internalType":"uint256","name":"totalAmount","type":"uint256"},{"internalType":"uint256","name":"remainingAmount","type":"uint256"},{"internalType":"uint64","name":"expiresAt","type":"uint64"},{"internalType":"bytes32","name":"conditionHash","type":"bytes32"},{"internalType":"enum PropAIEscrow.EscrowStatus","name":"status","type":"uint8"}],"internalType":"struct PropAIEscrow.Escrow","name":"","type":"tuple"}],"stateMutability":"view","type":"function"},{"inputs":[],"name":"getNextEscrowId","outputs":[{"internalType":"uint256","name":"","type":"uint256"}],"stateMutability":"view","type":"function"},{"inputs":[{"internalType":"uint256","name":"escrowId","type":"uint256"},{"internalType":"bytes32","name":"reasonHash","type":"bytes32"}],"name":"initiateDispute","outputs":[],"stateMutability":"nonpayable","type":"function"},{"inputs":[],"name":"owner","outputs":[{"internalType":"address","name":"","type":"address"}],"stateMutability":"view","type":"function"},{"inputs":[],"name":"pause","outputs":[],"stateMutability":"nonpayable","type":"function"},{"inputs":[],"name":"paused","outputs":[{"internalType":"bool","name":"","type":"bool"}],"stateMutability":"view","type":"function"},{"inputs":[{"internalType":"uint256","name":"escrowId","type":"uint256"}],"name":"releaseEscrow","outputs":[],"stateMutability":"nonpayable","type":"function"},{"inputs":[],"name":"renounceOwnership","outputs":[],"stateMutability":"nonpayable","type":"function"},{"inputs":[{"internalType":"uint256","name":"escrowId","type":"uint256"},{"internalType":"bool","name":"releaseToPayee","type":"bool"}],"name":"resolveDispute","outputs":[],"stateMutability":"nonpayable","type":"function"},{"inputs":[{"internalType":"address","name":"newOwner","type":"address"}],"name":"transferOwnership","outputs":[],"stateMutability":"nonpayable","type":"function"},{"inputs":[],"name":"unpause","outputs":[],"stateMutability":"nonpayable","type":"function"}],"evm":{"bytecode":{"linkReferences":{},"object":"608080604052346100a357331561008d5760008054336001600160a01b03198216811783556040519290916001600160a01b0316907f8be0079c531659141344cd1fd0a4f28419497f9722a3daafe3b4186f6b6457e09080a360017f9b779b17422d0df92223018b32b4d1fa46e071723d6817e2486d003becc55f0055600160025561110f90816100a98239f35b631e4fbdf760e01b815260006004820152602490fd5b600080fdfe6040608081526004908136101561001557600080fd5b600091823560e01c8063022b133814610c6257806311e6831614610a5c57806334b25ee214610a1057806339eefa74146108315780633f4ba83a146107c4578063400f4696146107a55780635ba462f1146106a25780635c975abb1461067d578063715018a6146106235780637d19e596146104e75780638456cb59146104885780638da5cb5b1461046057806399a5d74714610436578063bf333f2c1461041a578063c9c31af514610304578063e1a45218146102e3578063ed653164146101705763f2fde38b146100e757600080fd5b3461016c57602036600319011261016c57610100610d6f565b90610109610da8565b6001600160a01b0391821692831561015657505082546001600160a01b0319811683178455167f8be0079c531659141344cd1fd0a4f28419497f9722a3daafe3b4186f6b6457e08380a380f35b51631e4fbdf760e01b8152908101849052602490fd5b8280fd5b50903461016c57602036600319011261016c5781359061018e610e4f565b610196610e2e565b61019f82610fad565b80546001600160a01b0391908216331415806102d6575b6102c75760078101805460ff811660058110156102b4576001810361028f575067ffffffffffffffff600584015416421161027857868301805497881561026a57507f07dd78b97459a0754e75d3d53bbd26afd8a683f317c40b50eea07d05c49f966b95949361024993600361023d948c6001955560ff1916179055019683885416610fea565b92839197541696610dd4565b9082519182526020820152a360016000805160206110ba8339815191525580f35b865163162908e360e11b8152fd5b8451636ae6b96160e11b8152808801879052602490fd5b8551637741837360e01b81528089018890526044916102b2906024830190610d85565bfd5b634e487b7160e01b895260218852602489fd5b82516282b42960e81b81528590fd5b50818654163314156101b6565b505034610300578160031936011261030057602090516127108152f35b5080fd5b5090602036600319011261016c5781359161031d610e2e565b61032683610fad565b80549091906001600160a01b0316330361040d57600782019182549160ff831660058110156103fa57806103d8575067ffffffffffffffff60058301541642116103c15734156103b3577f911052e1be46242b46bf3c2762227ff37c000e5fe38727638096f3a17fbfe1709492602094926001923460038301553491015560ff191617905551348152a280f35b845163162908e360e11b8152fd5b8451636ae6b96160e11b8152908101869052602490fd5b906102b260449288885193637741837360e01b85528401526024830190610d85565b634e487b7160e01b885260218252602488fd5b82516282b42960e81b8152fd5b50503461030057816003193601126103005760209051601e8152f35b50913461045d57602036600319011261045d575061045660209235610f92565b9051908152f35b80fd5b505034610300578160031936011261030057905490516001600160a01b039091168152602090f35b50503461030057816003193601126103005760207f62e78cea01bee320cd4e420270b5ea74000d11b0c9f74754ebdbfc544b05a258916104c6610da8565b6104ce610e2e565b835460ff60a01b1916600160a01b17845551338152a180f35b50913461045d57602036600319011261045d578060e0610505610df7565b82815282602082015282858201528260608201528260808201528260a08201528260c082015201526105378335610fad565b61053f610df7565b92839160018060a01b039182825416845282600183015416926020850193845280600284015416918086019283526003840154916060870192835289850154936080880194855267ffffffffffffffff9660ff60078960058a0154169860a08c01998a5260c060068201549c019b8c5201541660e08c019a6005821015610610576101008d61060e8e8e8e8e8e8e8e8e8e818f8f8b528185519d51168d52511660208c0152511690890152516060880152516080870152511660a08501525160c08401525160e0830190610d85565bf35b634e487b7160e01b815260218e52602490fd5b833461045d578060031936011261045d5761063c610da8565b80546001600160a01b03198116825581906001600160a01b03167f8be0079c531659141344cd1fd0a4f28419497f9722a3daafe3b4186f6b6457e08280a380f35b50503461030057816003193601126103005760ff6020925460a01c1690519015158152f35b50903461016c578060031936011261016c578135916106bf610e2e565b6106c883610fad565b8054336001600160a01b0391821614908115610794575b8115610787575b5015610779576007019081549060ff82166005811015610766576001810361074457505060029060ff1916179055519060243582527f4c548bccf96a2e8d1f33a7c2725b1d0c734b1ea738a1fa2e4c65e78c33b81e2160203393a380f35b906102b260449287875193637741837360e01b85528401526024830190610d85565b634e487b7160e01b875260218252602487fd5b5090516282b42960e81b8152fd5b90508554163314386106e6565b8091506001830154163314906106df565b5050346103005781600319360112610300576020906002549051908152f35b503461016c578260031936011261016c576107dd610da8565b82549060ff8260a01c1615610823575060ff60a01b19168255513381527f5db9ee0a495bf2e6ff9c91a7834c1ba4fdd244a5e8aa4e537bd38aeae4b073aa90602090a180f35b8251638dfc202b60e01b8152fd5b509190346103005760803660031901126103005761084d610d6f565b610855610d54565b906044359367ffffffffffffffff94858116809103610300576064359161087a610e2e565b6001600160a01b03938416948515610a0057428311156109f15783156109e1576002549760018901808a116109ce578484939287926002558b8b6108bc610df7565b95338752602087018d81528c83890192169c8d83528060608a01948b865260808b01968c885260a08c01998a5260c08c019a8b5260e08c019d8e528c5260016020528b20995116916bffffffffffffffffffffffff60a01b92838b5416178a558160018b01915116838254161790556002890192511690825416179055516003860155518d8501556005840191511667ffffffffffffffff1982541617905551600682015560070191519060058210156109bb57506020985060ff8019835416911617905584519283528683015283820152837ffa47e8a9e04e14a5d1c30a7445ba6a2090cab575b5ed84738131f871cb447b0660603393a451908152f35b634e487b7160e01b815260218a52602490fd5b634e487b7160e01b845260118b52602484fd5b865163204a5e5960e11b81528990fd5b865162d36c8560e81b81528990fd5b865163e6c4247b60e01b81528990fd5b50903461016c5736600319011261030057602435801515810361016c57610a4791610a39610da8565b610a41610e4f565b35610e8c565b60016000805160206110ba8339815191525580f35b50829034610300576060366003190112610300578035610a7a610d54565b9360443594610a87610e4f565b610a8f610e2e565b610a9883610fad565b80546001600160a01b039190821633141580610c55575b610c4657600781019182549160ff83166005811015610c335760018103610c10575067ffffffffffffffff6005820154164211610bf957818516978815610beb578a1561026a5780820192835492838d11610bc957600201918254918216908115918c83159182610bbe575b5050610ba2575093610b658d7f07dd78b97459a0754e75d3d53bbd26afd8a683f317c40b50eea07d05c49f966b9a999561024999958e610b759a96849a610b8d575b505050610e7f565b80915515610b7d575b5050610fea565b809291610dd4565b60ff191660031790558980610b6e565b6001600160a01b0319161790558f8e81610b5d565b6044908c8c8c519263ac7508b160e01b84528301526024820152fd5b141590508c38610b1b565b606483858f8d8d5193631416471160e01b855284015260248301526044820152fd5b865163e6c4247b60e01b8152fd5b8551636ae6b96160e11b8152808901889052602490fd5b8651637741837360e01b8152808a018990526044916102b2906024830190610d85565b634e487b7160e01b8a526021895260248afd5b83516282b42960e81b81528690fd5b5081875416331415610aaf565b50903461016c57602036600319011261016c57813591610c80610e4f565b610c88610e2e565b610c9183610fad565b6007810180549260ff841660058110156103fa57600181141580610d49575b6103d8575067ffffffffffffffff600584015416421115610d325780830180549088905560ff19909416179055547f8e09fed7623ad9f8d5a701dd9f3233197147d0043c564dfb1a6c0023ab568c209260209291610d189083906001600160a01b0316611024565b51908152a260016000805160206110ba8339815191525580f35b8451631576df4f60e11b8152908101869052602490fd5b506002811415610cb0565b602435906001600160a01b0382168203610d6a57565b600080fd5b600435906001600160a01b0382168203610d6a57565b906005821015610d925752565b634e487b7160e01b600052602160045260246000fd5b6000546001600160a01b03163303610dbc57565b60405163118cdaa760e01b8152336004820152602490fd5b91908201809211610de157565b634e487b7160e01b600052601160045260246000fd5b60405190610100820182811067ffffffffffffffff821117610e1857604052565b634e487b7160e01b600052604160045260246000fd5b60ff60005460a01c16610e3d57565b60405163d93c066560e01b8152600490fd5b6000805160206110ba8339815191526002815414610e6d5760029055565b604051633ee5aeb560e01b8152600490fd5b91908203918211610de157565b610e9581610fad565b60078101805460ff81166005811015610d925760028103610f6d57506004830194600086549655610f125750805460ff191660041790555490917f8e09fed7623ad9f8d5a701dd9f3233197147d0043c564dfb1a6c0023ab568c209160209190610f099082906001600160a01b0316611024565b604051908152a2565b60ff19166003179055600101805490927f07dd78b97459a0754e75d3d53bbd26afd8a683f317c40b50eea07d05c49f966b916040916001600160a01b0391610f5f9161023d918416610fea565b9082519182526020820152a3565b604051637741837360e01b8152600481018690526044916102b2906024830190610d85565b601e810290808204601e1490151715610de157612710900490565b60008181526001602052604090208054909291906001600160a01b031615610fd25750565b602490604051906305b3479760e11b82526004820152fd5b9161100d611001610ffa84610f92565b8094610e7f565b80948461100f57611024565b565b6000546110249086906001600160a01b031682565b60008080809481945af1903d156110b35767ffffffffffffffff903d82811161109f5760405192601f8201601f19908116603f011684019081118482101761108b57604052825260203d92013e5b1561107957565b6040516312171d8360e31b8152600490fd5b634e487b7160e01b83526041600452602483fd5b634e487b7160e01b82526041600452602482fd5b5061107256fe9b779b17422d0df92223018b32b4d1fa46e071723d6817e2486d003becc55f00a2646970667358221220590d0a62c9a337f27b3910276e1b9fdbedcc7cbe46701bbd52df94c46b74abc964736f6c63430008140033","opcodes":"PUSH1 0x80 DUP1 PUSH1 0x40 MSTORE CALLVALUE PUSH2 0xA3 JUMPI CALLER ISZERO PUSH2 0x8D JUMPI PUSH1 0x0 DUP1 SLOAD CALLER PUSH1 0x1 PUSH1 0x1 PUSH1 0xA0 SHL SUB NOT DUP3 AND DUP2 OR DUP4 SSTORE PUSH1 0x40 MLOAD SWAP3 SWAP1 SWAP2 PUSH1 0x1 PUSH1 0x1 PUSH1 0xA0 SHL SUB AND SWAP1 PUSH32 0x8BE0079C531659141344CD1FD0A4F28419497F9722A3DAAFE3B4186F6B6457E0 SWAP1 DUP1 LOG3 PUSH1 0x1 PUSH32 0x9B779B17422D0DF92223018B32B4D1FA46E071723D6817E2486D003BECC55F00 SSTORE PUSH1 0x1 PUSH1 0x2 SSTORE PUSH2 0x110F SWAP1 DUP2 PUSH2 0xA9 DUP3 CODECOPY RETURN JUMPDEST PUSH4 0x1E4FBDF7 PUSH1 0xE0 SHL DUP2 MSTORE PUSH1 0x0 PUSH1 0x4 DUP3 ADD MSTORE PUSH1 0x24 SWAP1 REVERT JUMPDEST PUSH1 0x0 DUP1 REVERT INVALID PUSH1 0x40 PUSH1 0x80 DUP2 MSTORE PUSH1 0x4 SWAP1 DUP2 CALLDATASIZE LT ISZERO PUSH2 0x15 JUMPI PUSH1 0x0 DUP1 REVERT JUMPDEST PUSH1 0x0 SWAP2 DUP3 CALLDATALOAD PUSH1 0xE0 SHR DUP1 PUSH4 0x22B1338 EQ PUSH2 0xC62 JUMPI DUP1 PUSH4 0x11E68316 EQ PUSH2 0xA5C JUMPI DUP1 PUSH4 0x34B25EE2 EQ PUSH2 0xA10 JUMPI DUP1 PUSH4 0x39EEFA74 EQ PUSH2 0x831 JUMPI DUP1 PUSH4 0x3F4BA83A EQ PUSH2 0x7C4 JUMPI DUP1 PUSH4 0x400F4696 EQ PUSH2 0x7A5 JUMPI DUP1 PUSH4 0x5BA462F1 EQ PUSH2 0x6A2 JUMPI DUP1 PUSH4 0x5C975ABB EQ PUSH2 0x67D JUMPI DUP1 PUSH4 0x715018A6 EQ PUSH2 0x623 JUMPI DUP1 PUSH4 0x7D19E596 EQ PUSH2 0x4E7 JUMPI DUP1 PUSH4 0x8456CB59 EQ PUSH2 0x488 JUMPI DUP1 PUSH4 0x8DA5CB5B EQ PUSH2 0x460 JUMPI DUP1 PUSH4 0x99A5D747 EQ PUSH2 0x436 JUMPI DUP1 PUSH4 0xBF333F2C EQ PUSH2 0x41A JUMPI DUP1 PUSH4 0xC9C31AF5 EQ PUSH2 0x304 JUMPI DUP1 PUSH4 0xE1A45218 EQ PUSH2 0x2E3 JUMPI DUP1 PUSH4 0xED653164 EQ PUSH2 0x170 JUMPI PUSH4 0xF2FDE38B EQ PUSH2 0xE7 JUMPI PUSH1 0x0 DUP1 REVERT JUMPDEST CALLVALUE PUSH2 0x16C JUMPI PUSH1 0x20 CALLDATASIZE PUSH1 0x3 NOT ADD SLT PUSH2 0x16C JUMPI PUSH2 0x100 PUSH2 0xD6F JUMP JUMPDEST SWAP1 PUSH2 0x109 PUSH2 0xDA8 JUMP JUMPDEST PUSH1 0x1 PUSH1 0x1 PUSH1 0xA0 SHL SUB SWAP2 DUP3 AND SWAP3 DUP4 ISZERO PUSH2 0x156 JUMPI POP POP DUP3 SLOAD PUSH1 0x1 PUSH1 0x1 PUSH1 0xA0 SHL SUB NOT DUP2 AND DUP4 OR DUP5 SSTORE AND PUSH32 0x8BE0079C531659141344CD1FD0A4F28419497F9722A3DAAFE3B4186F6B6457E0 DUP4 DUP1 LOG3 DUP1 RETURN JUMPDEST MLOAD PUSH4 0x1E4FBDF7 PUSH1 0xE0 SHL DUP2 MSTORE SWAP1 DUP2 ADD DUP5 SWAP1 MSTORE PUSH1 0x24 SWAP1 REVERT JUMPDEST DUP3 DUP1 REVERT JUMPDEST POP SWAP1 CALLVALUE PUSH2 0x16C JUMPI PUSH1 0x20 CALLDATASIZE PUSH1 0x3 NOT ADD SLT PUSH2 0x16C JUMPI DUP2 CALLDATALOAD SWAP1 PUSH2 0x18E PUSH2 0xE4F JUMP JUMPDEST PUSH2 0x196 PUSH2 0xE2E JUMP JUMPDEST PUSH2 0x19F DUP3 PUSH2 0xFAD JUMP JUMPDEST DUP1 SLOAD PUSH1 0x1 PUSH1 0x1 PUSH1 0xA0 SHL SUB SWAP2 SWAP1 DUP3 AND CALLER EQ ISZERO DUP1 PUSH2 0x2D6 JUMPI JUMPDEST PUSH2 0x2C7 JUMPI PUSH1 0x7 DUP2 ADD DUP1 SLOAD PUSH1 0xFF DUP2 AND PUSH1 0x5 DUP2 LT ISZERO PUSH2 0x2B4 JUMPI PUSH1 0x1 DUP2 SUB PUSH2 0x28F JUMPI POP PUSH8 0xFFFFFFFFFFFFFFFF PUSH1 0x5 DUP5 ADD SLOAD AND TIMESTAMP GT PUSH2 0x278 JUMPI DUP7 DUP4 ADD DUP1 SLOAD SWAP8 DUP9 ISZERO PUSH2 0x26A JUMPI POP PUSH32 0x7DD78B97459A0754E75D3D53BBD26AFD8A683F317C40B50EEA07D05C49F966B SWAP6 SWAP5 SWAP4 PUSH2 0x249 SWAP4 PUSH1 0x3 PUSH2 0x23D SWAP5 DUP13 PUSH1 0x1 SWAP6 SSTORE PUSH1 0xFF NOT AND OR SWAP1 SSTORE ADD SWAP7 DUP4 DUP9 SLOAD AND PUSH2 0xFEA JUMP JUMPDEST SWAP3 DUP4 SWAP2 SWAP8 SLOAD AND SWAP7 PUSH2 0xDD4 JUMP JUMPDEST SWAP1 DUP3 MLOAD SWAP2 DUP3 MSTORE PUSH1 0x20 DUP3 ADD MSTORE LOG3 PUSH1 0x1 PUSH1 0x0 DUP1 MLOAD PUSH1 0x20 PUSH2 0x10BA DUP4 CODECOPY DUP2 MLOAD SWAP2 MSTORE SSTORE DUP1 RETURN JUMPDEST DUP7 MLOAD PUSH4 0x162908E3 PUSH1 0xE1 SHL DUP2 MSTORE REVERT JUMPDEST DUP5 MLOAD PUSH4 0x6AE6B961 PUSH1 0xE1 SHL DUP2 MSTORE DUP1 DUP9 ADD DUP8 SWAP1 MSTORE PUSH1 0x24 SWAP1 REVERT JUMPDEST DUP6 MLOAD PUSH4 0x77418373 PUSH1 0xE0 SHL DUP2 MSTORE DUP1 DUP10 ADD DUP9 SWAP1 MSTORE PUSH1 0x44 SWAP2 PUSH2 0x2B2 SWAP1 PUSH1 0x24 DUP4 ADD SWAP1 PUSH2 0xD85 JUMP JUMPDEST REVERT JUMPDEST PUSH4 0x4E487B71 PUSH1 0xE0 SHL DUP10 MSTORE PUSH1 0x21 DUP9 MSTORE PUSH1 0x24 DUP10 REVERT JUMPDEST DUP3 MLOAD PUSH3 0x82B429 PUSH1 0xE8 SHL DUP2 MSTORE DUP6 SWAP1 REVERT JUMPDEST POP DUP2 DUP7 SLOAD AND CALLER EQ ISZERO PUSH2 0x1B6 JUMP JUMPDEST POP POP CALLVALUE PUSH2 0x300 JUMPI DUP2 PUSH1 0x3 NOT CALLDATASIZE ADD SLT PUSH2 0x300 JUMPI PUSH1 0x20 SWAP1 MLOAD PUSH2 0x2710 DUP2 MSTORE RETURN JUMPDEST POP DUP1 REVERT JUMPDEST POP SWAP1 PUSH1 0x20 CALLDATASIZE PUSH1 0x3 NOT ADD SLT PUSH2 0x16C JUMPI DUP2 CALLDATALOAD SWAP2 PUSH2 0x31D PUSH2 0xE2E JUMP JUMPDEST PUSH2 0x326 DUP4 PUSH2 0xFAD JUMP JUMPDEST DUP1 SLOAD SWAP1 SWAP2 SWAP1 PUSH1 0x1 PUSH1 0x1 PUSH1 0xA0 SHL SUB AND CALLER SUB PUSH2 0x40D JUMPI PUSH1 0x7 DUP3 ADD SWAP2 DUP3 SLOAD SWAP2 PUSH1 0xFF DUP4 AND PUSH1 0x5 DUP2 LT ISZERO PUSH2 0x3FA JUMPI DUP1 PUSH2 0x3D8 JUMPI POP PUSH8 0xFFFFFFFFFFFFFFFF PUSH1 0x5 DUP4 ADD SLOAD AND TIMESTAMP GT PUSH2 0x3C1 JUMPI CALLVALUE ISZERO PUSH2 0x3B3 JUMPI PUSH32 0x911052E1BE46242B46BF3C2762227FF37C000E5FE38727638096F3A17FBFE170 SWAP5 SWAP3 PUSH1 0x20 SWAP5 SWAP3 PUSH1 0x1 SWAP3 CALLVALUE PUSH1 0x3 DUP4 ADD SSTORE CALLVALUE SWAP2 ADD SSTORE PUSH1 0xFF NOT AND OR SWAP1 SSTORE MLOAD CALLVALUE DUP2 MSTORE LOG2 DUP1 RETURN JUMPDEST DUP5 MLOAD PUSH4 0x162908E3 PUSH1 0xE1 SHL DUP2 MSTORE REVERT JUMPDEST DUP5 MLOAD PUSH4 0x6AE6B961 PUSH1 0xE1 SHL DUP2 MSTORE SWAP1 DUP2 ADD DUP7 SWAP1 MSTORE PUSH1 0x24 SWAP1 REVERT JUMPDEST SWAP1 PUSH2 0x2B2 PUSH1 0x44 SWAP3 DUP9 DUP9 MLOAD SWAP4 PUSH4 0x77418373 PUSH1 0xE0 SHL DUP6 MSTORE DUP5 ADD MSTORE PUSH1 0x24 DUP4 ADD SWAP1 PUSH2 0xD85 JUMP JUMPDEST PUSH4 0x4E487B71 PUSH1 0xE0 SHL DUP9 MSTORE PUSH1 0x21 DUP3 MSTORE PUSH1 0x24 DUP9 REVERT JUMPDEST DUP3 MLOAD PUSH3 0x82B429 PUSH1 0xE8 SHL DUP2 MSTORE REVERT JUMPDEST POP POP CALLVALUE PUSH2 0x300 JUMPI DUP2 PUSH1 0x3 NOT CALLDATASIZE ADD SLT PUSH2 0x300 JUMPI PUSH1 0x20 SWAP1 MLOAD PUSH1 0x1E DUP2 MSTORE RETURN JUMPDEST POP SWAP2 CALLVALUE PUSH2 0x45D JUMPI PUSH1 0x20 CALLDATASIZE PUSH1 0x3 NOT ADD SLT PUSH2 0x45D JUMPI POP PUSH2 0x456 PUSH1 0x20 SWAP3 CALLDATALOAD PUSH2 0xF92 JUMP JUMPDEST SWAP1 MLOAD SWAP1 DUP2 MSTORE RETURN JUMPDEST DUP1 REVERT JUMPDEST POP POP CALLVALUE PUSH2 0x300 JUMPI DUP2 PUSH1 0x3 NOT CALLDATASIZE ADD SLT PUSH2 0x300 JUMPI SWAP1 SLOAD SWAP1 MLOAD PUSH1 0x1 PUSH1 0x1 PUSH1 0xA0 SHL SUB SWAP1 SWAP2 AND DUP2 MSTORE PUSH1 0x20 SWAP1 RETURN JUMPDEST POP POP CALLVALUE PUSH2 0x300 JUMPI DUP2 PUSH1 0x3 NOT CALLDATASIZE ADD SLT PUSH2 0x300 JUMPI PUSH1 0x20 PUSH32 0x62E78CEA01BEE320CD4E420270B5EA74000D11B0C9F74754EBDBFC544B05A258 SWAP2 PUSH2 0x4C6 PUSH2 0xDA8 JUMP JUMPDEST PUSH2 0x4CE PUSH2 0xE2E JUMP JUMPDEST DUP4 SLOAD PUSH1 0xFF PUSH1 0xA0 SHL NOT AND PUSH1 0x1 PUSH1 0xA0 SHL OR DUP5 SSTORE MLOAD CALLER DUP2 MSTORE LOG1 DUP1 RETURN JUMPDEST POP SWAP2 CALLVALUE PUSH2 0x45D JUMPI PUSH1 0x20 CALLDATASIZE PUSH1 0x3 NOT ADD SLT PUSH2 0x45D JUMPI DUP1 PUSH1 0xE0 PUSH2 0x505 PUSH2 0xDF7 JUMP JUMPDEST DUP3 DUP2 MSTORE DUP3 PUSH1 0x20 DUP3 ADD MSTORE DUP3 DUP6 DUP3 ADD MSTORE DUP3 PUSH1 0x60 DUP3 ADD MSTORE DUP3 PUSH1 0x80 DUP3 ADD MSTORE DUP3 PUSH1 0xA0 DUP3 ADD MSTORE DUP3 PUSH1 0xC0 DUP3 ADD MSTORE ADD MSTORE PUSH2 0x537 DUP4 CALLDATALOAD PUSH2 0xFAD JUMP JUMPDEST PUSH2 0x53F PUSH2 0xDF7 JUMP JUMPDEST SWAP3 DUP4 SWAP2 PUSH1 0x1 DUP1 PUSH1 0xA0 SHL SUB SWAP2 DUP3 DUP3 SLOAD AND DUP5 MSTORE DUP3 PUSH1 0x1 DUP4 ADD SLOAD AND SWAP3 PUSH1 0x20 DUP6 ADD SWAP4 DUP5 MSTORE DUP1 PUSH1 0x2 DUP5 ADD SLOAD AND SWAP2 DUP1 DUP7 ADD SWAP3 DUP4 MSTORE PUSH1 0x3 DUP5 ADD SLOAD SWAP2 PUSH1 0x60 DUP8 ADD SWAP3 DUP4 MSTORE DUP10 DUP6 ADD SLOAD SWAP4 PUSH1 0x80 DUP9 ADD SWAP5 DUP6 MSTORE PUSH8 0xFFFFFFFFFFFFFFFF SWAP7 PUSH1 0xFF PUSH1 0x7 DUP10 PUSH1 0x5 DUP11 ADD SLOAD AND SWAP9 PUSH1 0xA0 DUP13 ADD SWAP10 DUP11 MSTORE PUSH1 0xC0 PUSH1 0x6 DUP3 ADD SLOAD SWAP13 ADD SWAP12 DUP13 MSTORE ADD SLOAD AND PUSH1 0xE0 DUP13 ADD SWAP11 PUSH1 0x5 DUP3 LT ISZERO PUSH2 0x610 JUMPI PUSH2 0x100 DUP14 PUSH2 0x60E DUP15 DUP15 DUP15 DUP15 DUP15 DUP15 DUP15 DUP15 DUP15 DUP2 DUP16 DUP16 DUP12 MSTORE DUP2 DUP6 MLOAD SWAP14 MLOAD AND DUP14 MSTORE MLOAD AND PUSH1 0x20 DUP13 ADD MSTORE MLOAD AND SWAP1 DUP10 ADD MSTORE MLOAD PUSH1 0x60 DUP9 ADD MSTORE MLOAD PUSH1 0x80 DUP8 ADD MSTORE MLOAD AND PUSH1 0xA0 DUP6 ADD MSTORE MLOAD PUSH1 0xC0 DUP5 ADD MSTORE MLOAD PUSH1 0xE0 DUP4 ADD SWAP1 PUSH2 0xD85 JUMP JUMPDEST RETURN JUMPDEST PUSH4 0x4E487B71 PUSH1 0xE0 SHL DUP2 MSTORE PUSH1 0x21 DUP15 MSTORE PUSH1 0x24 SWAP1 REVERT JUMPDEST DUP4 CALLVALUE PUSH2 0x45D JUMPI DUP1 PUSH1 0x3 NOT CALLDATASIZE ADD SLT PUSH2 0x45D JUMPI PUSH2 0x63C PUSH2 0xDA8 JUMP JUMPDEST DUP1 SLOAD PUSH1 0x1 PUSH1 0x1 PUSH1 0xA0 SHL SUB NOT DUP2 AND DUP3 SSTORE DUP2 SWAP1 PUSH1 0x1 PUSH1 0x1 PUSH1 0xA0 SHL SUB AND PUSH32 0x8BE0079C531659141344CD1FD0A4F28419497F9722A3DAAFE3B4186F6B6457E0 DUP3 DUP1 LOG3 DUP1 RETURN JUMPDEST POP POP CALLVALUE PUSH2 0x300 JUMPI DUP2 PUSH1 0x3 NOT CALLDATASIZE ADD SLT PUSH2 0x300 JUMPI PUSH1 0xFF PUSH1 0x20 SWAP3 SLOAD PUSH1 0xA0 SHR AND SWAP1 MLOAD SWAP1 ISZERO ISZERO DUP2 MSTORE RETURN JUMPDEST POP SWAP1 CALLVALUE PUSH2 0x16C JUMPI DUP1 PUSH1 0x3 NOT CALLDATASIZE ADD SLT PUSH2 0x16C JUMPI DUP2 CALLDATALOAD SWAP2 PUSH2 0x6BF PUSH2 0xE2E JUMP JUMPDEST PUSH2 0x6C8 DUP4 PUSH2 0xFAD JUMP JUMPDEST DUP1 SLOAD CALLER PUSH1 0x1 PUSH1 0x1 PUSH1 0xA0 SHL SUB SWAP2 DUP3 AND EQ SWAP1 DUP2 ISZERO PUSH2 0x794 JUMPI JUMPDEST DUP2 ISZERO PUSH2 0x787 JUMPI JUMPDEST POP ISZERO PUSH2 0x779 JUMPI PUSH1 0x7 ADD SWAP1 DUP2 SLOAD SWAP1 PUSH1 0xFF DUP3 AND PUSH1 0x5 DUP2 LT ISZERO PUSH2 0x766 JUMPI PUSH1 0x1 DUP2 SUB PUSH2 0x744 JUMPI POP POP PUSH1 0x2 SWAP1 PUSH1 0xFF NOT AND OR SWAP1 SSTORE MLOAD SWAP1 PUSH1 0x24 CALLDATALOAD DUP3 MSTORE PUSH32 0x4C548BCCF96A2E8D1F33A7C2725B1D0C734B1EA738A1FA2E4C65E78C33B81E21 PUSH1 0x20 CALLER SWAP4 LOG3 DUP1 RETURN JUMPDEST SWAP1 PUSH2 0x2B2 PUSH1 0x44 SWAP3 DUP8 DUP8 MLOAD SWAP4 PUSH4 0x77418373 PUSH1 0xE0 SHL DUP6 MSTORE DUP5 ADD MSTORE PUSH1 0x24 DUP4 ADD SWAP1 PUSH2 0xD85 JUMP JUMPDEST PUSH4 0x4E487B71 PUSH1 0xE0 SHL DUP8 MSTORE PUSH1 0x21 DUP3 MSTORE PUSH1 0x24 DUP8 REVERT JUMPDEST POP SWAP1 MLOAD PUSH3 0x82B429 PUSH1 0xE8 SHL DUP2 MSTORE REVERT JUMPDEST SWAP1 POP DUP6 SLOAD AND CALLER EQ CODESIZE PUSH2 0x6E6 JUMP JUMPDEST DUP1 SWAP2 POP PUSH1 0x1 DUP4 ADD SLOAD AND CALLER EQ SWAP1 PUSH2 0x6DF JUMP JUMPDEST POP POP CALLVALUE PUSH2 0x300 JUMPI DUP2 PUSH1 0x3 NOT CALLDATASIZE ADD SLT PUSH2 0x300 JUMPI PUSH1 0x20 SWAP1 PUSH1 0x2 SLOAD SWAP1 MLOAD SWAP1 DUP2 MSTORE RETURN JUMPDEST POP CALLVALUE PUSH2 0x16C JUMPI DUP3 PUSH1 0x3 NOT CALLDATASIZE ADD SLT PUSH2 0x16C JUMPI PUSH2 0x7DD PUSH2 0xDA8 JUMP JUMPDEST DUP3 SLOAD SWAP1 PUSH1 0xFF DUP3 PUSH1 0xA0 SHR AND ISZERO PUSH2 0x823 JUMPI POP PUSH1 0xFF PUSH1 0xA0 SHL NOT AND DUP3 SSTORE MLOAD CALLER DUP2 MSTORE PUSH32 0x5DB9EE0A495BF2E6FF9C91A7834C1BA4FDD244A5E8AA4E537BD38AEAE4B073AA SWAP1 PUSH1 0x20 SWAP1 LOG1 DUP1 RETURN JUMPDEST DUP3 MLOAD PUSH4 0x8DFC202B PUSH1 0xE0 SHL DUP2 MSTORE REVERT JUMPDEST POP SWAP2 SWAP1 CALLVALUE PUSH2 0x300 JUMPI PUSH1 0x80 CALLDATASIZE PUSH1 0x3 NOT ADD SLT PUSH2 0x300 JUMPI PUSH2 0x84D PUSH2 0xD6F JUMP JUMPDEST PUSH2 0x855 PUSH2 0xD54 JUMP JUMPDEST SWAP1 PUSH1 0x44 CALLDATALOAD SWAP4 PUSH8 0xFFFFFFFFFFFFFFFF SWAP5 DUP6 DUP2 AND DUP1 SWAP2 SUB PUSH2 0x300 JUMPI PUSH1 0x64 CALLDATALOAD SWAP2 PUSH2 0x87A PUSH2 0xE2E JUMP JUMPDEST PUSH1 0x1 PUSH1 0x1 PUSH1 0xA0 SHL SUB SWAP4 DUP5 AND SWAP5 DUP6 ISZERO PUSH2 0xA00 JUMPI TIMESTAMP DUP4 GT ISZERO PUSH2 0x9F1 JUMPI DUP4 ISZERO PUSH2 0x9E1 JUMPI PUSH1 0x2 SLOAD SWAP8 PUSH1 0x1 DUP10 ADD DUP1 DUP11 GT PUSH2 0x9CE JUMPI DUP5 DUP5 SWAP4 SWAP3 DUP8 SWAP3 PUSH1 0x2 SSTORE DUP12 DUP12 PUSH2 0x8BC PUSH2 0xDF7 JUMP JUMPDEST SWAP6 CALLER DUP8 MSTORE PUSH1 0x20 DUP8 ADD DUP14 DUP2 MSTORE DUP13 DUP4 DUP10 ADD SWAP3 AND SWAP13 DUP14 DUP4 MSTORE DUP1 PUSH1 0x60 DUP11 ADD SWAP5 DUP12 DUP7 MSTORE PUSH1 0x80 DUP12 ADD SWAP7 DUP13 DUP9 MSTORE PUSH1 0xA0 DUP13 ADD SWAP10 DUP11 MSTORE PUSH1 0xC0 DUP13 ADD SWAP11 DUP12 MSTORE PUSH1 0xE0 DUP13 ADD SWAP14 DUP15 MSTORE DUP13 MSTORE PUSH1 0x1 PUSH1 0x20 MSTORE DUP12 KECCAK256 SWAP10 MLOAD AND SWAP2 PUSH12 0xFFFFFFFFFFFFFFFFFFFFFFFF PUSH1 0xA0 SHL SWAP3 DUP4 DUP12 SLOAD AND OR DUP11 SSTORE DUP2 PUSH1 0x1 DUP12 ADD SWAP2 MLOAD AND DUP4 DUP3 SLOAD AND OR SWAP1 SSTORE PUSH1 0x2 DUP10 ADD SWAP3 MLOAD AND SWAP1 DUP3 SLOAD AND OR SWAP1 SSTORE MLOAD PUSH1 0x3 DUP7 ADD SSTORE MLOAD DUP14 DUP6 ADD SSTORE PUSH1 0x5 DUP5 ADD SWAP2 MLOAD AND PUSH8 0xFFFFFFFFFFFFFFFF NOT DUP3 SLOAD AND OR SWAP1 SSTORE MLOAD PUSH1 0x6 DUP3 ADD SSTORE PUSH1 0x7 ADD SWAP2 MLOAD SWAP1 PUSH1 0x5 DUP3 LT ISZERO PUSH2 0x9BB JUMPI POP PUSH1 0x20 SWAP9 POP PUSH1 0xFF DUP1 NOT DUP4 SLOAD AND SWAP2 AND OR SWAP1 SSTORE DUP5 MLOAD SWAP3 DUP4 MSTORE DUP7 DUP4 ADD MSTORE DUP4 DUP3 ADD MSTORE DUP4 PUSH32 0xFA47E8A9E04E14A5D1C30A7445BA6A2090CAB575B5ED84738131F871CB447B06 PUSH1 0x60 CALLER SWAP4 LOG4 MLOAD SWAP1 DUP2 MSTORE RETURN JUMPDEST PUSH4 0x4E487B71 PUSH1 0xE0 SHL DUP2 MSTORE PUSH1 0x21 DUP11 MSTORE PUSH1 0x24 SWAP1 REVERT JUMPDEST PUSH4 0x4E487B71 PUSH1 0xE0 SHL DUP5 MSTORE PUSH1 0x11 DUP12 MSTORE PUSH1 0x24 DUP5 REVERT JUMPDEST DUP7 MLOAD PUSH4 0x204A5E59 PUSH1 0xE1 SHL DUP2 MSTORE DUP10 SWAP1 REVERT JUMPDEST DUP7 MLOAD PUSH3 0xD36C85 PUSH1 0xE8 SHL DUP2 MSTORE DUP10 SWAP1 REVERT JUMPDEST DUP7 MLOAD PUSH4 0xE6C4247B PUSH1 0xE0 SHL DUP2 MSTORE DUP10 SWAP1 REVERT JUMPDEST POP SWAP1 CALLVALUE PUSH2 0x16C JUMPI CALLDATASIZE PUSH1 0x3 NOT ADD SLT PUSH2 0x300 JUMPI PUSH1 0x24 CALLDATALOAD DUP1 ISZERO ISZERO DUP2 SUB PUSH2 0x16C JUMPI PUSH2 0xA47 SWAP2 PUSH2 0xA39 PUSH2 0xDA8 JUMP JUMPDEST PUSH2 0xA41 PUSH2 0xE4F JUMP JUMPDEST CALLDATALOAD PUSH2 0xE8C JUMP JUMPDEST PUSH1 0x1 PUSH1 0x0 DUP1 MLOAD PUSH1 0x20 PUSH2 0x10BA DUP4 CODECOPY DUP2 MLOAD SWAP2 MSTORE SSTORE DUP1 RETURN JUMPDEST POP DUP3 SWAP1 CALLVALUE PUSH2 0x300 JUMPI PUSH1 0x60 CALLDATASIZE PUSH1 0x3 NOT ADD SLT PUSH2 0x300 JUMPI DUP1 CALLDATALOAD PUSH2 0xA7A PUSH2 0xD54 JUMP JUMPDEST SWAP4 PUSH1 0x44 CALLDATALOAD SWAP5 PUSH2 0xA87 PUSH2 0xE4F JUMP JUMPDEST PUSH2 0xA8F PUSH2 0xE2E JUMP JUMPDEST PUSH2 0xA98 DUP4 PUSH2 0xFAD JUMP JUMPDEST DUP1 SLOAD PUSH1 0x1 PUSH1 0x1 PUSH1 0xA0 SHL SUB SWAP2 SWAP1 DUP3 AND CALLER EQ ISZERO DUP1 PUSH2 0xC55 JUMPI JUMPDEST PUSH2 0xC46 JUMPI PUSH1 0x7 DUP2 ADD SWAP2 DUP3 SLOAD SWAP2 PUSH1 0xFF DUP4 AND PUSH1 0x5 DUP2 LT ISZERO PUSH2 0xC33 JUMPI PUSH1 0x1 DUP2 SUB PUSH2 0xC10 JUMPI POP PUSH8 0xFFFFFFFFFFFFFFFF PUSH1 0x5 DUP3 ADD SLOAD AND TIMESTAMP GT PUSH2 0xBF9 JUMPI DUP2 DUP6 AND SWAP8 DUP9 ISZERO PUSH2 0xBEB JUMPI DUP11 ISZERO PUSH2 0x26A JUMPI DUP1 DUP3 ADD SWAP3 DUP4 SLOAD SWAP3 DUP4 DUP14 GT PUSH2 0xBC9 JUMPI PUSH1 0x2 ADD SWAP2 DUP3 SLOAD SWAP2 DUP3 AND SWAP1 DUP2 ISZERO SWAP2 DUP13 DUP4 ISZERO SWAP2 DUP3 PUSH2 0xBBE JUMPI JUMPDEST POP POP PUSH2 0xBA2 JUMPI POP SWAP4 PUSH2 0xB65 DUP14 PUSH32 0x7DD78B97459A0754E75D3D53BBD26AFD8A683F317C40B50EEA07D05C49F966B SWAP11 SWAP10 SWAP6 PUSH2 0x249 SWAP10 SWAP6 DUP15 PUSH2 0xB75 SWAP11 SWAP7 DUP5 SWAP11 PUSH2 0xB8D JUMPI JUMPDEST POP POP POP PUSH2 0xE7F JUMP JUMPDEST DUP1 SWAP2 SSTORE ISZERO PUSH2 0xB7D JUMPI JUMPDEST POP POP PUSH2 0xFEA JUMP JUMPDEST DUP1 SWAP3 SWAP2 PUSH2 0xDD4 JUMP JUMPDEST PUSH1 0xFF NOT AND PUSH1 0x3 OR SWAP1 SSTORE DUP10 DUP1 PUSH2 0xB6E JUMP JUMPDEST PUSH1 0x1 PUSH1 0x1 PUSH1 0xA0 SHL SUB NOT AND OR SWAP1 SSTORE DUP16 DUP15 DUP2 PUSH2 0xB5D JUMP JUMPDEST PUSH1 0x44 SWAP1 DUP13 DUP13 DUP13 MLOAD SWAP3 PUSH4 0xAC7508B1 PUSH1 0xE0 SHL DUP5 MSTORE DUP4 ADD MSTORE PUSH1 0x24 DUP3 ADD MSTORE REVERT JUMPDEST EQ ISZERO SWAP1 POP DUP13 CODESIZE PUSH2 0xB1B JUMP JUMPDEST PUSH1 0x64 DUP4 DUP6 DUP16 DUP14 DUP14 MLOAD SWAP4 PUSH4 0x14164711 PUSH1 0xE0 SHL DUP6 MSTORE DUP5 ADD MSTORE PUSH1 0x24 DUP4 ADD MSTORE PUSH1 0x44 DUP3 ADD MSTORE REVERT JUMPDEST DUP7 MLOAD PUSH4 0xE6C4247B PUSH1 0xE0 SHL DUP2 MSTORE REVERT JUMPDEST DUP6 MLOAD PUSH4 0x6AE6B961 PUSH1 0xE1 SHL DUP2 MSTORE DUP1 DUP10 ADD DUP9 SWAP1 MSTORE PUSH1 0x24 SWAP1 REVERT JUMPDEST DUP7 MLOAD PUSH4 0x77418373 PUSH1 0xE0 SHL DUP2 MSTORE DUP1 DUP11 ADD DUP10 SWAP1 MSTORE PUSH1 0x44 SWAP2 PUSH2 0x2B2 SWAP1 PUSH1 0x24 DUP4 ADD SWAP1 PUSH2 0xD85 JUMP JUMPDEST PUSH4 0x4E487B71 PUSH1 0xE0 SHL DUP11 MSTORE PUSH1 0x21 DUP10 MSTORE PUSH1 0x24 DUP11 REVERT JUMPDEST DUP4 MLOAD PUSH3 0x82B429 PUSH1 0xE8 SHL DUP2 MSTORE DUP7 SWAP1 REVERT JUMPDEST POP DUP2 DUP8 SLOAD AND CALLER EQ ISZERO PUSH2 0xAAF JUMP JUMPDEST POP SWAP1 CALLVALUE PUSH2 0x16C JUMPI PUSH1 0x20 CALLDATASIZE PUSH1 0x3 NOT ADD SLT PUSH2 0x16C JUMPI DUP2 CALLDATALOAD SWAP2 PUSH2 0xC80 PUSH2 0xE4F JUMP JUMPDEST PUSH2 0xC88 PUSH2 0xE2E JUMP JUMPDEST PUSH2 0xC91 DUP4 PUSH2 0xFAD JUMP JUMPDEST PUSH1 0x7 DUP2 ADD DUP1 SLOAD SWAP3 PUSH1 0xFF DUP5 AND PUSH1 0x5 DUP2 LT ISZERO PUSH2 0x3FA JUMPI PUSH1 0x1 DUP2 EQ ISZERO DUP1 PUSH2 0xD49 JUMPI JUMPDEST PUSH2 0x3D8 JUMPI POP PUSH8 0xFFFFFFFFFFFFFFFF PUSH1 0x5 DUP5 ADD SLOAD AND TIMESTAMP GT ISZERO PUSH2 0xD32 JUMPI DUP1 DUP4 ADD DUP1 SLOAD SWAP1 DUP9 SWAP1 SSTORE PUSH1 0xFF NOT SWAP1 SWAP5 AND OR SWAP1 SSTORE SLOAD PUSH32 0x8E09FED7623AD9F8D5A701DD9F3233197147D0043C564DFB1A6C0023AB568C20 SWAP3 PUSH1 0x20 SWAP3 SWAP2 PUSH2 0xD18 SWAP1 DUP4 SWAP1 PUSH1 0x1 PUSH1 0x1 PUSH1 0xA0 SHL SUB AND PUSH2 0x1024 JUMP JUMPDEST MLOAD SWAP1 DUP2 MSTORE LOG2 PUSH1 0x1 PUSH1 0x0 DUP1 MLOAD PUSH1 0x20 PUSH2 0x10BA DUP4 CODECOPY DUP2 MLOAD SWAP2 MSTORE SSTORE DUP1 RETURN JUMPDEST DUP5 MLOAD PUSH4 0x1576DF4F PUSH1 0xE1 SHL DUP2 MSTORE SWAP1 DUP2 ADD DUP7 SWAP1 MSTORE PUSH1 0x24 SWAP1 REVERT JUMPDEST POP PUSH1 0x2 DUP2 EQ ISZERO PUSH2 0xCB0 JUMP JUMPDEST PUSH1 0x24 CALLDATALOAD SWAP1 PUSH1 0x1 PUSH1 0x1 PUSH1 0xA0 SHL SUB DUP3 AND DUP3 SUB PUSH2 0xD6A JUMPI JUMP JUMPDEST PUSH1 0x0 DUP1 REVERT JUMPDEST PUSH1 0x4 CALLDATALOAD SWAP1 PUSH1 0x1 PUSH1 0x1 PUSH1 0xA0 SHL SUB DUP3 AND DUP3 SUB PUSH2 0xD6A JUMPI JUMP JUMPDEST SWAP1 PUSH1 0x5 DUP3 LT ISZERO PUSH2 0xD92 JUMPI MSTORE JUMP JUMPDEST PUSH4 0x4E487B71 PUSH1 0xE0 SHL PUSH1 0x0 MSTORE PUSH1 0x21 PUSH1 0x4 MSTORE PUSH1 0x24 PUSH1 0x0 REVERT JUMPDEST PUSH1 0x0 SLOAD PUSH1 0x1 PUSH1 0x1 PUSH1 0xA0 SHL SUB AND CALLER SUB PUSH2 0xDBC JUMPI JUMP JUMPDEST PUSH1 0x40 MLOAD PUSH4 0x118CDAA7 PUSH1 0xE0 SHL DUP2 MSTORE CALLER PUSH1 0x4 DUP3 ADD MSTORE PUSH1 0x24 SWAP1 REVERT JUMPDEST SWAP2 SWAP1 DUP3 ADD DUP1 SWAP3 GT PUSH2 0xDE1 JUMPI JUMP JUMPDEST PUSH4 0x4E487B71 PUSH1 0xE0 SHL PUSH1 0x0 MSTORE PUSH1 0x11 PUSH1 0x4 MSTORE PUSH1 0x24 PUSH1 0x0 REVERT JUMPDEST PUSH1 0x40 MLOAD SWAP1 PUSH2 0x100 DUP3 ADD DUP3 DUP2 LT PUSH8 0xFFFFFFFFFFFFFFFF DUP3 GT OR PUSH2 0xE18 JUMPI PUSH1 0x40 MSTORE JUMP JUMPDEST PUSH4 0x4E487B71 PUSH1 0xE0 SHL PUSH1 0x0 MSTORE PUSH1 0x41 PUSH1 0x4 MSTORE PUSH1 0x24 PUSH1 0x0 REVERT JUMPDEST PUSH1 0xFF PUSH1 0x0 SLOAD PUSH1 0xA0 SHR AND PUSH2 0xE3D JUMPI JUMP JUMPDEST PUSH1 0x40 MLOAD PUSH4 0xD93C0665 PUSH1 0xE0 SHL DUP2 MSTORE PUSH1 0x4 SWAP1 REVERT JUMPDEST PUSH1 0x0 DUP1 MLOAD PUSH1 0x20 PUSH2 0x10BA DUP4 CODECOPY DUP2 MLOAD SWAP2 MSTORE PUSH1 0x2 DUP2 SLOAD EQ PUSH2 0xE6D JUMPI PUSH1 0x2 SWAP1 SSTORE JUMP JUMPDEST PUSH1 0x40 MLOAD PUSH4 0x3EE5AEB5 PUSH1 0xE0 SHL DUP2 MSTORE PUSH1 0x4 SWAP1 REVERT JUMPDEST SWAP2 SWAP1 DUP3 SUB SWAP2 DUP3 GT PUSH2 0xDE1 JUMPI JUMP JUMPDEST PUSH2 0xE95 DUP2 PUSH2 0xFAD JUMP JUMPDEST PUSH1 0x7 DUP2 ADD DUP1 SLOAD PUSH1 0xFF DUP2 AND PUSH1 0x5 DUP2 LT ISZERO PUSH2 0xD92 JUMPI PUSH1 0x2 DUP2 SUB PUSH2 0xF6D JUMPI POP PUSH1 0x4 DUP4 ADD SWAP5 PUSH1 0x0 DUP7 SLOAD SWAP7 SSTORE PUSH2 0xF12 JUMPI POP DUP1 SLOAD PUSH1 0xFF NOT AND PUSH1 0x4 OR SWAP1 SSTORE SLOAD SWAP1 SWAP2 PUSH32 0x8E09FED7623AD9F8D5A701DD9F3233197147D0043C564DFB1A6C0023AB568C20 SWAP2 PUSH1 0x20 SWAP2 SWAP1 PUSH2 0xF09 SWAP1 DUP3 SWAP1 PUSH1 0x1 PUSH1 0x1 PUSH1 0xA0 SHL SUB AND PUSH2 0x1024 JUMP JUMPDEST PUSH1 0x40 MLOAD SWAP1 DUP2 MSTORE LOG2 JUMP JUMPDEST PUSH1 0xFF NOT AND PUSH1 0x3 OR SWAP1 SSTORE PUSH1 0x1 ADD DUP1 SLOAD SWAP1 SWAP3 PUSH32 0x7DD78B97459A0754E75D3D53BBD26AFD8A683F317C40B50EEA07D05C49F966B SWAP2 PUSH1 0x40 SWAP2 PUSH1 0x1 PUSH1 0x1 PUSH1 0xA0 SHL SUB SWAP2 PUSH2 0xF5F SWAP2 PUSH2 0x23D SWAP2 DUP5 AND PUSH2 0xFEA JUMP JUMPDEST SWAP1 DUP3 MLOAD SWAP2 DUP3 MSTORE PUSH1 0x20 DUP3 ADD MSTORE LOG3 JUMP JUMPDEST PUSH1 0x40 MLOAD PUSH4 0x77418373 PUSH1 0xE0 SHL DUP2 MSTORE PUSH1 0x4 DUP2 ADD DUP7 SWAP1 MSTORE PUSH1 0x44 SWAP2 PUSH2 0x2B2 SWAP1 PUSH1 0x24 DUP4 ADD SWAP1 PUSH2 0xD85 JUMP JUMPDEST PUSH1 0x1E DUP2 MUL SWAP1 DUP1 DUP3 DIV PUSH1 0x1E EQ SWAP1 ISZERO OR ISZERO PUSH2 0xDE1 JUMPI PUSH2 0x2710 SWAP1 DIV SWAP1 JUMP JUMPDEST PUSH1 0x0 DUP2 DUP2 MSTORE PUSH1 0x1 PUSH1 0x20 MSTORE PUSH1 0x40 SWAP1 KECCAK256 DUP1 SLOAD SWAP1 SWAP3 SWAP2 SWAP1 PUSH1 0x1 PUSH1 0x1 PUSH1 0xA0 SHL SUB AND ISZERO PUSH2 0xFD2 JUMPI POP JUMP JUMPDEST PUSH1 0x24 SWAP1 PUSH1 0x40 MLOAD SWAP1 PUSH4 0x5B34797 PUSH1 0xE1 SHL DUP3 MSTORE PUSH1 0x4 DUP3 ADD MSTORE REVERT JUMPDEST SWAP2 PUSH2 0x100D PUSH2 0x1001 PUSH2 0xFFA DUP5 PUSH2 0xF92 JUMP JUMPDEST DUP1 SWAP5 PUSH2 0xE7F JUMP JUMPDEST DUP1 SWAP5 DUP5 PUSH2 0x100F JUMPI PUSH2 0x1024 JUMP JUMPDEST JUMP JUMPDEST PUSH1 0x0 SLOAD PUSH2 0x1024 SWAP1 DUP7 SWAP1 PUSH1 0x1 PUSH1 0x1 PUSH1 0xA0 SHL SUB AND DUP3 JUMP JUMPDEST PUSH1 0x0 DUP1 DUP1 DUP1 SWAP5 DUP2 SWAP5 GAS CALL SWAP1 RETURNDATASIZE ISZERO PUSH2 0x10B3 JUMPI PUSH8 0xFFFFFFFFFFFFFFFF SWAP1 RETURNDATASIZE DUP3 DUP2 GT PUSH2 0x109F JUMPI PUSH1 0x40 MLOAD SWAP3 PUSH1 0x1F DUP3 ADD PUSH1 0x1F NOT SWAP1 DUP2 AND PUSH1 0x3F ADD AND DUP5 ADD SWAP1 DUP2 GT DUP5 DUP3 LT OR PUSH2 0x108B JUMPI PUSH1 0x40 MSTORE DUP3 MSTORE PUSH1 0x20 RETURNDATASIZE SWAP3 ADD RETURNDATACOPY JUMPDEST ISZERO PUSH2 0x1079 JUMPI JUMP JUMPDEST PUSH1 0x40 MLOAD PUSH4 0x12171D83 PUSH1 0xE3 SHL DUP2 MSTORE PUSH1 0x4 SWAP1 REVERT JUMPDEST PUSH4 0x4E487B71 PUSH1 0xE0 SHL DUP4 MSTORE PUSH1 0x41 PUSH1 0x4 MSTORE PUSH1 0x24 DUP4 REVERT JUMPDEST PUSH4 0x4E487B71 PUSH1 0xE0 SHL DUP3 MSTORE PUSH1 0x41 PUSH1 0x4 MSTORE PUSH1 0x24 DUP3 REVERT JUMPDEST POP PUSH2 0x1072 JUMP INVALID SWAP12 PUSH24 0x9B17422D0DF92223018B32B4D1FA46E071723D6817E2486D STOP EXTCODESIZE 0xEC 0xC5 PUSH0 STOP LOG2 PUSH5 0x6970667358 0x22 SLT KECCAK256 MSIZE 0xD EXP PUSH3 0xC9A337 CALLCODE PUSH28 0x3910276E1B9FDBEDCC7CBE46701BBD52DF94C46B74ABC964736F6C63 NUMBER STOP ADDMOD EQ STOP CALLER "},"methodIdentifiers":{"BPS_DENOMINATOR()":"e1a45218","FEE_BPS()":"bf333f2c","autoRefundOnExpiry(uint256)":"022b1338","calculateFee(uint256)":"99a5d747","createEscrow(address,address,uint64,bytes32)":"39eefa74","directPaymentToSubcontractor(uint256,address,uint256)":"11e68316","fundEscrow(uint256)":"c9c31af5","getEscrow(uint256)":"7d19e596","getNextEscrowId()":"400f4696","initiateDispute(uint256,bytes32)":"5ba462f1","owner()":"8da5cb5b","pause()":"8456cb59","paused()":"5c975abb","releaseEscrow(uint256)":"ed653164","renounceOwnership()":"715018a6","resolveDispute(uint256,bool)":"34b25ee2","transferOwnership(address)":"f2fde38b","unpause()":"3f4ba83a"}}}}}