{"src/mocks/ReentrantRefundAttacker.sol":{"ReentrantRefundAttacker":{"abi":[{"inputs":[{"internalType":"address","name":"escrowAddress","type":"address"}],"stateMutability":"nonpayable","type":"constructor"},{"inputs":[],"name":"attackOnReceive","outputs":[{"internalType":"bool","name":"","type":"bool"}],"stateMutability":"view","type":"function"},{"inputs":[{"internalType":"address","name":"payee","type":"address"},{"internalType":"uint64","name":"expiresAt","type":"uint64"},{"internalType":"bytes32","name":"conditionHash","type":"bytes32"}],"name":"createEscrowAndFund","outputs":[],"stateMutability":"payable","type":"function"},{"inputs":[],"name":"escrow","outputs":[{"internalType":"contract PropAIEscrow","name":"","type":"address"}],"stateMutability":"view","type":"function"},{"inputs":[],"name":"escrowId","outputs":[{"internalType":"uint256","name":"","type":"uint256"}],"stateMutability":"view","type":"function"},{"inputs":[],"name":"reentrancyBlocked","outputs":[{"internalType":"bool","name":"","type":"bool"}],"stateMutability":"view","type":"function"},{"inputs":[{"internalType":"bool","name":"nextValue","type":"bool"}],"name":"setAttackOnReceive","outputs":[],"stateMutability":"nonpayable","type":"function"},{"inputs":[],"name":"triggerRefund","outputs":[],"stateMutability":"nonpayable","type":"function"},{"stateMutability":"payable","type":"receive"}],"evm":{"bytecode":{"linkReferences":{},"object":"60a03461008057601f6104e338819003918201601f19168301916001600160401b038311848410176100855780849260209460405283398101031261008057516001600160a01b0381169081900361008057608052604051610447908161009c8239608051818181609a01528181610159015281816102b501526103840152f35b600080fd5b634e487b7160e01b600052604160045260246000fdfe608060408181526004918236101561002a575b505050361561002057600080fd5b61002861036c565b005b600092833560e01c91826324b03fd21461032157508163263d48781461029e5781632878145b1461027757816333ea6c7c146101195781635753d989146100fc578163b7991a84146100cd575063e2fdcc17146100875780610012565b346100c957816003193601126100c957517f00000000000000000000000000000000000000000000000000000000000000006001600160a01b03168152602090f35b5080fd5b8390346100c95760203660031901126100c957358015158091036100c95760ff80196001541691161760015580f35b5050346100c957816003193601126100c957602091549051908152f35b838360603660031901126100c9576001600160a01b03928035848116929190839003610273576024359267ffffffffffffffff9586851680950361026f577f00000000000000000000000000000000000000000000000000000000000000001693835191630e7bbe9d60e21b8352838301528560248301526044820152604435606482015260208160848188885af190811561026557859161020f575b50849550808555833b1561020b57602485928451958693849263c9c31af560e01b845283015234905af190811561020257506101ef5750f35b6101f890610342565b6101ff5780f35b80fd5b513d84823e3d90fd5b8480fd5b90506020953d871161025d575b601f8701601f19168201908111828210176102485781869760209286528101031261020b5751866101b6565b604183634e487b7160e01b6000525260246000fd5b3d965061021c565b83513d87823e3d90fd5b8580fd5b8380fd5b5050346100c957816003193601126100c95760209060ff60015460081c1690519015158152f35b9190503461031d578260031936011261031d5782547f00000000000000000000000000000000000000000000000000000000000000006001600160a01b031692849190843b1561031d5760249083855196879485936245626760e31b85528401525af19081156102025750610311575080f35b61031a90610342565b80f35b8280fd5b8490346100c957816003193601126100c95760209060ff6001541615158152f35b67ffffffffffffffff811161035657604052565b634e487b7160e01b600052604160045260246000fd5b6001805460ff81161561040d5760ff191681556000547f00000000000000000000000000000000000000000000000000000000000000006001600160a01b031690813b15610408576000916024839260405194859384926245626760e31b845260048401525af190816103f9575b506103ee57805461ff001916610100179055565b805461ff0019169055565b61040290610342565b386103da565b600080fd5b505056fea2646970667358221220494632919522d8ec41ab52592166186be8d6362e2eea47af610baefa0e80703964736f6c63430008140033","opcodes":"PUSH1 0xA0 CALLVALUE PUSH2 0x80 JUMPI PUSH1 0x1F PUSH2 0x4E3 CODESIZE DUP2 SWAP1 SUB SWAP2 DUP3 ADD PUSH1 0x1F NOT AND DUP4 ADD SWAP2 PUSH1 0x1 PUSH1 0x1 PUSH1 0x40 SHL SUB DUP4 GT DUP5 DUP5 LT OR PUSH2 0x85 JUMPI DUP1 DUP5 SWAP3 PUSH1 0x20 SWAP5 PUSH1 0x40 MSTORE DUP4 CODECOPY DUP2 ADD SUB SLT PUSH2 0x80 JUMPI MLOAD PUSH1 0x1 PUSH1 0x1 PUSH1 0xA0 SHL SUB DUP2 AND SWAP1 DUP2 SWAP1 SUB PUSH2 0x80 JUMPI PUSH1 0x80 MSTORE PUSH1 0x40 MLOAD PUSH2 0x447 SWAP1 DUP2 PUSH2 0x9C DUP3 CODECOPY PUSH1 0x80 MLOAD DUP2 DUP2 DUP2 PUSH1 0x9A ADD MSTORE DUP2 DUP2 PUSH2 0x159 ADD MSTORE DUP2 DUP2 PUSH2 0x2B5 ADD MSTORE PUSH2 0x384 ADD MSTORE RETURN JUMPDEST PUSH1 0x0 DUP1 REVERT JUMPDEST PUSH4 0x4E487B71 PUSH1 0xE0 SHL PUSH1 0x0 MSTORE PUSH1 0x41 PUSH1 0x4 MSTORE PUSH1 0x24 PUSH1 0x0 REVERT INVALID PUSH1 0x80 PUSH1 0x40 DUP2 DUP2 MSTORE PUSH1 0x4 SWAP2 DUP3 CALLDATASIZE LT ISZERO PUSH2 0x2A JUMPI JUMPDEST POP POP POP CALLDATASIZE ISZERO PUSH2 0x20 JUMPI PUSH1 0x0 DUP1 REVERT JUMPDEST PUSH2 0x28 PUSH2 0x36C JUMP JUMPDEST STOP JUMPDEST PUSH1 0x0 SWAP3 DUP4 CALLDATALOAD PUSH1 0xE0 SHR SWAP2 DUP3 PUSH4 0x24B03FD2 EQ PUSH2 0x321 JUMPI POP DUP2 PUSH4 0x263D4878 EQ PUSH2 0x29E JUMPI DUP2 PUSH4 0x2878145B EQ PUSH2 0x277 JUMPI DUP2 PUSH4 0x33EA6C7C EQ PUSH2 0x119 JUMPI DUP2 PUSH4 0x5753D989 EQ PUSH2 0xFC JUMPI DUP2 PUSH4 0xB7991A84 EQ PUSH2 0xCD JUMPI POP PUSH4 0xE2FDCC17 EQ PUSH2 0x87 JUMPI DUP1 PUSH2 0x12 JUMP JUMPDEST CALLVALUE PUSH2 0xC9 JUMPI DUP2 PUSH1 0x3 NOT CALLDATASIZE ADD SLT PUSH2 0xC9 JUMPI MLOAD PUSH32 0x0 PUSH1 0x1 PUSH1 0x1 PUSH1 0xA0 SHL SUB AND DUP2 MSTORE PUSH1 0x20 SWAP1 RETURN JUMPDEST POP DUP1 REVERT JUMPDEST DUP4 SWAP1 CALLVALUE PUSH2 0xC9 JUMPI PUSH1 0x20 CALLDATASIZE PUSH1 0x3 NOT ADD SLT PUSH2 0xC9 JUMPI CALLDATALOAD DUP1 ISZERO ISZERO DUP1 SWAP2 SUB PUSH2 0xC9 JUMPI PUSH1 0xFF DUP1 NOT PUSH1 0x1 SLOAD AND SWAP2 AND OR PUSH1 0x1 SSTORE DUP1 RETURN JUMPDEST POP POP CALLVALUE PUSH2 0xC9 JUMPI DUP2 PUSH1 0x3 NOT CALLDATASIZE ADD SLT PUSH2 0xC9 JUMPI PUSH1 0x20 SWAP2 SLOAD SWAP1 MLOAD SWAP1 DUP2 MSTORE RETURN JUMPDEST DUP4 DUP4 PUSH1 0x60 CALLDATASIZE PUSH1 0x3 NOT ADD SLT PUSH2 0xC9 JUMPI PUSH1 0x1 PUSH1 0x1 PUSH1 0xA0 SHL SUB SWAP3 DUP1 CALLDATALOAD DUP5 DUP2 AND SWAP3 SWAP2 SWAP1 DUP4 SWAP1 SUB PUSH2 0x273 JUMPI PUSH1 0x24 CALLDATALOAD SWAP3 PUSH8 0xFFFFFFFFFFFFFFFF SWAP6 DUP7 DUP6 AND DUP1 SWAP6 SUB PUSH2 0x26F JUMPI PUSH32 0x0 AND SWAP4 DUP4 MLOAD SWAP2 PUSH4 0xE7BBE9D PUSH1 0xE2 SHL DUP4 MSTORE DUP4 DUP4 ADD MSTORE DUP6 PUSH1 0x24 DUP4 ADD MSTORE PUSH1 0x44 DUP3 ADD MSTORE PUSH1 0x44 CALLDATALOAD PUSH1 0x64 DUP3 ADD MSTORE PUSH1 0x20 DUP2 PUSH1 0x84 DUP2 DUP9 DUP9 GAS CALL SWAP1 DUP2 ISZERO PUSH2 0x265 JUMPI DUP6 SWAP2 PUSH2 0x20F JUMPI JUMPDEST POP DUP5 SWAP6 POP DUP1 DUP6 SSTORE DUP4 EXTCODESIZE ISZERO PUSH2 0x20B JUMPI PUSH1 0x24 DUP6 SWAP3 DUP5 MLOAD SWAP6 DUP7 SWAP4 DUP5 SWAP3 PUSH4 0xC9C31AF5 PUSH1 0xE0 SHL DUP5 MSTORE DUP4 ADD MSTORE CALLVALUE SWAP1 GAS CALL SWAP1 DUP2 ISZERO PUSH2 0x202 JUMPI POP PUSH2 0x1EF JUMPI POP RETURN JUMPDEST PUSH2 0x1F8 SWAP1 PUSH2 0x342 JUMP JUMPDEST PUSH2 0x1FF JUMPI DUP1 RETURN JUMPDEST DUP1 REVERT JUMPDEST MLOAD RETURNDATASIZE DUP5 DUP3 RETURNDATACOPY RETURNDATASIZE SWAP1 REVERT JUMPDEST DUP5 DUP1 REVERT JUMPDEST SWAP1 POP PUSH1 0x20 SWAP6 RETURNDATASIZE DUP8 GT PUSH2 0x25D JUMPI JUMPDEST PUSH1 0x1F DUP8 ADD PUSH1 0x1F NOT AND DUP3 ADD SWAP1 DUP2 GT DUP3 DUP3 LT OR PUSH2 0x248 JUMPI DUP2 DUP7 SWAP8 PUSH1 0x20 SWAP3 DUP7 MSTORE DUP2 ADD SUB SLT PUSH2 0x20B JUMPI MLOAD DUP7 PUSH2 0x1B6 JUMP JUMPDEST PUSH1 0x41 DUP4 PUSH4 0x4E487B71 PUSH1 0xE0 SHL PUSH1 0x0 MSTORE MSTORE PUSH1 0x24 PUSH1 0x0 REVERT JUMPDEST RETURNDATASIZE SWAP7 POP PUSH2 0x21C JUMP JUMPDEST DUP4 MLOAD RETURNDATASIZE DUP8 DUP3 RETURNDATACOPY RETURNDATASIZE SWAP1 REVERT JUMPDEST DUP6 DUP1 REVERT JUMPDEST DUP4 DUP1 REVERT JUMPDEST POP POP CALLVALUE PUSH2 0xC9 JUMPI DUP2 PUSH1 0x3 NOT CALLDATASIZE ADD SLT PUSH2 0xC9 JUMPI PUSH1 0x20 SWAP1 PUSH1 0xFF PUSH1 0x1 SLOAD PUSH1 0x8 SHR AND SWAP1 MLOAD SWAP1 ISZERO ISZERO DUP2 MSTORE RETURN JUMPDEST SWAP2 SWAP1 POP CALLVALUE PUSH2 0x31D JUMPI DUP3 PUSH1 0x3 NOT CALLDATASIZE ADD SLT PUSH2 0x31D JUMPI DUP3 SLOAD PUSH32 0x0 PUSH1 0x1 PUSH1 0x1 PUSH1 0xA0 SHL SUB AND SWAP3 DUP5 SWAP2 SWAP1 DUP5 EXTCODESIZE ISZERO PUSH2 0x31D JUMPI PUSH1 0x24 SWAP1 DUP4 DUP6 MLOAD SWAP7 DUP8 SWAP5 DUP6 SWAP4 PUSH3 0x456267 PUSH1 0xE3 SHL DUP6 MSTORE DUP5 ADD MSTORE GAS CALL SWAP1 DUP2 ISZERO PUSH2 0x202 JUMPI POP PUSH2 0x311 JUMPI POP DUP1 RETURN JUMPDEST PUSH2 0x31A SWAP1 PUSH2 0x342 JUMP JUMPDEST DUP1 RETURN JUMPDEST DUP3 DUP1 REVERT JUMPDEST DUP5 SWAP1 CALLVALUE PUSH2 0xC9 JUMPI DUP2 PUSH1 0x3 NOT CALLDATASIZE ADD SLT PUSH2 0xC9 JUMPI PUSH1 0x20 SWAP1 PUSH1 0xFF PUSH1 0x1 SLOAD AND ISZERO ISZERO DUP2 MSTORE RETURN JUMPDEST PUSH8 0xFFFFFFFFFFFFFFFF DUP2 GT PUSH2 0x356 JUMPI PUSH1 0x40 MSTORE JUMP JUMPDEST PUSH4 0x4E487B71 PUSH1 0xE0 SHL PUSH1 0x0 MSTORE PUSH1 0x41 PUSH1 0x4 MSTORE PUSH1 0x24 PUSH1 0x0 REVERT JUMPDEST PUSH1 0x1 DUP1 SLOAD PUSH1 0xFF DUP2 AND ISZERO PUSH2 0x40D JUMPI PUSH1 0xFF NOT AND DUP2 SSTORE PUSH1 0x0 SLOAD PUSH32 0x0 PUSH1 0x1 PUSH1 0x1 PUSH1 0xA0 SHL SUB AND SWAP1 DUP2 EXTCODESIZE ISZERO PUSH2 0x408 JUMPI PUSH1 0x0 SWAP2 PUSH1 0x24 DUP4 SWAP3 PUSH1 0x40 MLOAD SWAP5 DUP6 SWAP4 DUP5 SWAP3 PUSH3 0x456267 PUSH1 0xE3 SHL DUP5 MSTORE PUSH1 0x4 DUP5 ADD MSTORE GAS CALL SWAP1 DUP2 PUSH2 0x3F9 JUMPI JUMPDEST POP PUSH2 0x3EE JUMPI DUP1 SLOAD PUSH2 0xFF00 NOT AND PUSH2 0x100 OR SWAP1 SSTORE JUMP JUMPDEST DUP1 SLOAD PUSH2 0xFF00 NOT AND SWAP1 SSTORE JUMP JUMPDEST PUSH2 0x402 SWAP1 PUSH2 0x342 JUMP JUMPDEST CODESIZE PUSH2 0x3DA JUMP JUMPDEST PUSH1 0x0 DUP1 REVERT JUMPDEST POP POP JUMP INVALID LOG2 PUSH5 0x6970667358 0x22 SLT KECCAK256 0x49 CHAINID ORIGIN SWAP2 SWAP6 0x22 0xD8 0xEC COINBASE 0xAB MSTORE MSIZE 0x21 PUSH7 0x186BE8D6362E2E 0xEA SELFBALANCE 0xAF PUSH2 0xBAE STATICCALL 0xE DUP1 PUSH17 0x3964736F6C634300081400330000000000 "},"methodIdentifiers":{"attackOnReceive()":"24b03fd2","createEscrowAndFund(address,uint64,bytes32)":"33ea6c7c","escrow()":"e2fdcc17","escrowId()":"5753d989","reentrancyBlocked()":"2878145b","setAttackOnReceive(bool)":"b7991a84","triggerRefund()":"263d4878"}}}}}