{"src/PropAIToken.sol":{"PropAIToken":{"abi":[{"inputs":[{"internalType":"string","name":"_name","type":"string"},{"internalType":"string","name":"_symbol","type":"string"},{"internalType":"uint64","name":"_lockupEndTime","type":"uint64"}],"stateMutability":"nonpayable","type":"constructor"},{"inputs":[],"name":"EnforcedPause","type":"error"},{"inputs":[],"name":"ExpectedPause","type":"error"},{"inputs":[{"internalType":"address","name":"owner","type":"address"},{"internalType":"address","name":"spender","type":"address"},{"internalType":"uint256","name":"requested","type":"uint256"},{"internalType":"uint256","name":"available","type":"uint256"}],"name":"InsufficientAllowance","type":"error"},{"inputs":[{"internalType":"address","name":"account","type":"address"},{"internalType":"uint256","name":"requested","type":"uint256"},{"internalType":"uint256","name":"available","type":"uint256"}],"name":"InsufficientBalance","type":"error"},{"inputs":[],"name":"InvalidAddress","type":"error"},{"inputs":[],"name":"InvalidAmount","type":"error"},{"inputs":[],"name":"LockupActive","type":"error"},{"inputs":[],"name":"NoDividend","type":"error"},{"inputs":[{"internalType":"address","name":"account","type":"address"}],"name":"NotWhitelisted","type":"error"},{"inputs":[{"internalType":"address","name":"owner","type":"address"}],"name":"OwnableInvalidOwner","type":"error"},{"inputs":[{"internalType":"address","name":"account","type":"address"}],"name":"OwnableUnauthorizedAccount","type":"error"},{"inputs":[],"name":"ReentrancyGuardReentrantCall","type":"error"},{"inputs":[],"name":"TransferFailed","type":"error"},{"anonymous":false,"inputs":[{"indexed":true,"internalType":"address","name":"owner","type":"address"},{"indexed":true,"internalType":"address","name":"spender","type":"address"},{"indexed":false,"internalType":"uint256","name":"amount","type":"uint256"}],"name":"Approval","type":"event"},{"anonymous":false,"inputs":[{"indexed":true,"internalType":"address","name":"account","type":"address"},{"indexed":false,"internalType":"uint256","name":"amount","type":"uint256"}],"name":"DividendClaimed","type":"event"},{"anonymous":false,"inputs":[{"indexed":false,"internalType":"uint256","name":"totalAmount","type":"uint256"},{"indexed":false,"internalType":"uint256","name":"perToken","type":"uint256"}],"name":"DividendDistributed","type":"event"},{"anonymous":false,"inputs":[{"indexed":false,"internalType":"uint64","name":"endTime","type":"uint64"}],"name":"LockupSet","type":"event"},{"anonymous":false,"inputs":[{"indexed":true,"internalType":"address","name":"previousOwner","type":"address"},{"indexed":true,"internalType":"address","name":"newOwner","type":"address"}],"name":"OwnershipTransferred","type":"event"},{"anonymous":false,"inputs":[{"indexed":false,"internalType":"address","name":"account","type":"address"}],"name":"Paused","type":"event"},{"anonymous":false,"inputs":[{"indexed":true,"internalType":"address","name":"from","type":"address"},{"indexed":false,"internalType":"uint256","name":"amount","type":"uint256"}],"name":"TokensBurned","type":"event"},{"anonymous":false,"inputs":[{"indexed":true,"internalType":"address","name":"to","type":"address"},{"indexed":false,"internalType":"uint256","name":"amount","type":"uint256"}],"name":"TokensMinted","type":"event"},{"anonymous":false,"inputs":[{"indexed":true,"internalType":"address","name":"from","type":"address"},{"indexed":true,"internalType":"address","name":"to","type":"address"},{"indexed":false,"internalType":"uint256","name":"amount","type":"uint256"}],"name":"Transfer","type":"event"},{"anonymous":false,"inputs":[{"indexed":false,"internalType":"address","name":"account","type":"address"}],"name":"Unpaused","type":"event"},{"anonymous":false,"inputs":[{"indexed":true,"internalType":"address","name":"account","type":"address"},{"indexed":false,"internalType":"bool","name":"status","type":"bool"}],"name":"WhitelistUpdated","type":"event"},{"inputs":[{"internalType":"address","name":"","type":"address"},{"internalType":"address","name":"","type":"address"}],"name":"allowance","outputs":[{"internalType":"uint256","name":"","type":"uint256"}],"stateMutability":"view","type":"function"},{"inputs":[{"internalType":"address","name":"_spender","type":"address"},{"internalType":"uint256","name":"_amount","type":"uint256"}],"name":"approve","outputs":[{"internalType":"bool","name":"","type":"bool"}],"stateMutability":"nonpayable","type":"function"},{"inputs":[{"internalType":"address","name":"","type":"address"}],"name":"balanceOf","outputs":[{"internalType":"uint256","name":"","type":"uint256"}],"stateMutability":"view","type":"function"},{"inputs":[{"internalType":"address[]","name":"_accounts","type":"address[]"},{"internalType":"bool","name":"_status","type":"bool"}],"name":"batchSetWhitelist","outputs":[],"stateMutability":"nonpayable","type":"function"},{"inputs":[{"internalType":"uint256","name":"_amount","type":"uint256"}],"name":"burn","outputs":[],"stateMutability":"nonpayable","type":"function"},{"inputs":[],"name":"claimDividend","outputs":[],"stateMutability":"nonpayable","type":"function"},{"inputs":[],"name":"decimals","outputs":[{"internalType":"uint8","name":"","type":"uint8"}],"stateMutability":"view","type":"function"},{"inputs":[],"name":"distributeDividend","outputs":[],"stateMutability":"payable","type":"function"},{"inputs":[{"internalType":"address","name":"","type":"address"}],"name":"dividendCredit","outputs":[{"internalType":"uint256","name":"","type":"uint256"}],"stateMutability":"view","type":"function"},{"inputs":[{"internalType":"address","name":"","type":"address"}],"name":"dividendDebit","outputs":[{"internalType":"uint256","name":"","type":"uint256"}],"stateMutability":"view","type":"function"},{"inputs":[],"name":"dividendPerToken","outputs":[{"internalType":"uint256","name":"","type":"uint256"}],"stateMutability":"view","type":"function"},{"inputs":[],"name":"lockupEndTime","outputs":[{"internalType":"uint64","name":"","type":"uint64"}],"stateMutability":"view","type":"function"},{"inputs":[{"internalType":"address","name":"_to","type":"address"},{"internalType":"uint256","name":"_amount","type":"uint256"}],"name":"mint","outputs":[],"stateMutability":"nonpayable","type":"function"},{"inputs":[],"name":"name","outputs":[{"internalType":"string","name":"","type":"string"}],"stateMutability":"view","type":"function"},{"inputs":[],"name":"owner","outputs":[{"internalType":"address","name":"","type":"address"}],"stateMutability":"view","type":"function"},{"inputs":[],"name":"pause","outputs":[],"stateMutability":"nonpayable","type":"function"},{"inputs":[],"name":"paused","outputs":[{"internalType":"bool","name":"","type":"bool"}],"stateMutability":"view","type":"function"},{"inputs":[{"internalType":"address","name":"_account","type":"address"}],"name":"pendingDividend","outputs":[{"internalType":"uint256","name":"","type":"uint256"}],"stateMutability":"view","type":"function"},{"inputs":[],"name":"renounceOwnership","outputs":[],"stateMutability":"nonpayable","type":"function"},{"inputs":[{"internalType":"uint64","name":"_endTime","type":"uint64"}],"name":"setLockupEndTime","outputs":[],"stateMutability":"nonpayable","type":"function"},{"inputs":[{"internalType":"address","name":"_account","type":"address"},{"internalType":"bool","name":"_status","type":"bool"}],"name":"setWhitelist","outputs":[],"stateMutability":"nonpayable","type":"function"},{"inputs":[],"name":"symbol","outputs":[{"internalType":"string","name":"","type":"string"}],"stateMutability":"view","type":"function"},{"inputs":[],"name":"totalDividendsDistributed","outputs":[{"internalType":"uint256","name":"","type":"uint256"}],"stateMutability":"view","type":"function"},{"inputs":[],"name":"totalSupply","outputs":[{"internalType":"uint256","name":"","type":"uint256"}],"stateMutability":"view","type":"function"},{"inputs":[{"internalType":"address","name":"_to","type":"address"},{"internalType":"uint256","name":"_amount","type":"uint256"}],"name":"transfer","outputs":[{"internalType":"bool","name":"","type":"bool"}],"stateMutability":"nonpayable","type":"function"},{"inputs":[{"internalType":"address","name":"_from","type":"address"},{"internalType":"address","name":"_to","type":"address"},{"internalType":"uint256","name":"_amount","type":"uint256"}],"name":"transferFrom","outputs":[{"internalType":"bool","name":"","type":"bool"}],"stateMutability":"nonpayable","type":"function"},{"inputs":[{"internalType":"address","name":"newOwner","type":"address"}],"name":"transferOwnership","outputs":[],"stateMutability":"nonpayable","type":"function"},{"inputs":[],"name":"unpause","outputs":[],"stateMutability":"nonpayable","type":"function"},{"inputs":[{"internalType":"address","name":"","type":"address"}],"name":"whitelisted","outputs":[{"internalType":"bool","name":"","type":"bool"}],"stateMutability":"view","type":"function"}],"evm":{"bytecode":{"linkReferences":{},"object":"608060405234620003ca576200183c803803806200001d81620003cf565b9283398101606082820312620003ca5781516001600160401b0390818111620003ca57826200004e9185016200040b565b9260209283820151838111620003ca576040916200006e9184016200040b565b91015193828516809503620003ca573315620003b15760008054336001600160a01b0319821681178355919391906001600160a01b03167f8be0079c531659141344cd1fd0a4f28419497f9722a3daafe3b4186f6b6457e08580a3600192837f9b779b17422d0df92223018b32b4d1fa46e071723d6817e2486d003becc55f005582518581116200039d578454938585811c9516801562000392575b888610146200037e578190601f958681116200032b575b508890868311600114620002c7578492620002bb575b5050600019600383901b1c191690851b1784555b8151948511620002a7576002548481811c911680156200029c575b8782101462000288578381116200023f575b5085928511600114620001d6579394508492919083620001ca575b50501b916000199060031b1c1916176002555b600480546001600160401b0319169190911790556040516113be90816200047e8239f35b01519250388062000193565b6002815285812093958591601f198316915b888383106200022457505050106200020a575b505050811b01600255620001a6565b015160001960f88460031b161c19169055388080620001fb565b858701518855909601959485019487935090810190620001e8565b600282528682208480880160051c8201928989106200027e575b0160051c019085905b8281106200027257505062000178565b83815501859062000262565b9250819262000259565b634e487b7160e01b82526022600452602482fd5b90607f169062000166565b634e487b7160e01b81526041600452602490fd5b01519050388062000137565b8785528985208894509190601f198416865b8c828210620003145750508411620002fa575b505050811b0184556200014b565b015160001960f88460031b161c19169055388080620002ec565b8385015186558b97909501949384019301620002d9565b9091508684528884208680850160051c8201928b861062000374575b918991869594930160051c01915b8281106200036557505062000121565b86815585945089910162000355565b9250819262000347565b634e487b7160e01b83526022600452602483fd5b94607f16946200010a565b634e487b7160e01b82526041600452602482fd5b604051631e4fbdf760e01b815260006004820152602490fd5b600080fd5b6040519190601f01601f191682016001600160401b03811183821017620003f557604052565b634e487b7160e01b600052604160045260246000fd5b919080601f84011215620003ca5782516001600160401b038111620003f55760209062000441601f8201601f19168301620003cf565b92818452828287010111620003ca5760005b8181106200046957508260009394955001015290565b85810183015184820184015282016200045356fe60806040908082526004918236101561001757600080fd5b600091823560e01c90816306fdde0314610f3557508063095ea7b314610ec55780630a26c14514610e5457806318160ddd14610e3657806323b872dd14610d13578063266d7bda14610ceb578063313ce56714610cd05780633f4ba83a14610c62578063406bc10814610c2b57806340c10f1914610b1f57806342966c6814610a2357806353d6fd59146109895780635c975abb1461096557806370a082311461092e578063715018a6146108d157806377ec0feb146108b35780638456cb591461085557806385a6b3ae146108375780638da5cb5b1461081057806395d89b411461070d578063a095e8f9146105d3578063a9059cbb1461051a578063c5f96572146104e3578063d936547e146104a6578063dd62ed3e1461045e578063deedd49c146103e8578063f0fc6bca146102da578063f2fde38b1461024f5763f6ef8f0a1461016457600080fd5b8160031936011261024b576101776110d2565b61017f61129e565b341561023c57600354801561022c57670de0b6b3a76400008034029034820403610219577f2f588cf4bb0247b0f3f60e06187f92e6fd1deaabb56e2bcc567235233787132792916101d39104600b54611138565b80600b556101e334600554611138565b6005558151903482526020820152a160017f9b779b17422d0df92223018b32b4d1fa46e071723d6817e2486d003becc55f005580f35b634e487b7160e01b845260118552602484fd5b815163162908e360e11b81528490fd5b5163162908e360e11b81529050fd5b5080fd5b5082346102d65760203660031901126102d65761026a611092565b906102736110d2565b6001600160a01b039182169283156102c057505082546001600160a01b0319811683178455167f8be0079c531659141344cd1fd0a4f28419497f9722a3daafe3b4186f6b6457e08380a380f35b51631e4fbdf760e01b8152908101849052602490fd5b8280fd5b508290346102d657826003193601126102d6576102f561129e565b6102fe336112e0565b3383526009602052808320549182156103da57338452600960205283828120558380808086335af13d156103d5573d67ffffffffffffffff81116103c257835190610353601f8201601f191660200183611011565b81528560203d92013e5b156103b45750519081527f5efa67896a23b651b741b525caacba039c00ca7853be3de8eb1f4269e8669c5660203392a260017f9b779b17422d0df92223018b32b4d1fa46e071723d6817e2486d003becc55f005580f35b90516312171d8360e31b8152fd5b634e487b7160e01b865260418352602486fd5b61035d565b9051635589b7d360e01b8152fd5b503461024b57602036600319011261024b5760209161045790826001600160a01b03610412611092565b169182815260068652610448670de0b6b3a764000061043784842054600b549061128b565b048483526009885283832054611138565b928152600a865220549061117c565b9051908152f35b503461024b578060031936011261024b578060209261047b611092565b6104836110ad565b6001600160a01b0391821683526007865283832091168252845220549051908152f35b503461024b57602036600319011261024b5760209160ff9082906001600160a01b036104d0611092565b1681526008855220541690519015158152f35b503461024b57602036600319011261024b5760209181906001600160a01b0361050a611092565b168152600a845220549051908152f35b5082346102d657816003193601126102d657610534611092565b9267ffffffffffffffff82541642106105c557338152600860205260ff8382205416156105ae576001600160a01b0384168082526008602052908390205460ff161561059a576020836105938661058961115b565b6024359033611189565b5160018152f35b6024925191636f8bf18b60e11b8352820152fd5b506024915190636f8bf18b60e11b82523390820152fd5b50905162ccaec560e61b8152fd5b508290346102d657806003193601126102d65781359167ffffffffffffffff918284116107095736602385011215610709578382013592831161070957602493848101908536918660051b010111610705579261062e6110c3565b6106366110d2565b80151591875b818110610647578880f35b6001600160a01b038061066361065e84868c6110fe565b611124565b16156106f5577ff93f9a76c1bf3444d22400a00cb9fe990e6abe9dbb333fda48859cfee864543d818b9261069b61065e86888e6110fe565b1683526106bc868960209560088752209060ff801983541691151516179055565b6106ca61065e85878d6110fe565b16918751878152a260001981146106e35760010161063c565b634e487b7160e01b8952601186528789fd5b855163e6c4247b60e01b81528790fd5b8580fd5b8480fd5b508290346102d657826003193601126102d657805191836002549060019082821c928281168015610806575b60209586861082146107f357508488529081156107d15750600114610778575b610774868661076a828b0383611011565b5191829182611049565b0390f35b929550600283527f405787fa12a823e0f2b7631cc41b3ba8828b3321ca811111fa75cd3aa3bb5ace5b8284106107be57505050826107749461076a928201019486610759565b80548685018801529286019281016107a1565b60ff191687860152505050151560051b830101925061076a8261077486610759565b634e487b7160e01b845260229052602483fd5b93607f1693610739565b503461024b578160031936011261024b57905490516001600160a01b039091168152602090f35b503461024b578160031936011261024b576020906005549051908152f35b503461024b578160031936011261024b5760207f62e78cea01bee320cd4e420270b5ea74000d11b0c9f74754ebdbfc544b05a258916108926110d2565b61089a61115b565b835460ff60a01b1916600160a01b17845551338152a180f35b503461024b578160031936011261024b57602090600b549051908152f35b823461092b578060031936011261092b576108ea6110d2565b80546001600160a01b03198116825581906001600160a01b03167f8be0079c531659141344cd1fd0a4f28419497f9722a3daafe3b4186f6b6457e08280a380f35b80fd5b503461024b57602036600319011261024b5760209181906001600160a01b03610955611092565b1681526006845220549051908152f35b503461024b578160031936011261024b5760ff6020925460a01c1690519015158152f35b508290346102d657806003193601126102d6576109a4611092565b906109ad6110c3565b916109b66110d2565b6001600160a01b0316928315610a1557507ff93f9a76c1bf3444d22400a00cb9fe990e6abe9dbb333fda48859cfee864543d9160209184865260088352610a0b828288209060ff801983541691151516179055565b519015158152a280f35b905163e6c4247b60e01b8152fd5b503461024b57602036600319011261024b578235928315610b1157338352600660205281832054848110610ae65783808685610a5e336112e0565b610a6a8260035461117c565b6003553383526006602052808320610a8383825461117c565b9055610a8e33611347565b80518281527ffd38818f5291bf0bb3a2a48aadc06ba8757865d1dabd804585338aab3009dcb660203392a2519081527fddf252ad1be2c89b69c2b068fc378daa952ba7f163c4a11628f55a4df523b3ef60203392a380f35b915163db42144d60e01b81523391810191825260208201859052604082019290925281906060010390fd5b905163162908e360e11b8152fd5b508290346102d657806003193601126102d657610b3a611092565b9060243591610b476110d2565b6001600160a01b03811680865260086020528286205490949060ff1615610c1457610b7061115b565b8315610c06575084927fddf252ad1be2c89b69c2b068fc378daa952ba7f163c4a11628f55a4df523b3ef92610bd583610baa6020956112e0565b610bb684600354611138565b60035587875260068552828720610bce858254611138565b9055611347565b857f3f2c9d57c068687834f0de942a9babb9e5acab57d516d3480a3c16ee165a4273848351858152a251908152a380f35b825163162908e360e11b8152fd5b8251636f8bf18b60e11b8152908101859052602490fd5b503461024b57602036600319011261024b5760209181906001600160a01b03610c52611092565b1681526009845220549051908152f35b5082346102d657826003193601126102d657610c7c6110d2565b82549060ff8260a01c1615610cc2575060ff60a01b19168255513381527f5db9ee0a495bf2e6ff9c91a7834c1ba4fdd244a5e8aa4e537bd38aeae4b073aa90602090a180f35b8251638dfc202b60e01b8152fd5b503461024b578160031936011261024b576020905160128152f35b50903461092b578060031936011261092b575067ffffffffffffffff60209254169051908152f35b503461024b57606036600319011261024b57610d2d611092565b610d356110ad565b6044359167ffffffffffffffff8654164210610e27576001600160a01b038181168087526008602090815286882054909791929060ff1615610e105784168082526008885260ff878320541615610dfa5750610d8f61115b565b8181526007875285812033825287528581205497858910610dd257509461059395610dbc8683999a61117c565b9281526007895281812033825289522055611189565b6084908987858a519363246fb68960e21b855284015233602484015260448301526064820152fd5b88602491885191636f8bf18b60e11b8352820152fd5b8651636f8bf18b60e11b8152808a01849052602490fd5b835162ccaec560e61b81528690fd5b503461024b578160031936011261024b576020906003549051908152f35b5082346102d65760203660031901126102d657803567ffffffffffffffff8116809103610ec1577f88a70b8474359935b2f4983b30ce3659775dd27232c7e6c23a82052f10da0d5f92602092610ea86110d2565b805467ffffffffffffffff19168317905551908152a180f35b8380fd5b503461024b578060031936011261024b5760209181610ee2611092565b91602435918291338152600787528181209460018060a01b0316948582528752205582519081527f8c5be1e5ebec7d5bd14f71427d1e84f3dd0314c0f7b2291e5b200ac8c7c3b925843392a35160018152f35b9293905034610ec15783600319360112610ec15783600180549182821c928281168015611007575b60209586861082146107f35750848852908115610fe55750600114610f8d57610774868661076a828b0383611011565b9295508083527fb10e2d527612073b26eecdfd717e6a320cf44b4afac2b0732d9fcbe2b7fa0cf65b828410610fd257505050826107749461076a928201019438610759565b8054868501880152928601928101610fb5565b60ff191687860152505050151560051b830101925061076a8261077438610759565b93607f1693610f5d565b90601f8019910116810190811067ffffffffffffffff82111761103357604052565b634e487b7160e01b600052604160045260246000fd5b6020808252825181830181905290939260005b82811061107e57505060409293506000838284010152601f8019910116010190565b81810186015184820160400152850161105c565b600435906001600160a01b03821682036110a857565b600080fd5b602435906001600160a01b03821682036110a857565b6024359081151582036110a857565b6000546001600160a01b031633036110e657565b60405163118cdaa760e01b8152336004820152602490fd5b919081101561110e5760051b0190565b634e487b7160e01b600052603260045260246000fd5b356001600160a01b03811681036110a85790565b9190820180921161114557565b634e487b7160e01b600052601160045260246000fd5b60ff60005460a01c1661116a57565b60405163d93c066560e01b8152600490fd5b9190820391821161114557565b6001600160a01b0380831693919290841561127957821561126757831692600084815260066020526040812054848110611237575060209261122983604061122e946111f67fddf252ad1be2c89b69c2b068fc378daa952ba7f163c4a11628f55a4df523b3ef99976112e0565b6111ff856112e0565b8981526006885281812061121488825461117c565b90558a81526006885220610bce868254611138565b611347565b604051908152a3565b60405163db42144d60e01b81526001600160a01b0384166004820152602481018690526044810191909152606490fd5b60405163162908e360e11b8152600490fd5b60405163e6c4247b60e01b8152600490fd5b8181029291811591840414171561114557565b7f9b779b17422d0df92223018b32b4d1fa46e071723d6817e2486d003becc55f0060028154146112ce5760029055565b604051633ee5aeb560e01b8152600490fd5b60018060a01b0316604060008281526006602052670de0b6b3a764000061130d83832054600b549061128b565b0492808252600a602052611324838320548561117c565b818352600960205261133a848420918254611138565b90558152600a6020522055565b6001600160a01b0316600081815260066020526040902054600b54670de0b6b3a764000091611376919061128b565b0490600052600a60205260406000205556fea2646970667358221220c9446ef2fae82e414f3b05c04194e9007f81dd4034b9ec052c4b96956bbaa5ac64736f6c63430008140033","opcodes":"PUSH1 0x80 PUSH1 0x40 MSTORE CALLVALUE PUSH3 0x3CA JUMPI PUSH3 0x183C DUP1 CODESIZE SUB DUP1 PUSH3 0x1D DUP2 PUSH3 0x3CF JUMP JUMPDEST SWAP3 DUP4 CODECOPY DUP2 ADD PUSH1 0x60 DUP3 DUP3 SUB SLT PUSH3 0x3CA JUMPI DUP2 MLOAD PUSH1 0x1 PUSH1 0x1 PUSH1 0x40 SHL SUB SWAP1 DUP2 DUP2 GT PUSH3 0x3CA JUMPI DUP3 PUSH3 0x4E SWAP2 DUP6 ADD PUSH3 0x40B JUMP JUMPDEST SWAP3 PUSH1 0x20 SWAP3 DUP4 DUP3 ADD MLOAD DUP4 DUP2 GT PUSH3 0x3CA JUMPI PUSH1 0x40 SWAP2 PUSH3 0x6E SWAP2 DUP5 ADD PUSH3 0x40B JUMP JUMPDEST SWAP2 ADD MLOAD SWAP4 DUP3 DUP6 AND DUP1 SWAP6 SUB PUSH3 0x3CA JUMPI CALLER ISZERO PUSH3 0x3B1 JUMPI PUSH1 0x0 DUP1 SLOAD CALLER PUSH1 0x1 PUSH1 0x1 PUSH1 0xA0 SHL SUB NOT DUP3 AND DUP2 OR DUP4 SSTORE SWAP2 SWAP4 SWAP2 SWAP1 PUSH1 0x1 PUSH1 0x1 PUSH1 0xA0 SHL SUB AND PUSH32 0x8BE0079C531659141344CD1FD0A4F28419497F9722A3DAAFE3B4186F6B6457E0 DUP6 DUP1 LOG3 PUSH1 0x1 SWAP3 DUP4 PUSH32 0x9B779B17422D0DF92223018B32B4D1FA46E071723D6817E2486D003BECC55F00 SSTORE DUP3 MLOAD DUP6 DUP2 GT PUSH3 0x39D JUMPI DUP5 SLOAD SWAP4 DUP6 DUP6 DUP2 SHR SWAP6 AND DUP1 ISZERO PUSH3 0x392 JUMPI JUMPDEST DUP9 DUP7 LT EQ PUSH3 0x37E JUMPI DUP2 SWAP1 PUSH1 0x1F SWAP6 DUP7 DUP2 GT PUSH3 0x32B JUMPI JUMPDEST POP DUP9 SWAP1 DUP7 DUP4 GT PUSH1 0x1 EQ PUSH3 0x2C7 JUMPI DUP5 SWAP3 PUSH3 0x2BB JUMPI JUMPDEST POP POP PUSH1 0x0 NOT PUSH1 0x3 DUP4 SWAP1 SHL SHR NOT AND SWAP1 DUP6 SHL OR DUP5 SSTORE JUMPDEST DUP2 MLOAD SWAP5 DUP6 GT PUSH3 0x2A7 JUMPI PUSH1 0x2 SLOAD DUP5 DUP2 DUP2 SHR SWAP2 AND DUP1 ISZERO PUSH3 0x29C JUMPI JUMPDEST DUP8 DUP3 LT EQ PUSH3 0x288 JUMPI DUP4 DUP2 GT PUSH3 0x23F JUMPI JUMPDEST POP DUP6 SWAP3 DUP6 GT PUSH1 0x1 EQ PUSH3 0x1D6 JUMPI SWAP4 SWAP5 POP DUP5 SWAP3 SWAP2 SWAP1 DUP4 PUSH3 0x1CA JUMPI JUMPDEST POP POP SHL SWAP2 PUSH1 0x0 NOT SWAP1 PUSH1 0x3 SHL SHR NOT AND OR PUSH1 0x2 SSTORE JUMPDEST PUSH1 0x4 DUP1 SLOAD PUSH1 0x1 PUSH1 0x1 PUSH1 0x40 SHL SUB NOT AND SWAP2 SWAP1 SWAP2 OR SWAP1 SSTORE PUSH1 0x40 MLOAD PUSH2 0x13BE SWAP1 DUP2 PUSH3 0x47E DUP3 CODECOPY RETURN JUMPDEST ADD MLOAD SWAP3 POP CODESIZE DUP1 PUSH3 0x193 JUMP JUMPDEST PUSH1 0x2 DUP2 MSTORE DUP6 DUP2 KECCAK256 SWAP4 SWAP6 DUP6 SWAP2 PUSH1 0x1F NOT DUP4 AND SWAP2 JUMPDEST DUP9 DUP4 DUP4 LT PUSH3 0x224 JUMPI POP POP POP LT PUSH3 0x20A JUMPI JUMPDEST POP POP POP DUP2 SHL ADD PUSH1 0x2 SSTORE PUSH3 0x1A6 JUMP JUMPDEST ADD MLOAD PUSH1 0x0 NOT PUSH1 0xF8 DUP5 PUSH1 0x3 SHL AND SHR NOT AND SWAP1 SSTORE CODESIZE DUP1 DUP1 PUSH3 0x1FB JUMP JUMPDEST DUP6 DUP8 ADD MLOAD DUP9 SSTORE SWAP1 SWAP7 ADD SWAP6 SWAP5 DUP6 ADD SWAP5 DUP8 SWAP4 POP SWAP1 DUP2 ADD SWAP1 PUSH3 0x1E8 JUMP JUMPDEST PUSH1 0x2 DUP3 MSTORE DUP7 DUP3 KECCAK256 DUP5 DUP1 DUP9 ADD PUSH1 0x5 SHR DUP3 ADD SWAP3 DUP10 DUP10 LT PUSH3 0x27E JUMPI JUMPDEST ADD PUSH1 0x5 SHR ADD SWAP1 DUP6 SWAP1 JUMPDEST DUP3 DUP2 LT PUSH3 0x272 JUMPI POP POP PUSH3 0x178 JUMP JUMPDEST DUP4 DUP2 SSTORE ADD DUP6 SWAP1 PUSH3 0x262 JUMP JUMPDEST SWAP3 POP DUP2 SWAP3 PUSH3 0x259 JUMP JUMPDEST PUSH4 0x4E487B71 PUSH1 0xE0 SHL DUP3 MSTORE PUSH1 0x22 PUSH1 0x4 MSTORE PUSH1 0x24 DUP3 REVERT JUMPDEST SWAP1 PUSH1 0x7F AND SWAP1 PUSH3 0x166 JUMP JUMPDEST PUSH4 0x4E487B71 PUSH1 0xE0 SHL DUP2 MSTORE PUSH1 0x41 PUSH1 0x4 MSTORE PUSH1 0x24 SWAP1 REVERT JUMPDEST ADD MLOAD SWAP1 POP CODESIZE DUP1 PUSH3 0x137 JUMP JUMPDEST DUP8 DUP6 MSTORE DUP10 DUP6 KECCAK256 DUP9 SWAP5 POP SWAP2 SWAP1 PUSH1 0x1F NOT DUP5 AND DUP7 JUMPDEST DUP13 DUP3 DUP3 LT PUSH3 0x314 JUMPI POP POP DUP5 GT PUSH3 0x2FA JUMPI JUMPDEST POP POP POP DUP2 SHL ADD DUP5 SSTORE PUSH3 0x14B JUMP JUMPDEST ADD MLOAD PUSH1 0x0 NOT PUSH1 0xF8 DUP5 PUSH1 0x3 SHL AND SHR NOT AND SWAP1 SSTORE CODESIZE DUP1 DUP1 PUSH3 0x2EC JUMP JUMPDEST DUP4 DUP6 ADD MLOAD DUP7 SSTORE DUP12 SWAP8 SWAP1 SWAP6 ADD SWAP5 SWAP4 DUP5 ADD SWAP4 ADD PUSH3 0x2D9 JUMP JUMPDEST SWAP1 SWAP2 POP DUP7 DUP5 MSTORE DUP9 DUP5 KECCAK256 DUP7 DUP1 DUP6 ADD PUSH1 0x5 SHR DUP3 ADD SWAP3 DUP12 DUP7 LT PUSH3 0x374 JUMPI JUMPDEST SWAP2 DUP10 SWAP2 DUP7 SWAP6 SWAP5 SWAP4 ADD PUSH1 0x5 SHR ADD SWAP2 JUMPDEST DUP3 DUP2 LT PUSH3 0x365 JUMPI POP POP PUSH3 0x121 JUMP JUMPDEST DUP7 DUP2 SSTORE DUP6 SWAP5 POP DUP10 SWAP2 ADD PUSH3 0x355 JUMP JUMPDEST SWAP3 POP DUP2 SWAP3 PUSH3 0x347 JUMP JUMPDEST PUSH4 0x4E487B71 PUSH1 0xE0 SHL DUP4 MSTORE PUSH1 0x22 PUSH1 0x4 MSTORE PUSH1 0x24 DUP4 REVERT JUMPDEST SWAP5 PUSH1 0x7F AND SWAP5 PUSH3 0x10A JUMP JUMPDEST PUSH4 0x4E487B71 PUSH1 0xE0 SHL DUP3 MSTORE PUSH1 0x41 PUSH1 0x4 MSTORE PUSH1 0x24 DUP3 REVERT JUMPDEST PUSH1 0x40 MLOAD PUSH4 0x1E4FBDF7 PUSH1 0xE0 SHL DUP2 MSTORE PUSH1 0x0 PUSH1 0x4 DUP3 ADD MSTORE PUSH1 0x24 SWAP1 REVERT JUMPDEST PUSH1 0x0 DUP1 REVERT JUMPDEST PUSH1 0x40 MLOAD SWAP2 SWAP1 PUSH1 0x1F ADD PUSH1 0x1F NOT AND DUP3 ADD PUSH1 0x1 PUSH1 0x1 PUSH1 0x40 SHL SUB DUP2 GT DUP4 DUP3 LT OR PUSH3 0x3F5 JUMPI PUSH1 0x40 MSTORE JUMP JUMPDEST PUSH4 0x4E487B71 PUSH1 0xE0 SHL PUSH1 0x0 MSTORE PUSH1 0x41 PUSH1 0x4 MSTORE PUSH1 0x24 PUSH1 0x0 REVERT JUMPDEST SWAP2 SWAP1 DUP1 PUSH1 0x1F DUP5 ADD SLT ISZERO PUSH3 0x3CA JUMPI DUP3 MLOAD PUSH1 0x1 PUSH1 0x1 PUSH1 0x40 SHL SUB DUP2 GT PUSH3 0x3F5 JUMPI PUSH1 0x20 SWAP1 PUSH3 0x441 PUSH1 0x1F DUP3 ADD PUSH1 0x1F NOT AND DUP4 ADD PUSH3 0x3CF JUMP JUMPDEST SWAP3 DUP2 DUP5 MSTORE DUP3 DUP3 DUP8 ADD ADD GT PUSH3 0x3CA JUMPI PUSH1 0x0 JUMPDEST DUP2 DUP2 LT PUSH3 0x469 JUMPI POP DUP3 PUSH1 0x0 SWAP4 SWAP5 SWAP6 POP ADD ADD MSTORE SWAP1 JUMP JUMPDEST DUP6 DUP2 ADD DUP4 ADD MLOAD DUP5 DUP3 ADD DUP5 ADD MSTORE DUP3 ADD PUSH3 0x453 JUMP INVALID PUSH1 0x80 PUSH1 0x40 SWAP1 DUP1 DUP3 MSTORE PUSH1 0x4 SWAP2 DUP3 CALLDATASIZE LT ISZERO PUSH2 0x17 JUMPI PUSH1 0x0 DUP1 REVERT JUMPDEST PUSH1 0x0 SWAP2 DUP3 CALLDATALOAD PUSH1 0xE0 SHR SWAP1 DUP2 PUSH4 0x6FDDE03 EQ PUSH2 0xF35 JUMPI POP DUP1 PUSH4 0x95EA7B3 EQ PUSH2 0xEC5 JUMPI DUP1 PUSH4 0xA26C145 EQ PUSH2 0xE54 JUMPI DUP1 PUSH4 0x18160DDD EQ PUSH2 0xE36 JUMPI DUP1 PUSH4 0x23B872DD EQ PUSH2 0xD13 JUMPI DUP1 PUSH4 0x266D7BDA EQ PUSH2 0xCEB JUMPI DUP1 PUSH4 0x313CE567 EQ PUSH2 0xCD0 JUMPI DUP1 PUSH4 0x3F4BA83A EQ PUSH2 0xC62 JUMPI DUP1 PUSH4 0x406BC108 EQ PUSH2 0xC2B JUMPI DUP1 PUSH4 0x40C10F19 EQ PUSH2 0xB1F JUMPI DUP1 PUSH4 0x42966C68 EQ PUSH2 0xA23 JUMPI DUP1 PUSH4 0x53D6FD59 EQ PUSH2 0x989 JUMPI DUP1 PUSH4 0x5C975ABB EQ PUSH2 0x965 JUMPI DUP1 PUSH4 0x70A08231 EQ PUSH2 0x92E JUMPI DUP1 PUSH4 0x715018A6 EQ PUSH2 0x8D1 JUMPI DUP1 PUSH4 0x77EC0FEB EQ PUSH2 0x8B3 JUMPI DUP1 PUSH4 0x8456CB59 EQ PUSH2 0x855 JUMPI DUP1 PUSH4 0x85A6B3AE EQ PUSH2 0x837 JUMPI DUP1 PUSH4 0x8DA5CB5B EQ PUSH2 0x810 JUMPI DUP1 PUSH4 0x95D89B41 EQ PUSH2 0x70D JUMPI DUP1 PUSH4 0xA095E8F9 EQ PUSH2 0x5D3 JUMPI DUP1 PUSH4 0xA9059CBB EQ PUSH2 0x51A JUMPI DUP1 PUSH4 0xC5F96572 EQ PUSH2 0x4E3 JUMPI DUP1 PUSH4 0xD936547E EQ PUSH2 0x4A6 JUMPI DUP1 PUSH4 0xDD62ED3E EQ PUSH2 0x45E JUMPI DUP1 PUSH4 0xDEEDD49C EQ PUSH2 0x3E8 JUMPI DUP1 PUSH4 0xF0FC6BCA EQ PUSH2 0x2DA JUMPI DUP1 PUSH4 0xF2FDE38B EQ PUSH2 0x24F JUMPI PUSH4 0xF6EF8F0A EQ PUSH2 0x164 JUMPI PUSH1 0x0 DUP1 REVERT JUMPDEST DUP2 PUSH1 0x3 NOT CALLDATASIZE ADD SLT PUSH2 0x24B JUMPI PUSH2 0x177 PUSH2 0x10D2 JUMP JUMPDEST PUSH2 0x17F PUSH2 0x129E JUMP JUMPDEST CALLVALUE ISZERO PUSH2 0x23C JUMPI PUSH1 0x3 SLOAD DUP1 ISZERO PUSH2 0x22C JUMPI PUSH8 0xDE0B6B3A7640000 DUP1 CALLVALUE MUL SWAP1 CALLVALUE DUP3 DIV SUB PUSH2 0x219 JUMPI PUSH32 0x2F588CF4BB0247B0F3F60E06187F92E6FD1DEAABB56E2BCC5672352337871327 SWAP3 SWAP2 PUSH2 0x1D3 SWAP2 DIV PUSH1 0xB SLOAD PUSH2 0x1138 JUMP JUMPDEST DUP1 PUSH1 0xB SSTORE PUSH2 0x1E3 CALLVALUE PUSH1 0x5 SLOAD PUSH2 0x1138 JUMP JUMPDEST PUSH1 0x5 SSTORE DUP2 MLOAD SWAP1 CALLVALUE DUP3 MSTORE PUSH1 0x20 DUP3 ADD MSTORE LOG1 PUSH1 0x1 PUSH32 0x9B779B17422D0DF92223018B32B4D1FA46E071723D6817E2486D003BECC55F00 SSTORE DUP1 RETURN JUMPDEST PUSH4 0x4E487B71 PUSH1 0xE0 SHL DUP5 MSTORE PUSH1 0x11 DUP6 MSTORE PUSH1 0x24 DUP5 REVERT JUMPDEST DUP2 MLOAD PUSH4 0x162908E3 PUSH1 0xE1 SHL DUP2 MSTORE DUP5 SWAP1 REVERT JUMPDEST MLOAD PUSH4 0x162908E3 PUSH1 0xE1 SHL DUP2 MSTORE SWAP1 POP REVERT JUMPDEST POP DUP1 REVERT JUMPDEST POP DUP3 CALLVALUE PUSH2 0x2D6 JUMPI PUSH1 0x20 CALLDATASIZE PUSH1 0x3 NOT ADD SLT PUSH2 0x2D6 JUMPI PUSH2 0x26A PUSH2 0x1092 JUMP JUMPDEST SWAP1 PUSH2 0x273 PUSH2 0x10D2 JUMP JUMPDEST PUSH1 0x1 PUSH1 0x1 PUSH1 0xA0 SHL SUB SWAP2 DUP3 AND SWAP3 DUP4 ISZERO PUSH2 0x2C0 JUMPI POP POP DUP3 SLOAD PUSH1 0x1 PUSH1 0x1 PUSH1 0xA0 SHL SUB NOT DUP2 AND DUP4 OR DUP5 SSTORE AND PUSH32 0x8BE0079C531659141344CD1FD0A4F28419497F9722A3DAAFE3B4186F6B6457E0 DUP4 DUP1 LOG3 DUP1 RETURN JUMPDEST MLOAD PUSH4 0x1E4FBDF7 PUSH1 0xE0 SHL DUP2 MSTORE SWAP1 DUP2 ADD DUP5 SWAP1 MSTORE PUSH1 0x24 SWAP1 REVERT JUMPDEST DUP3 DUP1 REVERT JUMPDEST POP DUP3 SWAP1 CALLVALUE PUSH2 0x2D6 JUMPI DUP3 PUSH1 0x3 NOT CALLDATASIZE ADD SLT PUSH2 0x2D6 JUMPI PUSH2 0x2F5 PUSH2 0x129E JUMP JUMPDEST PUSH2 0x2FE CALLER PUSH2 0x12E0 JUMP JUMPDEST CALLER DUP4 MSTORE PUSH1 0x9 PUSH1 0x20 MSTORE DUP1 DUP4 KECCAK256 SLOAD SWAP2 DUP3 ISZERO PUSH2 0x3DA JUMPI CALLER DUP5 MSTORE PUSH1 0x9 PUSH1 0x20 MSTORE DUP4 DUP3 DUP2 KECCAK256 SSTORE DUP4 DUP1 DUP1 DUP1 DUP7 CALLER GAS CALL RETURNDATASIZE ISZERO PUSH2 0x3D5 JUMPI RETURNDATASIZE PUSH8 0xFFFFFFFFFFFFFFFF DUP2 GT PUSH2 0x3C2 JUMPI DUP4 MLOAD SWAP1 PUSH2 0x353 PUSH1 0x1F DUP3 ADD PUSH1 0x1F NOT AND PUSH1 0x20 ADD DUP4 PUSH2 0x1011 JUMP JUMPDEST DUP2 MSTORE DUP6 PUSH1 0x20 RETURNDATASIZE SWAP3 ADD RETURNDATACOPY JUMPDEST ISZERO PUSH2 0x3B4 JUMPI POP MLOAD SWAP1 DUP2 MSTORE PUSH32 0x5EFA67896A23B651B741B525CAACBA039C00CA7853BE3DE8EB1F4269E8669C56 PUSH1 0x20 CALLER SWAP3 LOG2 PUSH1 0x1 PUSH32 0x9B779B17422D0DF92223018B32B4D1FA46E071723D6817E2486D003BECC55F00 SSTORE DUP1 RETURN JUMPDEST SWAP1 MLOAD PUSH4 0x12171D83 PUSH1 0xE3 SHL DUP2 MSTORE REVERT JUMPDEST PUSH4 0x4E487B71 PUSH1 0xE0 SHL DUP7 MSTORE PUSH1 0x41 DUP4 MSTORE PUSH1 0x24 DUP7 REVERT JUMPDEST PUSH2 0x35D JUMP JUMPDEST SWAP1 MLOAD PUSH4 0x5589B7D3 PUSH1 0xE0 SHL DUP2 MSTORE REVERT JUMPDEST POP CALLVALUE PUSH2 0x24B JUMPI PUSH1 0x20 CALLDATASIZE PUSH1 0x3 NOT ADD SLT PUSH2 0x24B JUMPI PUSH1 0x20 SWAP2 PUSH2 0x457 SWAP1 DUP3 PUSH1 0x1 PUSH1 0x1 PUSH1 0xA0 SHL SUB PUSH2 0x412 PUSH2 0x1092 JUMP JUMPDEST AND SWAP2 DUP3 DUP2 MSTORE PUSH1 0x6 DUP7 MSTORE PUSH2 0x448 PUSH8 0xDE0B6B3A7640000 PUSH2 0x437 DUP5 DUP5 KECCAK256 SLOAD PUSH1 0xB SLOAD SWAP1 PUSH2 0x128B JUMP JUMPDEST DIV DUP5 DUP4 MSTORE PUSH1 0x9 DUP9 MSTORE DUP4 DUP4 KECCAK256 SLOAD PUSH2 0x1138 JUMP JUMPDEST SWAP3 DUP2 MSTORE PUSH1 0xA DUP7 MSTORE KECCAK256 SLOAD SWAP1 PUSH2 0x117C JUMP JUMPDEST SWAP1 MLOAD SWAP1 DUP2 MSTORE RETURN JUMPDEST POP CALLVALUE PUSH2 0x24B JUMPI DUP1 PUSH1 0x3 NOT CALLDATASIZE ADD SLT PUSH2 0x24B JUMPI DUP1 PUSH1 0x20 SWAP3 PUSH2 0x47B PUSH2 0x1092 JUMP JUMPDEST PUSH2 0x483 PUSH2 0x10AD JUMP JUMPDEST PUSH1 0x1 PUSH1 0x1 PUSH1 0xA0 SHL SUB SWAP2 DUP3 AND DUP4 MSTORE PUSH1 0x7 DUP7 MSTORE DUP4 DUP4 KECCAK256 SWAP2 AND DUP3 MSTORE DUP5 MSTORE KECCAK256 SLOAD SWAP1 MLOAD SWAP1 DUP2 MSTORE RETURN JUMPDEST POP CALLVALUE PUSH2 0x24B JUMPI PUSH1 0x20 CALLDATASIZE PUSH1 0x3 NOT ADD SLT PUSH2 0x24B JUMPI PUSH1 0x20 SWAP2 PUSH1 0xFF SWAP1 DUP3 SWAP1 PUSH1 0x1 PUSH1 0x1 PUSH1 0xA0 SHL SUB PUSH2 0x4D0 PUSH2 0x1092 JUMP JUMPDEST AND DUP2 MSTORE PUSH1 0x8 DUP6 MSTORE KECCAK256 SLOAD AND SWAP1 MLOAD SWAP1 ISZERO ISZERO DUP2 MSTORE RETURN JUMPDEST POP CALLVALUE PUSH2 0x24B JUMPI PUSH1 0x20 CALLDATASIZE PUSH1 0x3 NOT ADD SLT PUSH2 0x24B JUMPI PUSH1 0x20 SWAP2 DUP2 SWAP1 PUSH1 0x1 PUSH1 0x1 PUSH1 0xA0 SHL SUB PUSH2 0x50A PUSH2 0x1092 JUMP JUMPDEST AND DUP2 MSTORE PUSH1 0xA DUP5 MSTORE KECCAK256 SLOAD SWAP1 MLOAD SWAP1 DUP2 MSTORE RETURN JUMPDEST POP DUP3 CALLVALUE PUSH2 0x2D6 JUMPI DUP2 PUSH1 0x3 NOT CALLDATASIZE ADD SLT PUSH2 0x2D6 JUMPI PUSH2 0x534 PUSH2 0x1092 JUMP JUMPDEST SWAP3 PUSH8 0xFFFFFFFFFFFFFFFF DUP3 SLOAD AND TIMESTAMP LT PUSH2 0x5C5 JUMPI CALLER DUP2 MSTORE PUSH1 0x8 PUSH1 0x20 MSTORE PUSH1 0xFF DUP4 DUP3 KECCAK256 SLOAD AND ISZERO PUSH2 0x5AE JUMPI PUSH1 0x1 PUSH1 0x1 PUSH1 0xA0 SHL SUB DUP5 AND DUP1 DUP3 MSTORE PUSH1 0x8 PUSH1 0x20 MSTORE SWAP1 DUP4 SWAP1 KECCAK256 SLOAD PUSH1 0xFF AND ISZERO PUSH2 0x59A JUMPI PUSH1 0x20 DUP4 PUSH2 0x593 DUP7 PUSH2 0x589 PUSH2 0x115B JUMP JUMPDEST PUSH1 0x24 CALLDATALOAD SWAP1 CALLER PUSH2 0x1189 JUMP JUMPDEST MLOAD PUSH1 0x1 DUP2 MSTORE RETURN JUMPDEST PUSH1 0x24 SWAP3 MLOAD SWAP2 PUSH4 0x6F8BF18B PUSH1 0xE1 SHL DUP4 MSTORE DUP3 ADD MSTORE REVERT JUMPDEST POP PUSH1 0x24 SWAP2 MLOAD SWAP1 PUSH4 0x6F8BF18B PUSH1 0xE1 SHL DUP3 MSTORE CALLER SWAP1 DUP3 ADD MSTORE REVERT JUMPDEST POP SWAP1 MLOAD PUSH3 0xCCAEC5 PUSH1 0xE6 SHL DUP2 MSTORE REVERT JUMPDEST POP DUP3 SWAP1 CALLVALUE PUSH2 0x2D6 JUMPI DUP1 PUSH1 0x3 NOT CALLDATASIZE ADD SLT PUSH2 0x2D6 JUMPI DUP2 CALLDATALOAD SWAP2 PUSH8 0xFFFFFFFFFFFFFFFF SWAP2 DUP3 DUP5 GT PUSH2 0x709 JUMPI CALLDATASIZE PUSH1 0x23 DUP6 ADD SLT ISZERO PUSH2 0x709 JUMPI DUP4 DUP3 ADD CALLDATALOAD SWAP3 DUP4 GT PUSH2 0x709 JUMPI PUSH1 0x24 SWAP4 DUP5 DUP2 ADD SWAP1 DUP6 CALLDATASIZE SWAP2 DUP7 PUSH1 0x5 SHL ADD ADD GT PUSH2 0x705 JUMPI SWAP3 PUSH2 0x62E PUSH2 0x10C3 JUMP JUMPDEST PUSH2 0x636 PUSH2 0x10D2 JUMP JUMPDEST DUP1 ISZERO ISZERO SWAP2 DUP8 JUMPDEST DUP2 DUP2 LT PUSH2 0x647 JUMPI DUP9 DUP1 RETURN JUMPDEST PUSH1 0x1 PUSH1 0x1 PUSH1 0xA0 SHL SUB DUP1 PUSH2 0x663 PUSH2 0x65E DUP5 DUP7 DUP13 PUSH2 0x10FE JUMP JUMPDEST PUSH2 0x1124 JUMP JUMPDEST AND ISZERO PUSH2 0x6F5 JUMPI PUSH32 0xF93F9A76C1BF3444D22400A00CB9FE990E6ABE9DBB333FDA48859CFEE864543D DUP2 DUP12 SWAP3 PUSH2 0x69B PUSH2 0x65E DUP7 DUP9 DUP15 PUSH2 0x10FE JUMP JUMPDEST AND DUP4 MSTORE PUSH2 0x6BC DUP7 DUP10 PUSH1 0x20 SWAP6 PUSH1 0x8 DUP8 MSTORE KECCAK256 SWAP1 PUSH1 0xFF DUP1 NOT DUP4 SLOAD AND SWAP2 ISZERO ISZERO AND OR SWAP1 SSTORE JUMP JUMPDEST PUSH2 0x6CA PUSH2 0x65E DUP6 DUP8 DUP14 PUSH2 0x10FE JUMP JUMPDEST AND SWAP2 DUP8 MLOAD DUP8 DUP2 MSTORE LOG2 PUSH1 0x0 NOT DUP2 EQ PUSH2 0x6E3 JUMPI PUSH1 0x1 ADD PUSH2 0x63C JUMP JUMPDEST PUSH4 0x4E487B71 PUSH1 0xE0 SHL DUP10 MSTORE PUSH1 0x11 DUP7 MSTORE DUP8 DUP10 REVERT JUMPDEST DUP6 MLOAD PUSH4 0xE6C4247B PUSH1 0xE0 SHL DUP2 MSTORE DUP8 SWAP1 REVERT JUMPDEST DUP6 DUP1 REVERT JUMPDEST DUP5 DUP1 REVERT JUMPDEST POP DUP3 SWAP1 CALLVALUE PUSH2 0x2D6 JUMPI DUP3 PUSH1 0x3 NOT CALLDATASIZE ADD SLT PUSH2 0x2D6 JUMPI DUP1 MLOAD SWAP2 DUP4 PUSH1 0x2 SLOAD SWAP1 PUSH1 0x1 SWAP1 DUP3 DUP3 SHR SWAP3 DUP3 DUP2 AND DUP1 ISZERO PUSH2 0x806 JUMPI JUMPDEST PUSH1 0x20 SWAP6 DUP7 DUP7 LT DUP3 EQ PUSH2 0x7F3 JUMPI POP DUP5 DUP9 MSTORE SWAP1 DUP2 ISZERO PUSH2 0x7D1 JUMPI POP PUSH1 0x1 EQ PUSH2 0x778 JUMPI JUMPDEST PUSH2 0x774 DUP7 DUP7 PUSH2 0x76A DUP3 DUP12 SUB DUP4 PUSH2 0x1011 JUMP JUMPDEST MLOAD SWAP2 DUP3 SWAP2 DUP3 PUSH2 0x1049 JUMP JUMPDEST SUB SWAP1 RETURN JUMPDEST SWAP3 SWAP6 POP PUSH1 0x2 DUP4 MSTORE PUSH32 0x405787FA12A823E0F2B7631CC41B3BA8828B3321CA811111FA75CD3AA3BB5ACE JUMPDEST DUP3 DUP5 LT PUSH2 0x7BE JUMPI POP POP POP DUP3 PUSH2 0x774 SWAP5 PUSH2 0x76A SWAP3 DUP3 ADD ADD SWAP5 DUP7 PUSH2 0x759 JUMP JUMPDEST DUP1 SLOAD DUP7 DUP6 ADD DUP9 ADD MSTORE SWAP3 DUP7 ADD SWAP3 DUP2 ADD PUSH2 0x7A1 JUMP JUMPDEST PUSH1 0xFF NOT AND DUP8 DUP7 ADD MSTORE POP POP POP ISZERO ISZERO PUSH1 0x5 SHL DUP4 ADD ADD SWAP3 POP PUSH2 0x76A DUP3 PUSH2 0x774 DUP7 PUSH2 0x759 JUMP JUMPDEST PUSH4 0x4E487B71 PUSH1 0xE0 SHL DUP5 MSTORE PUSH1 0x22 SWAP1 MSTORE PUSH1 0x24 DUP4 REVERT JUMPDEST SWAP4 PUSH1 0x7F AND SWAP4 PUSH2 0x739 JUMP JUMPDEST POP CALLVALUE PUSH2 0x24B JUMPI DUP2 PUSH1 0x3 NOT CALLDATASIZE ADD SLT PUSH2 0x24B JUMPI SWAP1 SLOAD SWAP1 MLOAD PUSH1 0x1 PUSH1 0x1 PUSH1 0xA0 SHL SUB SWAP1 SWAP2 AND DUP2 MSTORE PUSH1 0x20 SWAP1 RETURN JUMPDEST POP CALLVALUE PUSH2 0x24B JUMPI DUP2 PUSH1 0x3 NOT CALLDATASIZE ADD SLT PUSH2 0x24B JUMPI PUSH1 0x20 SWAP1 PUSH1 0x5 SLOAD SWAP1 MLOAD SWAP1 DUP2 MSTORE RETURN JUMPDEST POP CALLVALUE PUSH2 0x24B JUMPI DUP2 PUSH1 0x3 NOT CALLDATASIZE ADD SLT PUSH2 0x24B JUMPI PUSH1 0x20 PUSH32 0x62E78CEA01BEE320CD4E420270B5EA74000D11B0C9F74754EBDBFC544B05A258 SWAP2 PUSH2 0x892 PUSH2 0x10D2 JUMP JUMPDEST PUSH2 0x89A PUSH2 0x115B JUMP JUMPDEST DUP4 SLOAD PUSH1 0xFF PUSH1 0xA0 SHL NOT AND PUSH1 0x1 PUSH1 0xA0 SHL OR DUP5 SSTORE MLOAD CALLER DUP2 MSTORE LOG1 DUP1 RETURN JUMPDEST POP CALLVALUE PUSH2 0x24B JUMPI DUP2 PUSH1 0x3 NOT CALLDATASIZE ADD SLT PUSH2 0x24B JUMPI PUSH1 0x20 SWAP1 PUSH1 0xB SLOAD SWAP1 MLOAD SWAP1 DUP2 MSTORE RETURN JUMPDEST DUP3 CALLVALUE PUSH2 0x92B JUMPI DUP1 PUSH1 0x3 NOT CALLDATASIZE ADD SLT PUSH2 0x92B JUMPI PUSH2 0x8EA PUSH2 0x10D2 JUMP JUMPDEST DUP1 SLOAD PUSH1 0x1 PUSH1 0x1 PUSH1 0xA0 SHL SUB NOT DUP2 AND DUP3 SSTORE DUP2 SWAP1 PUSH1 0x1 PUSH1 0x1 PUSH1 0xA0 SHL SUB AND PUSH32 0x8BE0079C531659141344CD1FD0A4F28419497F9722A3DAAFE3B4186F6B6457E0 DUP3 DUP1 LOG3 DUP1 RETURN JUMPDEST DUP1 REVERT JUMPDEST POP CALLVALUE PUSH2 0x24B JUMPI PUSH1 0x20 CALLDATASIZE PUSH1 0x3 NOT ADD SLT PUSH2 0x24B JUMPI PUSH1 0x20 SWAP2 DUP2 SWAP1 PUSH1 0x1 PUSH1 0x1 PUSH1 0xA0 SHL SUB PUSH2 0x955 PUSH2 0x1092 JUMP JUMPDEST AND DUP2 MSTORE PUSH1 0x6 DUP5 MSTORE KECCAK256 SLOAD SWAP1 MLOAD SWAP1 DUP2 MSTORE RETURN JUMPDEST POP CALLVALUE PUSH2 0x24B JUMPI DUP2 PUSH1 0x3 NOT CALLDATASIZE ADD SLT PUSH2 0x24B JUMPI PUSH1 0xFF PUSH1 0x20 SWAP3 SLOAD PUSH1 0xA0 SHR AND SWAP1 MLOAD SWAP1 ISZERO ISZERO DUP2 MSTORE RETURN JUMPDEST POP DUP3 SWAP1 CALLVALUE PUSH2 0x2D6 JUMPI DUP1 PUSH1 0x3 NOT CALLDATASIZE ADD SLT PUSH2 0x2D6 JUMPI PUSH2 0x9A4 PUSH2 0x1092 JUMP JUMPDEST SWAP1 PUSH2 0x9AD PUSH2 0x10C3 JUMP JUMPDEST SWAP2 PUSH2 0x9B6 PUSH2 0x10D2 JUMP JUMPDEST PUSH1 0x1 PUSH1 0x1 PUSH1 0xA0 SHL SUB AND SWAP3 DUP4 ISZERO PUSH2 0xA15 JUMPI POP PUSH32 0xF93F9A76C1BF3444D22400A00CB9FE990E6ABE9DBB333FDA48859CFEE864543D SWAP2 PUSH1 0x20 SWAP2 DUP5 DUP7 MSTORE PUSH1 0x8 DUP4 MSTORE PUSH2 0xA0B DUP3 DUP3 DUP9 KECCAK256 SWAP1 PUSH1 0xFF DUP1 NOT DUP4 SLOAD AND SWAP2 ISZERO ISZERO AND OR SWAP1 SSTORE JUMP JUMPDEST MLOAD SWAP1 ISZERO ISZERO DUP2 MSTORE LOG2 DUP1 RETURN JUMPDEST SWAP1 MLOAD PUSH4 0xE6C4247B PUSH1 0xE0 SHL DUP2 MSTORE REVERT JUMPDEST POP CALLVALUE PUSH2 0x24B JUMPI PUSH1 0x20 CALLDATASIZE PUSH1 0x3 NOT ADD SLT PUSH2 0x24B JUMPI DUP3 CALLDATALOAD SWAP3 DUP4 ISZERO PUSH2 0xB11 JUMPI CALLER DUP4 MSTORE PUSH1 0x6 PUSH1 0x20 MSTORE DUP2 DUP4 KECCAK256 SLOAD DUP5 DUP2 LT PUSH2 0xAE6 JUMPI DUP4 DUP1 DUP7 DUP6 PUSH2 0xA5E CALLER PUSH2 0x12E0 JUMP JUMPDEST PUSH2 0xA6A DUP3 PUSH1 0x3 SLOAD PUSH2 0x117C JUMP JUMPDEST PUSH1 0x3 SSTORE CALLER DUP4 MSTORE PUSH1 0x6 PUSH1 0x20 MSTORE DUP1 DUP4 KECCAK256 PUSH2 0xA83 DUP4 DUP3 SLOAD PUSH2 0x117C JUMP JUMPDEST SWAP1 SSTORE PUSH2 0xA8E CALLER PUSH2 0x1347 JUMP JUMPDEST DUP1 MLOAD DUP3 DUP2 MSTORE PUSH32 0xFD38818F5291BF0BB3A2A48AADC06BA8757865D1DABD804585338AAB3009DCB6 PUSH1 0x20 CALLER SWAP3 LOG2 MLOAD SWAP1 DUP2 MSTORE PUSH32 0xDDF252AD1BE2C89B69C2B068FC378DAA952BA7F163C4A11628F55A4DF523B3EF PUSH1 0x20 CALLER SWAP3 LOG3 DUP1 RETURN JUMPDEST SWAP2 MLOAD PUSH4 0xDB42144D PUSH1 0xE0 SHL DUP2 MSTORE CALLER SWAP2 DUP2 ADD SWAP2 DUP3 MSTORE PUSH1 0x20 DUP3 ADD DUP6 SWAP1 MSTORE PUSH1 0x40 DUP3 ADD SWAP3 SWAP1 SWAP3 MSTORE DUP2 SWAP1 PUSH1 0x60 ADD SUB SWAP1 REVERT JUMPDEST SWAP1 MLOAD PUSH4 0x162908E3 PUSH1 0xE1 SHL DUP2 MSTORE REVERT JUMPDEST POP DUP3 SWAP1 CALLVALUE PUSH2 0x2D6 JUMPI DUP1 PUSH1 0x3 NOT CALLDATASIZE ADD SLT PUSH2 0x2D6 JUMPI PUSH2 0xB3A PUSH2 0x1092 JUMP JUMPDEST SWAP1 PUSH1 0x24 CALLDATALOAD SWAP2 PUSH2 0xB47 PUSH2 0x10D2 JUMP JUMPDEST PUSH1 0x1 PUSH1 0x1 PUSH1 0xA0 SHL SUB DUP2 AND DUP1 DUP7 MSTORE PUSH1 0x8 PUSH1 0x20 MSTORE DUP3 DUP7 KECCAK256 SLOAD SWAP1 SWAP5 SWAP1 PUSH1 0xFF AND ISZERO PUSH2 0xC14 JUMPI PUSH2 0xB70 PUSH2 0x115B JUMP JUMPDEST DUP4 ISZERO PUSH2 0xC06 JUMPI POP DUP5 SWAP3 PUSH32 0xDDF252AD1BE2C89B69C2B068FC378DAA952BA7F163C4A11628F55A4DF523B3EF SWAP3 PUSH2 0xBD5 DUP4 PUSH2 0xBAA PUSH1 0x20 SWAP6 PUSH2 0x12E0 JUMP JUMPDEST PUSH2 0xBB6 DUP5 PUSH1 0x3 SLOAD PUSH2 0x1138 JUMP JUMPDEST PUSH1 0x3 SSTORE DUP8 DUP8 MSTORE PUSH1 0x6 DUP6 MSTORE DUP3 DUP8 KECCAK256 PUSH2 0xBCE DUP6 DUP3 SLOAD PUSH2 0x1138 JUMP JUMPDEST SWAP1 SSTORE PUSH2 0x1347 JUMP JUMPDEST DUP6 PUSH32 0x3F2C9D57C068687834F0DE942A9BABB9E5ACAB57D516D3480A3C16EE165A4273 DUP5 DUP4 MLOAD DUP6 DUP2 MSTORE LOG2 MLOAD SWAP1 DUP2 MSTORE LOG3 DUP1 RETURN JUMPDEST DUP3 MLOAD PUSH4 0x162908E3 PUSH1 0xE1 SHL DUP2 MSTORE REVERT JUMPDEST DUP3 MLOAD PUSH4 0x6F8BF18B PUSH1 0xE1 SHL DUP2 MSTORE SWAP1 DUP2 ADD DUP6 SWAP1 MSTORE PUSH1 0x24 SWAP1 REVERT JUMPDEST POP CALLVALUE PUSH2 0x24B JUMPI PUSH1 0x20 CALLDATASIZE PUSH1 0x3 NOT ADD SLT PUSH2 0x24B JUMPI PUSH1 0x20 SWAP2 DUP2 SWAP1 PUSH1 0x1 PUSH1 0x1 PUSH1 0xA0 SHL SUB PUSH2 0xC52 PUSH2 0x1092 JUMP JUMPDEST AND DUP2 MSTORE PUSH1 0x9 DUP5 MSTORE KECCAK256 SLOAD SWAP1 MLOAD SWAP1 DUP2 MSTORE RETURN JUMPDEST POP DUP3 CALLVALUE PUSH2 0x2D6 JUMPI DUP3 PUSH1 0x3 NOT CALLDATASIZE ADD SLT PUSH2 0x2D6 JUMPI PUSH2 0xC7C PUSH2 0x10D2 JUMP JUMPDEST DUP3 SLOAD SWAP1 PUSH1 0xFF DUP3 PUSH1 0xA0 SHR AND ISZERO PUSH2 0xCC2 JUMPI POP PUSH1 0xFF PUSH1 0xA0 SHL NOT AND DUP3 SSTORE MLOAD CALLER DUP2 MSTORE PUSH32 0x5DB9EE0A495BF2E6FF9C91A7834C1BA4FDD244A5E8AA4E537BD38AEAE4B073AA SWAP1 PUSH1 0x20 SWAP1 LOG1 DUP1 RETURN JUMPDEST DUP3 MLOAD PUSH4 0x8DFC202B PUSH1 0xE0 SHL DUP2 MSTORE REVERT JUMPDEST POP CALLVALUE PUSH2 0x24B JUMPI DUP2 PUSH1 0x3 NOT CALLDATASIZE ADD SLT PUSH2 0x24B JUMPI PUSH1 0x20 SWAP1 MLOAD PUSH1 0x12 DUP2 MSTORE RETURN JUMPDEST POP SWAP1 CALLVALUE PUSH2 0x92B JUMPI DUP1 PUSH1 0x3 NOT CALLDATASIZE ADD SLT PUSH2 0x92B JUMPI POP PUSH8 0xFFFFFFFFFFFFFFFF PUSH1 0x20 SWAP3 SLOAD AND SWAP1 MLOAD SWAP1 DUP2 MSTORE RETURN JUMPDEST POP CALLVALUE PUSH2 0x24B JUMPI PUSH1 0x60 CALLDATASIZE PUSH1 0x3 NOT ADD SLT PUSH2 0x24B JUMPI PUSH2 0xD2D PUSH2 0x1092 JUMP JUMPDEST PUSH2 0xD35 PUSH2 0x10AD JUMP JUMPDEST PUSH1 0x44 CALLDATALOAD SWAP2 PUSH8 0xFFFFFFFFFFFFFFFF DUP7 SLOAD AND TIMESTAMP LT PUSH2 0xE27 JUMPI PUSH1 0x1 PUSH1 0x1 PUSH1 0xA0 SHL SUB DUP2 DUP2 AND DUP1 DUP8 MSTORE PUSH1 0x8 PUSH1 0x20 SWAP1 DUP2 MSTORE DUP7 DUP9 KECCAK256 SLOAD SWAP1 SWAP8 SWAP2 SWAP3 SWAP1 PUSH1 0xFF AND ISZERO PUSH2 0xE10 JUMPI DUP5 AND DUP1 DUP3 MSTORE PUSH1 0x8 DUP9 MSTORE PUSH1 0xFF DUP8 DUP4 KECCAK256 SLOAD AND ISZERO PUSH2 0xDFA JUMPI POP PUSH2 0xD8F PUSH2 0x115B JUMP JUMPDEST DUP2 DUP2 MSTORE PUSH1 0x7 DUP8 MSTORE DUP6 DUP2 KECCAK256 CALLER DUP3 MSTORE DUP8 MSTORE DUP6 DUP2 KECCAK256 SLOAD SWAP8 DUP6 DUP10 LT PUSH2 0xDD2 JUMPI POP SWAP5 PUSH2 0x593 SWAP6 PUSH2 0xDBC DUP7 DUP4 SWAP10 SWAP11 PUSH2 0x117C JUMP JUMPDEST SWAP3 DUP2 MSTORE PUSH1 0x7 DUP10 MSTORE DUP2 DUP2 KECCAK256 CALLER DUP3 MSTORE DUP10 MSTORE KECCAK256 SSTORE PUSH2 0x1189 JUMP JUMPDEST PUSH1 0x84 SWAP1 DUP10 DUP8 DUP6 DUP11 MLOAD SWAP4 PUSH4 0x246FB689 PUSH1 0xE2 SHL DUP6 MSTORE DUP5 ADD MSTORE CALLER PUSH1 0x24 DUP5 ADD MSTORE PUSH1 0x44 DUP4 ADD MSTORE PUSH1 0x64 DUP3 ADD MSTORE REVERT JUMPDEST DUP9 PUSH1 0x24 SWAP2 DUP9 MLOAD SWAP2 PUSH4 0x6F8BF18B PUSH1 0xE1 SHL DUP4 MSTORE DUP3 ADD MSTORE REVERT JUMPDEST DUP7 MLOAD PUSH4 0x6F8BF18B PUSH1 0xE1 SHL DUP2 MSTORE DUP1 DUP11 ADD DUP5 SWAP1 MSTORE PUSH1 0x24 SWAP1 REVERT JUMPDEST DUP4 MLOAD PUSH3 0xCCAEC5 PUSH1 0xE6 SHL DUP2 MSTORE DUP7 SWAP1 REVERT JUMPDEST POP CALLVALUE PUSH2 0x24B JUMPI DUP2 PUSH1 0x3 NOT CALLDATASIZE ADD SLT PUSH2 0x24B JUMPI PUSH1 0x20 SWAP1 PUSH1 0x3 SLOAD SWAP1 MLOAD SWAP1 DUP2 MSTORE RETURN JUMPDEST POP DUP3 CALLVALUE PUSH2 0x2D6 JUMPI PUSH1 0x20 CALLDATASIZE PUSH1 0x3 NOT ADD SLT PUSH2 0x2D6 JUMPI DUP1 CALLDATALOAD PUSH8 0xFFFFFFFFFFFFFFFF DUP2 AND DUP1 SWAP2 SUB PUSH2 0xEC1 JUMPI PUSH32 0x88A70B8474359935B2F4983B30CE3659775DD27232C7E6C23A82052F10DA0D5F SWAP3 PUSH1 0x20 SWAP3 PUSH2 0xEA8 PUSH2 0x10D2 JUMP JUMPDEST DUP1 SLOAD PUSH8 0xFFFFFFFFFFFFFFFF NOT AND DUP4 OR SWAP1 SSTORE MLOAD SWAP1 DUP2 MSTORE LOG1 DUP1 RETURN JUMPDEST DUP4 DUP1 REVERT JUMPDEST POP CALLVALUE PUSH2 0x24B JUMPI DUP1 PUSH1 0x3 NOT CALLDATASIZE ADD SLT PUSH2 0x24B JUMPI PUSH1 0x20 SWAP2 DUP2 PUSH2 0xEE2 PUSH2 0x1092 JUMP JUMPDEST SWAP2 PUSH1 0x24 CALLDATALOAD SWAP2 DUP3 SWAP2 CALLER DUP2 MSTORE PUSH1 0x7 DUP8 MSTORE DUP2 DUP2 KECCAK256 SWAP5 PUSH1 0x1 DUP1 PUSH1 0xA0 SHL SUB AND SWAP5 DUP6 DUP3 MSTORE DUP8 MSTORE KECCAK256 SSTORE DUP3 MLOAD SWAP1 DUP2 MSTORE PUSH32 0x8C5BE1E5EBEC7D5BD14F71427D1E84F3DD0314C0F7B2291E5B200AC8C7C3B925 DUP5 CALLER SWAP3 LOG3 MLOAD PUSH1 0x1 DUP2 MSTORE RETURN JUMPDEST SWAP3 SWAP4 SWAP1 POP CALLVALUE PUSH2 0xEC1 JUMPI DUP4 PUSH1 0x3 NOT CALLDATASIZE ADD SLT PUSH2 0xEC1 JUMPI DUP4 PUSH1 0x1 DUP1 SLOAD SWAP2 DUP3 DUP3 SHR SWAP3 DUP3 DUP2 AND DUP1 ISZERO PUSH2 0x1007 JUMPI JUMPDEST PUSH1 0x20 SWAP6 DUP7 DUP7 LT DUP3 EQ PUSH2 0x7F3 JUMPI POP DUP5 DUP9 MSTORE SWAP1 DUP2 ISZERO PUSH2 0xFE5 JUMPI POP PUSH1 0x1 EQ PUSH2 0xF8D JUMPI PUSH2 0x774 DUP7 DUP7 PUSH2 0x76A DUP3 DUP12 SUB DUP4 PUSH2 0x1011 JUMP JUMPDEST SWAP3 SWAP6 POP DUP1 DUP4 MSTORE PUSH32 0xB10E2D527612073B26EECDFD717E6A320CF44B4AFAC2B0732D9FCBE2B7FA0CF6 JUMPDEST DUP3 DUP5 LT PUSH2 0xFD2 JUMPI POP POP POP DUP3 PUSH2 0x774 SWAP5 PUSH2 0x76A SWAP3 DUP3 ADD ADD SWAP5 CODESIZE PUSH2 0x759 JUMP JUMPDEST DUP1 SLOAD DUP7 DUP6 ADD DUP9 ADD MSTORE SWAP3 DUP7 ADD SWAP3 DUP2 ADD PUSH2 0xFB5 JUMP JUMPDEST PUSH1 0xFF NOT AND DUP8 DUP7 ADD MSTORE POP POP POP ISZERO ISZERO PUSH1 0x5 SHL DUP4 ADD ADD SWAP3 POP PUSH2 0x76A DUP3 PUSH2 0x774 CODESIZE PUSH2 0x759 JUMP JUMPDEST SWAP4 PUSH1 0x7F AND SWAP4 PUSH2 0xF5D JUMP JUMPDEST SWAP1 PUSH1 0x1F DUP1 NOT SWAP2 ADD AND DUP2 ADD SWAP1 DUP2 LT PUSH8 0xFFFFFFFFFFFFFFFF DUP3 GT OR PUSH2 0x1033 JUMPI PUSH1 0x40 MSTORE JUMP JUMPDEST PUSH4 0x4E487B71 PUSH1 0xE0 SHL PUSH1 0x0 MSTORE PUSH1 0x41 PUSH1 0x4 MSTORE PUSH1 0x24 PUSH1 0x0 REVERT JUMPDEST PUSH1 0x20 DUP1 DUP3 MSTORE DUP3 MLOAD DUP2 DUP4 ADD DUP2 SWAP1 MSTORE SWAP1 SWAP4 SWAP3 PUSH1 0x0 JUMPDEST DUP3 DUP2 LT PUSH2 0x107E JUMPI POP POP PUSH1 0x40 SWAP3 SWAP4 POP PUSH1 0x0 DUP4 DUP3 DUP5 ADD ADD MSTORE PUSH1 0x1F DUP1 NOT SWAP2 ADD AND ADD ADD SWAP1 JUMP JUMPDEST DUP2 DUP2 ADD DUP7 ADD MLOAD DUP5 DUP3 ADD PUSH1 0x40 ADD MSTORE DUP6 ADD PUSH2 0x105C JUMP JUMPDEST PUSH1 0x4 CALLDATALOAD SWAP1 PUSH1 0x1 PUSH1 0x1 PUSH1 0xA0 SHL SUB DUP3 AND DUP3 SUB PUSH2 0x10A8 JUMPI JUMP JUMPDEST PUSH1 0x0 DUP1 REVERT JUMPDEST PUSH1 0x24 CALLDATALOAD SWAP1 PUSH1 0x1 PUSH1 0x1 PUSH1 0xA0 SHL SUB DUP3 AND DUP3 SUB PUSH2 0x10A8 JUMPI JUMP JUMPDEST PUSH1 0x24 CALLDATALOAD SWAP1 DUP2 ISZERO ISZERO DUP3 SUB PUSH2 0x10A8 JUMPI JUMP JUMPDEST PUSH1 0x0 SLOAD PUSH1 0x1 PUSH1 0x1 PUSH1 0xA0 SHL SUB AND CALLER SUB PUSH2 0x10E6 JUMPI JUMP JUMPDEST PUSH1 0x40 MLOAD PUSH4 0x118CDAA7 PUSH1 0xE0 SHL DUP2 MSTORE CALLER PUSH1 0x4 DUP3 ADD MSTORE PUSH1 0x24 SWAP1 REVERT JUMPDEST SWAP2 SWAP1 DUP2 LT ISZERO PUSH2 0x110E JUMPI PUSH1 0x5 SHL ADD SWAP1 JUMP JUMPDEST PUSH4 0x4E487B71 PUSH1 0xE0 SHL PUSH1 0x0 MSTORE PUSH1 0x32 PUSH1 0x4 MSTORE PUSH1 0x24 PUSH1 0x0 REVERT JUMPDEST CALLDATALOAD PUSH1 0x1 PUSH1 0x1 PUSH1 0xA0 SHL SUB DUP2 AND DUP2 SUB PUSH2 0x10A8 JUMPI SWAP1 JUMP JUMPDEST SWAP2 SWAP1 DUP3 ADD DUP1 SWAP3 GT PUSH2 0x1145 JUMPI JUMP JUMPDEST PUSH4 0x4E487B71 PUSH1 0xE0 SHL PUSH1 0x0 MSTORE PUSH1 0x11 PUSH1 0x4 MSTORE PUSH1 0x24 PUSH1 0x0 REVERT JUMPDEST PUSH1 0xFF PUSH1 0x0 SLOAD PUSH1 0xA0 SHR AND PUSH2 0x116A JUMPI JUMP JUMPDEST PUSH1 0x40 MLOAD PUSH4 0xD93C0665 PUSH1 0xE0 SHL DUP2 MSTORE PUSH1 0x4 SWAP1 REVERT JUMPDEST SWAP2 SWAP1 DUP3 SUB SWAP2 DUP3 GT PUSH2 0x1145 JUMPI JUMP JUMPDEST PUSH1 0x1 PUSH1 0x1 PUSH1 0xA0 SHL SUB DUP1 DUP4 AND SWAP4 SWAP2 SWAP3 SWAP1 DUP5 ISZERO PUSH2 0x1279 JUMPI DUP3 ISZERO PUSH2 0x1267 JUMPI DUP4 AND SWAP3 PUSH1 0x0 DUP5 DUP2 MSTORE PUSH1 0x6 PUSH1 0x20 MSTORE PUSH1 0x40 DUP2 KECCAK256 SLOAD DUP5 DUP2 LT PUSH2 0x1237 JUMPI POP PUSH1 0x20 SWAP3 PUSH2 0x1229 DUP4 PUSH1 0x40 PUSH2 0x122E SWAP5 PUSH2 0x11F6 PUSH32 0xDDF252AD1BE2C89B69C2B068FC378DAA952BA7F163C4A11628F55A4DF523B3EF SWAP10 SWAP8 PUSH2 0x12E0 JUMP JUMPDEST PUSH2 0x11FF DUP6 PUSH2 0x12E0 JUMP JUMPDEST DUP10 DUP2 MSTORE PUSH1 0x6 DUP9 MSTORE DUP2 DUP2 KECCAK256 PUSH2 0x1214 DUP9 DUP3 SLOAD PUSH2 0x117C JUMP JUMPDEST SWAP1 SSTORE DUP11 DUP2 MSTORE PUSH1 0x6 DUP9 MSTORE KECCAK256 PUSH2 0xBCE DUP7 DUP3 SLOAD PUSH2 0x1138 JUMP JUMPDEST PUSH2 0x1347 JUMP JUMPDEST PUSH1 0x40 MLOAD SWAP1 DUP2 MSTORE LOG3 JUMP JUMPDEST PUSH1 0x40 MLOAD PUSH4 0xDB42144D PUSH1 0xE0 SHL DUP2 MSTORE PUSH1 0x1 PUSH1 0x1 PUSH1 0xA0 SHL SUB DUP5 AND PUSH1 0x4 DUP3 ADD MSTORE PUSH1 0x24 DUP2 ADD DUP7 SWAP1 MSTORE PUSH1 0x44 DUP2 ADD SWAP2 SWAP1 SWAP2 MSTORE PUSH1 0x64 SWAP1 REVERT JUMPDEST PUSH1 0x40 MLOAD PUSH4 0x162908E3 PUSH1 0xE1 SHL DUP2 MSTORE PUSH1 0x4 SWAP1 REVERT JUMPDEST PUSH1 0x40 MLOAD PUSH4 0xE6C4247B PUSH1 0xE0 SHL DUP2 MSTORE PUSH1 0x4 SWAP1 REVERT JUMPDEST DUP2 DUP2 MUL SWAP3 SWAP2 DUP2 ISZERO SWAP2 DUP5 DIV EQ OR ISZERO PUSH2 0x1145 JUMPI JUMP JUMPDEST PUSH32 0x9B779B17422D0DF92223018B32B4D1FA46E071723D6817E2486D003BECC55F00 PUSH1 0x2 DUP2 SLOAD EQ PUSH2 0x12CE JUMPI PUSH1 0x2 SWAP1 SSTORE JUMP JUMPDEST PUSH1 0x40 MLOAD PUSH4 0x3EE5AEB5 PUSH1 0xE0 SHL DUP2 MSTORE PUSH1 0x4 SWAP1 REVERT JUMPDEST PUSH1 0x1 DUP1 PUSH1 0xA0 SHL SUB AND PUSH1 0x40 PUSH1 0x0 DUP3 DUP2 MSTORE PUSH1 0x6 PUSH1 0x20 MSTORE PUSH8 0xDE0B6B3A7640000 PUSH2 0x130D DUP4 DUP4 KECCAK256 SLOAD PUSH1 0xB SLOAD SWAP1 PUSH2 0x128B JUMP JUMPDEST DIV SWAP3 DUP1 DUP3 MSTORE PUSH1 0xA PUSH1 0x20 MSTORE PUSH2 0x1324 DUP4 DUP4 KECCAK256 SLOAD DUP6 PUSH2 0x117C JUMP JUMPDEST DUP2 DUP4 MSTORE PUSH1 0x9 PUSH1 0x20 MSTORE PUSH2 0x133A DUP5 DUP5 KECCAK256 SWAP2 DUP3 SLOAD PUSH2 0x1138 JUMP JUMPDEST SWAP1 SSTORE DUP2 MSTORE PUSH1 0xA PUSH1 0x20 MSTORE KECCAK256 SSTORE JUMP JUMPDEST PUSH1 0x1 PUSH1 0x1 PUSH1 0xA0 SHL SUB AND PUSH1 0x0 DUP2 DUP2 MSTORE PUSH1 0x6 PUSH1 0x20 MSTORE PUSH1 0x40 SWAP1 KECCAK256 SLOAD PUSH1 0xB SLOAD PUSH8 0xDE0B6B3A7640000 SWAP2 PUSH2 0x1376 SWAP2 SWAP1 PUSH2 0x128B JUMP JUMPDEST DIV SWAP1 PUSH1 0x0 MSTORE PUSH1 0xA PUSH1 0x20 MSTORE PUSH1 0x40 PUSH1 0x0 KECCAK256 SSTORE JUMP INVALID LOG2 PUSH5 0x6970667358 0x22 SLT KECCAK256 0xC9 PREVRANDAO PUSH15 0xF2FAE82E414F3B05C04194E9007F81 0xDD BLOCKHASH CALLVALUE 0xB9 0xEC SDIV 0x2C 0x4B SWAP7 SWAP6 PUSH12 0xBAA5AC64736F6C6343000814 STOP CALLER "},"methodIdentifiers":{"allowance(address,address)":"dd62ed3e","approve(address,uint256)":"095ea7b3","balanceOf(address)":"70a08231","batchSetWhitelist(address[],bool)":"a095e8f9","burn(uint256)":"42966c68","claimDividend()":"f0fc6bca","decimals()":"313ce567","distributeDividend()":"f6ef8f0a","dividendCredit(address)":"406bc108","dividendDebit(address)":"c5f96572","dividendPerToken()":"77ec0feb","lockupEndTime()":"266d7bda","mint(address,uint256)":"40c10f19","name()":"06fdde03","owner()":"8da5cb5b","pause()":"8456cb59","paused()":"5c975abb","pendingDividend(address)":"deedd49c","renounceOwnership()":"715018a6","setLockupEndTime(uint64)":"0a26c145","setWhitelist(address,bool)":"53d6fd59","symbol()":"95d89b41","totalDividendsDistributed()":"85a6b3ae","totalSupply()":"18160ddd","transfer(address,uint256)":"a9059cbb","transferFrom(address,address,uint256)":"23b872dd","transferOwnership(address)":"f2fde38b","unpause()":"3f4ba83a","whitelisted(address)":"d936547e"}}}}}