{"src/SubcontractPayment.sol":{"SubcontractPayment":{"abi":[{"inputs":[],"stateMutability":"nonpayable","type":"constructor"},{"inputs":[{"internalType":"uint256","name":"id","type":"uint256"},{"internalType":"uint256","name":"requested","type":"uint256"},{"internalType":"uint256","name":"remaining","type":"uint256"}],"name":"AmountExceedRemaining","type":"error"},{"inputs":[{"internalType":"uint256","name":"id","type":"uint256"}],"name":"ClaimNotFound","type":"error"},{"inputs":[],"name":"EnforcedPause","type":"error"},{"inputs":[],"name":"ExpectedPause","type":"error"},{"inputs":[],"name":"InsufficientFunds","type":"error"},{"inputs":[],"name":"InvalidAddress","type":"error"},{"inputs":[],"name":"InvalidAmount","type":"error"},{"inputs":[],"name":"InvalidDates","type":"error"},{"inputs":[{"internalType":"uint256","name":"id","type":"uint256"}],"name":"InvalidStatus","type":"error"},{"inputs":[{"internalType":"address","name":"owner","type":"address"}],"name":"OwnableInvalidOwner","type":"error"},{"inputs":[{"internalType":"address","name":"account","type":"address"}],"name":"OwnableUnauthorizedAccount","type":"error"},{"inputs":[],"name":"ReentrancyGuardReentrantCall","type":"error"},{"inputs":[],"name":"RetentionTooHigh","type":"error"},{"inputs":[{"internalType":"uint256","name":"id","type":"uint256"}],"name":"SubcontractNotFound","type":"error"},{"inputs":[],"name":"TransferFailed","type":"error"},{"inputs":[],"name":"Unauthorized","type":"error"},{"anonymous":false,"inputs":[{"indexed":true,"internalType":"uint256","name":"claimId","type":"uint256"},{"indexed":true,"internalType":"uint256","name":"subcontractId","type":"uint256"},{"indexed":true,"internalType":"address","name":"subcontractor","type":"address"},{"indexed":false,"internalType":"uint256","name":"netAmount","type":"uint256"},{"indexed":false,"internalType":"uint256","name":"retention","type":"uint256"}],"name":"DirectPaymentReleased","type":"event"},{"anonymous":false,"inputs":[{"indexed":true,"internalType":"address","name":"previousOwner","type":"address"},{"indexed":true,"internalType":"address","name":"newOwner","type":"address"}],"name":"OwnershipTransferred","type":"event"},{"anonymous":false,"inputs":[{"indexed":false,"internalType":"address","name":"account","type":"address"}],"name":"Paused","type":"event"},{"anonymous":false,"inputs":[{"indexed":true,"internalType":"uint256","name":"claimId","type":"uint256"},{"indexed":true,"internalType":"uint256","name":"subcontractId","type":"uint256"},{"indexed":false,"internalType":"uint256","name":"amount","type":"uint256"}],"name":"PaymentClaimed","type":"event"},{"anonymous":false,"inputs":[{"indexed":true,"internalType":"uint256","name":"subcontractId","type":"uint256"},{"indexed":true,"internalType":"address","name":"subcontractor","type":"address"},{"indexed":false,"internalType":"uint256","name":"amount","type":"uint256"}],"name":"RetentionReleased","type":"event"},{"anonymous":false,"inputs":[{"indexed":true,"internalType":"uint256","name":"id","type":"uint256"}],"name":"SubcontractApproved","type":"event"},{"anonymous":false,"inputs":[{"indexed":true,"internalType":"uint256","name":"id","type":"uint256"}],"name":"SubcontractCompleted","type":"event"},{"anonymous":false,"inputs":[{"indexed":true,"internalType":"uint256","name":"id","type":"uint256"}],"name":"SubcontractDisputed","type":"event"},{"anonymous":false,"inputs":[{"indexed":true,"internalType":"uint256","name":"id","type":"uint256"},{"indexed":true,"internalType":"address","name":"generalContractor","type":"address"},{"indexed":true,"internalType":"address","name":"subcontractor","type":"address"},{"indexed":false,"internalType":"uint256","name":"totalAmount","type":"uint256"}],"name":"SubcontractRegistered","type":"event"},{"anonymous":false,"inputs":[{"indexed":false,"internalType":"address","name":"account","type":"address"}],"name":"Unpaused","type":"event"},{"inputs":[],"name":"BPS_DENOMINATOR","outputs":[{"internalType":"uint16","name":"","type":"uint16"}],"stateMutability":"view","type":"function"},{"inputs":[],"name":"MAX_RETENTION_RATE","outputs":[{"internalType":"uint16","name":"","type":"uint16"}],"stateMutability":"view","type":"function"},{"inputs":[{"internalType":"uint256","name":"_id","type":"uint256"}],"name":"approveSubcontract","outputs":[],"stateMutability":"nonpayable","type":"function"},{"inputs":[{"internalType":"uint256","name":"_subcontractId","type":"uint256"},{"internalType":"uint256","name":"_amount","type":"uint256"},{"internalType":"string","name":"_workDescription","type":"string"}],"name":"claimPayment","outputs":[{"internalType":"uint256","name":"claimId","type":"uint256"}],"stateMutability":"nonpayable","type":"function"},{"inputs":[{"internalType":"uint256","name":"","type":"uint256"}],"name":"claims","outputs":[{"internalType":"uint256","name":"subcontractId","type":"uint256"},{"internalType":"uint256","name":"amount","type":"uint256"},{"internalType":"string","name":"workDescription","type":"string"},{"internalType":"uint64","name":"claimDate","type":"uint64"},{"internalType":"enum SubcontractPayment.ClaimStatus","name":"status","type":"uint8"}],"stateMutability":"view","type":"function"},{"inputs":[{"internalType":"uint256","name":"_id","type":"uint256"}],"name":"completeSubcontract","outputs":[],"stateMutability":"nonpayable","type":"function"},{"inputs":[{"internalType":"uint256","name":"_id","type":"uint256"}],"name":"disputeSubcontract","outputs":[],"stateMutability":"nonpayable","type":"function"},{"inputs":[],"name":"nextClaimId","outputs":[{"internalType":"uint256","name":"","type":"uint256"}],"stateMutability":"view","type":"function"},{"inputs":[],"name":"nextSubcontractId","outputs":[{"internalType":"uint256","name":"","type":"uint256"}],"stateMutability":"view","type":"function"},{"inputs":[],"name":"owner","outputs":[{"internalType":"address","name":"","type":"address"}],"stateMutability":"view","type":"function"},{"inputs":[],"name":"pause","outputs":[],"stateMutability":"nonpayable","type":"function"},{"inputs":[],"name":"paused","outputs":[{"internalType":"bool","name":"","type":"bool"}],"stateMutability":"view","type":"function"},{"inputs":[{"internalType":"address","name":"_subcontractor","type":"address"},{"internalType":"uint256","name":"_totalAmount","type":"uint256"},{"internalType":"uint256","name":"_retentionRate","type":"uint256"},{"internalType":"uint64","name":"_startDate","type":"uint64"},{"internalType":"uint64","name":"_endDate","type":"uint64"}],"name":"registerSubcontract","outputs":[{"internalType":"uint256","name":"subcontractId","type":"uint256"}],"stateMutability":"nonpayable","type":"function"},{"inputs":[{"internalType":"uint256","name":"_claimId","type":"uint256"}],"name":"rejectClaim","outputs":[],"stateMutability":"nonpayable","type":"function"},{"inputs":[{"internalType":"uint256","name":"_claimId","type":"uint256"}],"name":"releaseDirectPayment","outputs":[],"stateMutability":"payable","type":"function"},{"inputs":[{"internalType":"uint256","name":"_subcontractId","type":"uint256"}],"name":"releaseRetention","outputs":[],"stateMutability":"payable","type":"function"},{"inputs":[],"name":"renounceOwnership","outputs":[],"stateMutability":"nonpayable","type":"function"},{"inputs":[{"internalType":"uint256","name":"","type":"uint256"}],"name":"retentionBalance","outputs":[{"internalType":"uint256","name":"","type":"uint256"}],"stateMutability":"view","type":"function"},{"inputs":[{"internalType":"uint256","name":"","type":"uint256"}],"name":"subcontracts","outputs":[{"internalType":"address","name":"generalContractor","type":"address"},{"internalType":"address","name":"subcontractor","type":"address"},{"internalType":"uint256","name":"totalAmount","type":"uint256"},{"internalType":"uint256","name":"paidAmount","type":"uint256"},{"internalType":"uint256","name":"retentionRate","type":"uint256"},{"internalType":"uint64","name":"startDate","type":"uint64"},{"internalType":"uint64","name":"endDate","type":"uint64"},{"internalType":"enum SubcontractPayment.SubcontractStatus","name":"status","type":"uint8"}],"stateMutability":"view","type":"function"},{"inputs":[{"internalType":"address","name":"newOwner","type":"address"}],"name":"transferOwnership","outputs":[],"stateMutability":"nonpayable","type":"function"},{"inputs":[],"name":"unpause","outputs":[],"stateMutability":"nonpayable","type":"function"}],"evm":{"bytecode":{"linkReferences":{},"object":"6080806040523461009e5733156100885760008054336001600160a01b03198216811783556040519290916001600160a01b0316907f8be0079c531659141344cd1fd0a4f28419497f9722a3daafe3b4186f6b6457e09080a360017f9b779b17422d0df92223018b32b4d1fa46e071723d6817e2486d003becc55f005561126190816100a48239f35b631e4fbdf760e01b815260006004820152602490fd5b600080fdfe6080604052600436101561001257600080fd5b60003560e01c80631c4964be14610cc15780632034110114610c4d57806333556de514610c2157806335dc63ff14610c045780633f4ba83a14610b925780634288f93714610ae65780635c975abb14610ac0578063715018a614610a67578063780230371461095e5780638456cb59146108fc5780638da5cb5b146108d3578063984d5e2314610838578063a0021cf11461081a578063a888c2cd146106c1578063aec7f545146104f0578063b4acfc4a146102eb578063bf7c2d83146102cd578063c46017a414610259578063c9c69450146101b3578063e1a45218146101965763f2fde38b1461010357600080fd5b346101915760203660031901126101915761011c6110ad565b6101246110c3565b6001600160a01b0390811690811561017857600054826bffffffffffffffffffffffff60a01b821617600055167f8be0079c531659141344cd1fd0a4f28419497f9722a3daafe3b4186f6b6457e0600080a3005b604051631e4fbdf760e01b815260006004820152602490fd5b600080fd5b346101915760003660031901126101915760206040516127108152f35b34610191576020366003190112610191576004356101cf6110c3565b60056101da826111c7565b01805460ff8160801c1660068110156102435760020361022a5760ff60801b1916600360801b1790557f1da7a13b2292c7a1502e32bc2ee1a16d05dd3320bd643864220f3f04301ddc2d600080a2005b604051631961fd9360e11b815260048101849052602490fd5b634e487b7160e01b600052602160045260246000fd5b34610191576020366003190112610191576004356102756110c3565b6005610280826111c7565b01805460ff8160801c1660068110156102435761022a5760ff60801b1916600160801b1790557fc4b242f5264f8a565694a739ba5bea51b0e5de7771cd34d39edcec257de85ce4600080a2005b34610191576000366003190112610191576020600154604051908152f35b346101915760a0366003190112610191576103046110ad565b60443567ffffffffffffffff6024356064358281169081900361019157608435838116809103610191576103366110fe565b6001600160a01b039586169384156104de5783156104cc57828211156104ba576107d086116104a8576001549561036c876110ef565b600155604051610100810191818310848411176104925760009960059360405233835260208301898152604084019089825260608501928d84526080860194855260a08601998a5260c0860198895260e086019d8e528c6000526003602052806040600020965116906bffffffffffffffffffffffff60a01b9182885416178755600187019251169082541617905551600284015551600383015551600482015501925116956fffffffffffffffff00000000000000008354925160401b1690519660068810156102435760209760ff60801b9060801b169270ffffffffffffffffffffffffffffffffff19161717179055604051908152827f37cd290f96da38bfc518e27a36ecd11675b2e30f0c7241c3f43ca3f7bb2c371a853393a4604051908152f35b634e487b7160e01b600052604160045260246000fd5b604051632c53f9a960e11b8152600490fd5b60405163364dd21b60e21b8152600490fd5b60405163162908e360e11b8152600490fd5b60405163e6c4247b60e01b8152600490fd5b6020366003190112610191576004356105076110c3565b61050f611185565b6105176110fe565b610520816111f9565b90600382019081549260ff8460401c166004811015610243576106a85761054781546111c7565b93600182015494600481015480870290878204148715171561069257612710900495610573878261111f565b95863410610680576803000000000000000060019460ff60401b19161790556105a160038301918254611148565b90558254600052600560205260406000206105bd878254611148565b9055019260018060a01b0391600080808085878a54165af16105dd611155565b501561066e57813411610647575b907f9684925264666113d8c99a280d237950e071c60554d17b5b81e661990652e74292604092549554169582519182526020820152a460017f9b779b17422d0df92223018b32b4d1fa46e071723d6817e2486d003becc55f0055005b906000808080610657853461111f565b335af1610662611155565b501561066e57906105eb565b6040516312171d8360e31b8152600490fd5b60405163356680b760e01b8152600490fd5b634e487b7160e01b600052601160045260246000fd5b604051631961fd9360e11b815260048101839052602490fd5b3461019157602080600319360112610191576004356000526004815260406000209081549160019182820154916002810160405194859160009181549161070783611051565b928386528783821691826000146107f45750506001146107b2575b5050506003929161073491038661108b565b01549060ff8260401c16926040519586528186015260a060408601528351938460a087015260005b85811061079e575050600085850160c001525067ffffffffffffffff1660608401526004811015610243576080830152601f01601f1916810181900360c00190f35b81810183015187820160c00152820161075c565b86935060009291925282600020916000925b8284106107dc57505050820101816107346003610722565b8054848b0186015289955087949093019281016107c4565b60ff19168782015293151560051b86019093019350849250610734915060039050610722565b34610191576000366003190112610191576020600254604051908152f35b34610191576020366003190112610191576004356000526003602052604060002060018060a01b038082541690600183015416916002810154906003810154600560048301549201549260ff8460801c1695604051958652602086015260408501526060840152608083015267ffffffffffffffff9081811660a084015260401c1660c08201526006821015610243576101009160e0820152f35b34610191576000366003190112610191576000546040516001600160a01b039091168152602090f35b34610191576000366003190112610191576109156110c3565b61091d6110fe565b6000805460ff60a01b1916600160a01b1790556040513381527f62e78cea01bee320cd4e420270b5ea74000d11b0c9f74754ebdbfc544b05a25890602090a1005b6020366003190112610191576004356109756110c3565b61097d611185565b610986816111c7565b908060005260056020526040600020549182156104cc57816000526005602052600060408120558234106106805760010160018060a01b0390600080808087868654165af16109d3611155565b501561066e57833411610a36575b7f768f20c3678ce21009970cf61f3485842971ca8d9f91b7dc7597689b26edb79b91602091541693604051908152a360017f9b779b17422d0df92223018b32b4d1fa46e071723d6817e2486d003becc55f0055005b6000808080610a45883461111f565b335af1610a50611155565b506109e1576040516312171d8360e31b8152600490fd5b3461019157600036600319011261019157610a806110c3565b600080546001600160a01b0319811682556001600160a01b03167f8be0079c531659141344cd1fd0a4f28419497f9722a3daafe3b4186f6b6457e08280a3005b3461019157600036600319011261019157602060ff60005460a01c166040519015158152f35b3461019157602036600319011261019157600435610b03816111c7565b8054336001600160a01b0391821614159081610b80575b81610b71575b50610b6057600501805460ff60801b1916600160821b1790557fbe7dfd27c273525e7d2e5355324e18149f6e9bc060fbc492714133c75a90c12d600080a2005b6040516282b42960e81b8152600490fd5b90506000541633141583610b20565b80915060018301541633141590610b1a565b3461019157600036600319011261019157610bab6110c3565b60005460ff8160a01c1615610bf25760ff60a01b19166000556040513381527f5db9ee0a495bf2e6ff9c91a7834c1ba4fdd244a5e8aa4e537bd38aeae4b073aa90602090a1005b604051638dfc202b60e01b8152600490fd5b346101915760003660031901126101915760206040516107d08152f35b346101915760203660031901126101915760043560005260056020526020604060002054604051908152f35b3461019157602036600319011261019157600435610c696110c3565b6003610c74826111f9565b019081549060ff8260401c16600481101561024357610ca9575068ff0000000000000000191668020000000000000000179055005b60249060405190631961fd9360e11b82526004820152fd5b346101915760603660031901126101915767ffffffffffffffff60443511610191573660236044350112156101915767ffffffffffffffff6044356004013511610191573660246044356004013560443501011161019157610d216110fe565b610d2c6004356111c7565b60018101546001600160a01b03163303610b605760ff600582015460801c1660068110156102435760018114159081611045575b5061102c57610d78600282015460038301549061111f565b80602435116110045750600254610d8e816110ef565b60025560405160a0810181811067ffffffffffffffff821117610492576040526004358152602081016024358152610dcb6044356004013561112c565b610dd8604051918261108b565b60443560048101358083529060240160208301376000602060443560040135830101526040830190815267ffffffffffffffff4216606084015260006080840152836000526004602052604060002091835183555160018301555180519067ffffffffffffffff821161049257610e526002840154611051565b601f8111610fbd575b50602090601f8311600114610f4d57600393929160009183610f42575b50508160011b9160001990851b1c19161760028201555b019067ffffffffffffffff6060820151166080835492015160048110156102435760ff60401b9060401b169168ffffffffffffffffff19161717905560058201549160ff8360801c1692600684101561024357600160209414610f27575b50506040516024358152817f9575a289a9bfc7a5fd845ab0763b8d498955692c0aa7fec362de9bb9d27afbaa8460043593a3604051908152f35b60ff60801b1916600160811b17600591909101558280610eed565b015190508780610e78565b90601f198316916002850160005260206000209260005b818110610fa55750916001939185600397969410610f8d575b505050811b016002820155610e8f565b015160001983871b60f8161c19169055878080610f7d565b92936020600181928786015181550195019301610f64565b600284016000526020600020601f840160051c810160208510610ffd575b601f830160051c82018110610ff1575050610e5b565b60008155600101610fdb565b5080610fdb565b606490604051906373445d6360e01b8252600435600483015260243560248301526044820152fd5b6024604051631961fd9360e11b81526004356004820152fd5b60029150141582610d60565b90600182811c92168015611081575b602083101461106b57565b634e487b7160e01b600052602260045260246000fd5b91607f1691611060565b90601f8019910116810190811067ffffffffffffffff82111761049257604052565b600435906001600160a01b038216820361019157565b6000546001600160a01b031633036110d757565b60405163118cdaa760e01b8152336004820152602490fd5b60001981146106925760010190565b60ff60005460a01c1661110d57565b60405163d93c066560e01b8152600490fd5b9190820391821161069257565b67ffffffffffffffff811161049257601f01601f191660200190565b9190820180921161069257565b3d15611180573d906111668261112c565b91611174604051938461108b565b82523d6000602084013e565b606090565b7f9b779b17422d0df92223018b32b4d1fa46e071723d6817e2486d003becc55f0060028154146111b55760029055565b604051633ee5aeb560e01b8152600490fd5b6001548110156111e1576000526003602052604060002090565b602490604051906328eb96e760e11b82526004820152fd5b600254811015611213576000526004602052604060002090565b60249060405190633373e46160e01b82526004820152fdfea2646970667358221220a500ce273047b08d1c0a6d0ecb86ba28519ee7d889616b3673b614d3c6d904b164736f6c63430008140033","opcodes":"PUSH1 0x80 DUP1 PUSH1 0x40 MSTORE CALLVALUE PUSH2 0x9E JUMPI CALLER ISZERO PUSH2 0x88 JUMPI PUSH1 0x0 DUP1 SLOAD CALLER PUSH1 0x1 PUSH1 0x1 PUSH1 0xA0 SHL SUB NOT DUP3 AND DUP2 OR DUP4 SSTORE PUSH1 0x40 MLOAD SWAP3 SWAP1 SWAP2 PUSH1 0x1 PUSH1 0x1 PUSH1 0xA0 SHL SUB AND SWAP1 PUSH32 0x8BE0079C531659141344CD1FD0A4F28419497F9722A3DAAFE3B4186F6B6457E0 SWAP1 DUP1 LOG3 PUSH1 0x1 PUSH32 0x9B779B17422D0DF92223018B32B4D1FA46E071723D6817E2486D003BECC55F00 SSTORE PUSH2 0x1261 SWAP1 DUP2 PUSH2 0xA4 DUP3 CODECOPY RETURN JUMPDEST PUSH4 0x1E4FBDF7 PUSH1 0xE0 SHL DUP2 MSTORE PUSH1 0x0 PUSH1 0x4 DUP3 ADD MSTORE PUSH1 0x24 SWAP1 REVERT JUMPDEST PUSH1 0x0 DUP1 REVERT INVALID PUSH1 0x80 PUSH1 0x40 MSTORE PUSH1 0x4 CALLDATASIZE LT ISZERO PUSH2 0x12 JUMPI PUSH1 0x0 DUP1 REVERT JUMPDEST PUSH1 0x0 CALLDATALOAD PUSH1 0xE0 SHR DUP1 PUSH4 0x1C4964BE EQ PUSH2 0xCC1 JUMPI DUP1 PUSH4 0x20341101 EQ PUSH2 0xC4D JUMPI DUP1 PUSH4 0x33556DE5 EQ PUSH2 0xC21 JUMPI DUP1 PUSH4 0x35DC63FF EQ PUSH2 0xC04 JUMPI DUP1 PUSH4 0x3F4BA83A EQ PUSH2 0xB92 JUMPI DUP1 PUSH4 0x4288F937 EQ PUSH2 0xAE6 JUMPI DUP1 PUSH4 0x5C975ABB EQ PUSH2 0xAC0 JUMPI DUP1 PUSH4 0x715018A6 EQ PUSH2 0xA67 JUMPI DUP1 PUSH4 0x78023037 EQ PUSH2 0x95E JUMPI DUP1 PUSH4 0x8456CB59 EQ PUSH2 0x8FC JUMPI DUP1 PUSH4 0x8DA5CB5B EQ PUSH2 0x8D3 JUMPI DUP1 PUSH4 0x984D5E23 EQ PUSH2 0x838 JUMPI DUP1 PUSH4 0xA0021CF1 EQ PUSH2 0x81A JUMPI DUP1 PUSH4 0xA888C2CD EQ PUSH2 0x6C1 JUMPI DUP1 PUSH4 0xAEC7F545 EQ PUSH2 0x4F0 JUMPI DUP1 PUSH4 0xB4ACFC4A EQ PUSH2 0x2EB JUMPI DUP1 PUSH4 0xBF7C2D83 EQ PUSH2 0x2CD JUMPI DUP1 PUSH4 0xC46017A4 EQ PUSH2 0x259 JUMPI DUP1 PUSH4 0xC9C69450 EQ PUSH2 0x1B3 JUMPI DUP1 PUSH4 0xE1A45218 EQ PUSH2 0x196 JUMPI PUSH4 0xF2FDE38B EQ PUSH2 0x103 JUMPI PUSH1 0x0 DUP1 REVERT JUMPDEST CALLVALUE PUSH2 0x191 JUMPI PUSH1 0x20 CALLDATASIZE PUSH1 0x3 NOT ADD SLT PUSH2 0x191 JUMPI PUSH2 0x11C PUSH2 0x10AD JUMP JUMPDEST PUSH2 0x124 PUSH2 0x10C3 JUMP JUMPDEST PUSH1 0x1 PUSH1 0x1 PUSH1 0xA0 SHL SUB SWAP1 DUP2 AND SWAP1 DUP2 ISZERO PUSH2 0x178 JUMPI PUSH1 0x0 SLOAD DUP3 PUSH12 0xFFFFFFFFFFFFFFFFFFFFFFFF PUSH1 0xA0 SHL DUP3 AND OR PUSH1 0x0 SSTORE AND PUSH32 0x8BE0079C531659141344CD1FD0A4F28419497F9722A3DAAFE3B4186F6B6457E0 PUSH1 0x0 DUP1 LOG3 STOP JUMPDEST PUSH1 0x40 MLOAD PUSH4 0x1E4FBDF7 PUSH1 0xE0 SHL DUP2 MSTORE PUSH1 0x0 PUSH1 0x4 DUP3 ADD MSTORE PUSH1 0x24 SWAP1 REVERT JUMPDEST PUSH1 0x0 DUP1 REVERT JUMPDEST CALLVALUE PUSH2 0x191 JUMPI PUSH1 0x0 CALLDATASIZE PUSH1 0x3 NOT ADD SLT PUSH2 0x191 JUMPI PUSH1 0x20 PUSH1 0x40 MLOAD PUSH2 0x2710 DUP2 MSTORE RETURN JUMPDEST CALLVALUE PUSH2 0x191 JUMPI PUSH1 0x20 CALLDATASIZE PUSH1 0x3 NOT ADD SLT PUSH2 0x191 JUMPI PUSH1 0x4 CALLDATALOAD PUSH2 0x1CF PUSH2 0x10C3 JUMP JUMPDEST PUSH1 0x5 PUSH2 0x1DA DUP3 PUSH2 0x11C7 JUMP JUMPDEST ADD DUP1 SLOAD PUSH1 0xFF DUP2 PUSH1 0x80 SHR AND PUSH1 0x6 DUP2 LT ISZERO PUSH2 0x243 JUMPI PUSH1 0x2 SUB PUSH2 0x22A JUMPI PUSH1 0xFF PUSH1 0x80 SHL NOT AND PUSH1 0x3 PUSH1 0x80 SHL OR SWAP1 SSTORE PUSH32 0x1DA7A13B2292C7A1502E32BC2EE1A16D05DD3320BD643864220F3F04301DDC2D PUSH1 0x0 DUP1 LOG2 STOP JUMPDEST PUSH1 0x40 MLOAD PUSH4 0x1961FD93 PUSH1 0xE1 SHL DUP2 MSTORE PUSH1 0x4 DUP2 ADD DUP5 SWAP1 MSTORE PUSH1 0x24 SWAP1 REVERT JUMPDEST PUSH4 0x4E487B71 PUSH1 0xE0 SHL PUSH1 0x0 MSTORE PUSH1 0x21 PUSH1 0x4 MSTORE PUSH1 0x24 PUSH1 0x0 REVERT JUMPDEST CALLVALUE PUSH2 0x191 JUMPI PUSH1 0x20 CALLDATASIZE PUSH1 0x3 NOT ADD SLT PUSH2 0x191 JUMPI PUSH1 0x4 CALLDATALOAD PUSH2 0x275 PUSH2 0x10C3 JUMP JUMPDEST PUSH1 0x5 PUSH2 0x280 DUP3 PUSH2 0x11C7 JUMP JUMPDEST ADD DUP1 SLOAD PUSH1 0xFF DUP2 PUSH1 0x80 SHR AND PUSH1 0x6 DUP2 LT ISZERO PUSH2 0x243 JUMPI PUSH2 0x22A JUMPI PUSH1 0xFF PUSH1 0x80 SHL NOT AND PUSH1 0x1 PUSH1 0x80 SHL OR SWAP1 SSTORE PUSH32 0xC4B242F5264F8A565694A739BA5BEA51B0E5DE7771CD34D39EDCEC257DE85CE4 PUSH1 0x0 DUP1 LOG2 STOP JUMPDEST CALLVALUE PUSH2 0x191 JUMPI PUSH1 0x0 CALLDATASIZE PUSH1 0x3 NOT ADD SLT PUSH2 0x191 JUMPI PUSH1 0x20 PUSH1 0x1 SLOAD PUSH1 0x40 MLOAD SWAP1 DUP2 MSTORE RETURN JUMPDEST CALLVALUE PUSH2 0x191 JUMPI PUSH1 0xA0 CALLDATASIZE PUSH1 0x3 NOT ADD SLT PUSH2 0x191 JUMPI PUSH2 0x304 PUSH2 0x10AD JUMP JUMPDEST PUSH1 0x44 CALLDATALOAD PUSH8 0xFFFFFFFFFFFFFFFF PUSH1 0x24 CALLDATALOAD PUSH1 0x64 CALLDATALOAD DUP3 DUP2 AND SWAP1 DUP2 SWAP1 SUB PUSH2 0x191 JUMPI PUSH1 0x84 CALLDATALOAD DUP4 DUP2 AND DUP1 SWAP2 SUB PUSH2 0x191 JUMPI PUSH2 0x336 PUSH2 0x10FE JUMP JUMPDEST PUSH1 0x1 PUSH1 0x1 PUSH1 0xA0 SHL SUB SWAP6 DUP7 AND SWAP4 DUP5 ISZERO PUSH2 0x4DE JUMPI DUP4 ISZERO PUSH2 0x4CC JUMPI DUP3 DUP3 GT ISZERO PUSH2 0x4BA JUMPI PUSH2 0x7D0 DUP7 GT PUSH2 0x4A8 JUMPI PUSH1 0x1 SLOAD SWAP6 PUSH2 0x36C DUP8 PUSH2 0x10EF JUMP JUMPDEST PUSH1 0x1 SSTORE PUSH1 0x40 MLOAD PUSH2 0x100 DUP2 ADD SWAP2 DUP2 DUP4 LT DUP5 DUP5 GT OR PUSH2 0x492 JUMPI PUSH1 0x0 SWAP10 PUSH1 0x5 SWAP4 PUSH1 0x40 MSTORE CALLER DUP4 MSTORE PUSH1 0x20 DUP4 ADD DUP10 DUP2 MSTORE PUSH1 0x40 DUP5 ADD SWAP1 DUP10 DUP3 MSTORE PUSH1 0x60 DUP6 ADD SWAP3 DUP14 DUP5 MSTORE PUSH1 0x80 DUP7 ADD SWAP5 DUP6 MSTORE PUSH1 0xA0 DUP7 ADD SWAP10 DUP11 MSTORE PUSH1 0xC0 DUP7 ADD SWAP9 DUP10 MSTORE PUSH1 0xE0 DUP7 ADD SWAP14 DUP15 MSTORE DUP13 PUSH1 0x0 MSTORE PUSH1 0x3 PUSH1 0x20 MSTORE DUP1 PUSH1 0x40 PUSH1 0x0 KECCAK256 SWAP7 MLOAD AND SWAP1 PUSH12 0xFFFFFFFFFFFFFFFFFFFFFFFF PUSH1 0xA0 SHL SWAP2 DUP3 DUP9 SLOAD AND OR DUP8 SSTORE PUSH1 0x1 DUP8 ADD SWAP3 MLOAD AND SWAP1 DUP3 SLOAD AND OR SWAP1 SSTORE MLOAD PUSH1 0x2 DUP5 ADD SSTORE MLOAD PUSH1 0x3 DUP4 ADD SSTORE MLOAD PUSH1 0x4 DUP3 ADD SSTORE ADD SWAP3 MLOAD AND SWAP6 PUSH16 0xFFFFFFFFFFFFFFFF0000000000000000 DUP4 SLOAD SWAP3 MLOAD PUSH1 0x40 SHL AND SWAP1 MLOAD SWAP7 PUSH1 0x6 DUP9 LT ISZERO PUSH2 0x243 JUMPI PUSH1 0x20 SWAP8 PUSH1 0xFF PUSH1 0x80 SHL SWAP1 PUSH1 0x80 SHL AND SWAP3 PUSH17 0xFFFFFFFFFFFFFFFFFFFFFFFFFFFFFFFFFF NOT AND OR OR OR SWAP1 SSTORE PUSH1 0x40 MLOAD SWAP1 DUP2 MSTORE DUP3 PUSH32 0x37CD290F96DA38BFC518E27A36ECD11675B2E30F0C7241C3F43CA3F7BB2C371A DUP6 CALLER SWAP4 LOG4 PUSH1 0x40 MLOAD SWAP1 DUP2 MSTORE RETURN JUMPDEST PUSH4 0x4E487B71 PUSH1 0xE0 SHL PUSH1 0x0 MSTORE PUSH1 0x41 PUSH1 0x4 MSTORE PUSH1 0x24 PUSH1 0x0 REVERT JUMPDEST PUSH1 0x40 MLOAD PUSH4 0x2C53F9A9 PUSH1 0xE1 SHL DUP2 MSTORE PUSH1 0x4 SWAP1 REVERT JUMPDEST PUSH1 0x40 MLOAD PUSH4 0x364DD21B PUSH1 0xE2 SHL DUP2 MSTORE PUSH1 0x4 SWAP1 REVERT JUMPDEST PUSH1 0x40 MLOAD PUSH4 0x162908E3 PUSH1 0xE1 SHL DUP2 MSTORE PUSH1 0x4 SWAP1 REVERT JUMPDEST PUSH1 0x40 MLOAD PUSH4 0xE6C4247B PUSH1 0xE0 SHL DUP2 MSTORE PUSH1 0x4 SWAP1 REVERT JUMPDEST PUSH1 0x20 CALLDATASIZE PUSH1 0x3 NOT ADD SLT PUSH2 0x191 JUMPI PUSH1 0x4 CALLDATALOAD PUSH2 0x507 PUSH2 0x10C3 JUMP JUMPDEST PUSH2 0x50F PUSH2 0x1185 JUMP JUMPDEST PUSH2 0x517 PUSH2 0x10FE JUMP JUMPDEST PUSH2 0x520 DUP2 PUSH2 0x11F9 JUMP JUMPDEST SWAP1 PUSH1 0x3 DUP3 ADD SWAP1 DUP2 SLOAD SWAP3 PUSH1 0xFF DUP5 PUSH1 0x40 SHR AND PUSH1 0x4 DUP2 LT ISZERO PUSH2 0x243 JUMPI PUSH2 0x6A8 JUMPI PUSH2 0x547 DUP2 SLOAD PUSH2 0x11C7 JUMP JUMPDEST SWAP4 PUSH1 0x1 DUP3 ADD SLOAD SWAP5 PUSH1 0x4 DUP2 ADD SLOAD DUP1 DUP8 MUL SWAP1 DUP8 DUP3 DIV EQ DUP8 ISZERO OR ISZERO PUSH2 0x692 JUMPI PUSH2 0x2710 SWAP1 DIV SWAP6 PUSH2 0x573 DUP8 DUP3 PUSH2 0x111F JUMP JUMPDEST SWAP6 DUP7 CALLVALUE LT PUSH2 0x680 JUMPI PUSH9 0x30000000000000000 PUSH1 0x1 SWAP5 PUSH1 0xFF PUSH1 0x40 SHL NOT AND OR SWAP1 SSTORE PUSH2 0x5A1 PUSH1 0x3 DUP4 ADD SWAP2 DUP3 SLOAD PUSH2 0x1148 JUMP JUMPDEST SWAP1 SSTORE DUP3 SLOAD PUSH1 0x0 MSTORE PUSH1 0x5 PUSH1 0x20 MSTORE PUSH1 0x40 PUSH1 0x0 KECCAK256 PUSH2 0x5BD DUP8 DUP3 SLOAD PUSH2 0x1148 JUMP JUMPDEST SWAP1 SSTORE ADD SWAP3 PUSH1 0x1 DUP1 PUSH1 0xA0 SHL SUB SWAP2 PUSH1 0x0 DUP1 DUP1 DUP1 DUP6 DUP8 DUP11 SLOAD AND GAS CALL PUSH2 0x5DD PUSH2 0x1155 JUMP JUMPDEST POP ISZERO PUSH2 0x66E JUMPI DUP2 CALLVALUE GT PUSH2 0x647 JUMPI JUMPDEST SWAP1 PUSH32 0x9684925264666113D8C99A280D237950E071C60554D17B5B81E661990652E742 SWAP3 PUSH1 0x40 SWAP3 SLOAD SWAP6 SLOAD AND SWAP6 DUP3 MLOAD SWAP2 DUP3 MSTORE PUSH1 0x20 DUP3 ADD MSTORE LOG4 PUSH1 0x1 PUSH32 0x9B779B17422D0DF92223018B32B4D1FA46E071723D6817E2486D003BECC55F00 SSTORE STOP JUMPDEST SWAP1 PUSH1 0x0 DUP1 DUP1 DUP1 PUSH2 0x657 DUP6 CALLVALUE PUSH2 0x111F JUMP JUMPDEST CALLER GAS CALL PUSH2 0x662 PUSH2 0x1155 JUMP JUMPDEST POP ISZERO PUSH2 0x66E JUMPI SWAP1 PUSH2 0x5EB JUMP JUMPDEST PUSH1 0x40 MLOAD PUSH4 0x12171D83 PUSH1 0xE3 SHL DUP2 MSTORE PUSH1 0x4 SWAP1 REVERT JUMPDEST PUSH1 0x40 MLOAD PUSH4 0x356680B7 PUSH1 0xE0 SHL DUP2 MSTORE PUSH1 0x4 SWAP1 REVERT JUMPDEST PUSH4 0x4E487B71 PUSH1 0xE0 SHL PUSH1 0x0 MSTORE PUSH1 0x11 PUSH1 0x4 MSTORE PUSH1 0x24 PUSH1 0x0 REVERT JUMPDEST PUSH1 0x40 MLOAD PUSH4 0x1961FD93 PUSH1 0xE1 SHL DUP2 MSTORE PUSH1 0x4 DUP2 ADD DUP4 SWAP1 MSTORE PUSH1 0x24 SWAP1 REVERT JUMPDEST CALLVALUE PUSH2 0x191 JUMPI PUSH1 0x20 DUP1 PUSH1 0x3 NOT CALLDATASIZE ADD SLT PUSH2 0x191 JUMPI PUSH1 0x4 CALLDATALOAD PUSH1 0x0 MSTORE PUSH1 0x4 DUP2 MSTORE PUSH1 0x40 PUSH1 0x0 KECCAK256 SWAP1 DUP2 SLOAD SWAP2 PUSH1 0x1 SWAP2 DUP3 DUP3 ADD SLOAD SWAP2 PUSH1 0x2 DUP2 ADD PUSH1 0x40 MLOAD SWAP5 DUP6 SWAP2 PUSH1 0x0 SWAP2 DUP2 SLOAD SWAP2 PUSH2 0x707 DUP4 PUSH2 0x1051 JUMP JUMPDEST SWAP3 DUP4 DUP7 MSTORE DUP8 DUP4 DUP3 AND SWAP2 DUP3 PUSH1 0x0 EQ PUSH2 0x7F4 JUMPI POP POP PUSH1 0x1 EQ PUSH2 0x7B2 JUMPI JUMPDEST POP POP POP PUSH1 0x3 SWAP3 SWAP2 PUSH2 0x734 SWAP2 SUB DUP7 PUSH2 0x108B JUMP JUMPDEST ADD SLOAD SWAP1 PUSH1 0xFF DUP3 PUSH1 0x40 SHR AND SWAP3 PUSH1 0x40 MLOAD SWAP6 DUP7 MSTORE DUP2 DUP7 ADD MSTORE PUSH1 0xA0 PUSH1 0x40 DUP7 ADD MSTORE DUP4 MLOAD SWAP4 DUP5 PUSH1 0xA0 DUP8 ADD MSTORE PUSH1 0x0 JUMPDEST DUP6 DUP2 LT PUSH2 0x79E JUMPI POP POP PUSH1 0x0 DUP6 DUP6 ADD PUSH1 0xC0 ADD MSTORE POP PUSH8 0xFFFFFFFFFFFFFFFF AND PUSH1 0x60 DUP5 ADD MSTORE PUSH1 0x4 DUP2 LT ISZERO PUSH2 0x243 JUMPI PUSH1 0x80 DUP4 ADD MSTORE PUSH1 0x1F ADD PUSH1 0x1F NOT AND DUP2 ADD DUP2 SWAP1 SUB PUSH1 0xC0 ADD SWAP1 RETURN JUMPDEST DUP2 DUP2 ADD DUP4 ADD MLOAD DUP8 DUP3 ADD PUSH1 0xC0 ADD MSTORE DUP3 ADD PUSH2 0x75C JUMP JUMPDEST DUP7 SWAP4 POP PUSH1 0x0 SWAP3 SWAP2 SWAP3 MSTORE DUP3 PUSH1 0x0 KECCAK256 SWAP2 PUSH1 0x0 SWAP3 JUMPDEST DUP3 DUP5 LT PUSH2 0x7DC JUMPI POP POP POP DUP3 ADD ADD DUP2 PUSH2 0x734 PUSH1 0x3 PUSH2 0x722 JUMP JUMPDEST DUP1 SLOAD DUP5 DUP12 ADD DUP7 ADD MSTORE DUP10 SWAP6 POP DUP8 SWAP5 SWAP1 SWAP4 ADD SWAP3 DUP2 ADD PUSH2 0x7C4 JUMP JUMPDEST PUSH1 0xFF NOT AND DUP8 DUP3 ADD MSTORE SWAP4 ISZERO ISZERO PUSH1 0x5 SHL DUP7 ADD SWAP1 SWAP4 ADD SWAP4 POP DUP5 SWAP3 POP PUSH2 0x734 SWAP2 POP PUSH1 0x3 SWAP1 POP PUSH2 0x722 JUMP JUMPDEST CALLVALUE PUSH2 0x191 JUMPI PUSH1 0x0 CALLDATASIZE PUSH1 0x3 NOT ADD SLT PUSH2 0x191 JUMPI PUSH1 0x20 PUSH1 0x2 SLOAD PUSH1 0x40 MLOAD SWAP1 DUP2 MSTORE RETURN JUMPDEST CALLVALUE PUSH2 0x191 JUMPI PUSH1 0x20 CALLDATASIZE PUSH1 0x3 NOT ADD SLT PUSH2 0x191 JUMPI PUSH1 0x4 CALLDATALOAD PUSH1 0x0 MSTORE PUSH1 0x3 PUSH1 0x20 MSTORE PUSH1 0x40 PUSH1 0x0 KECCAK256 PUSH1 0x1 DUP1 PUSH1 0xA0 SHL SUB DUP1 DUP3 SLOAD AND SWAP1 PUSH1 0x1 DUP4 ADD SLOAD AND SWAP2 PUSH1 0x2 DUP2 ADD SLOAD SWAP1 PUSH1 0x3 DUP2 ADD SLOAD PUSH1 0x5 PUSH1 0x4 DUP4 ADD SLOAD SWAP3 ADD SLOAD SWAP3 PUSH1 0xFF DUP5 PUSH1 0x80 SHR AND SWAP6 PUSH1 0x40 MLOAD SWAP6 DUP7 MSTORE PUSH1 0x20 DUP7 ADD MSTORE PUSH1 0x40 DUP6 ADD MSTORE PUSH1 0x60 DUP5 ADD MSTORE PUSH1 0x80 DUP4 ADD MSTORE PUSH8 0xFFFFFFFFFFFFFFFF SWAP1 DUP2 DUP2 AND PUSH1 0xA0 DUP5 ADD MSTORE PUSH1 0x40 SHR AND PUSH1 0xC0 DUP3 ADD MSTORE PUSH1 0x6 DUP3 LT ISZERO PUSH2 0x243 JUMPI PUSH2 0x100 SWAP2 PUSH1 0xE0 DUP3 ADD MSTORE RETURN JUMPDEST CALLVALUE PUSH2 0x191 JUMPI PUSH1 0x0 CALLDATASIZE PUSH1 0x3 NOT ADD SLT PUSH2 0x191 JUMPI PUSH1 0x0 SLOAD PUSH1 0x40 MLOAD PUSH1 0x1 PUSH1 0x1 PUSH1 0xA0 SHL SUB SWAP1 SWAP2 AND DUP2 MSTORE PUSH1 0x20 SWAP1 RETURN JUMPDEST CALLVALUE PUSH2 0x191 JUMPI PUSH1 0x0 CALLDATASIZE PUSH1 0x3 NOT ADD SLT PUSH2 0x191 JUMPI PUSH2 0x915 PUSH2 0x10C3 JUMP JUMPDEST PUSH2 0x91D PUSH2 0x10FE JUMP JUMPDEST PUSH1 0x0 DUP1 SLOAD PUSH1 0xFF PUSH1 0xA0 SHL NOT AND PUSH1 0x1 PUSH1 0xA0 SHL OR SWAP1 SSTORE PUSH1 0x40 MLOAD CALLER DUP2 MSTORE PUSH32 0x62E78CEA01BEE320CD4E420270B5EA74000D11B0C9F74754EBDBFC544B05A258 SWAP1 PUSH1 0x20 SWAP1 LOG1 STOP JUMPDEST PUSH1 0x20 CALLDATASIZE PUSH1 0x3 NOT ADD SLT PUSH2 0x191 JUMPI PUSH1 0x4 CALLDATALOAD PUSH2 0x975 PUSH2 0x10C3 JUMP JUMPDEST PUSH2 0x97D PUSH2 0x1185 JUMP JUMPDEST PUSH2 0x986 DUP2 PUSH2 0x11C7 JUMP JUMPDEST SWAP1 DUP1 PUSH1 0x0 MSTORE PUSH1 0x5 PUSH1 0x20 MSTORE PUSH1 0x40 PUSH1 0x0 KECCAK256 SLOAD SWAP2 DUP3 ISZERO PUSH2 0x4CC JUMPI DUP2 PUSH1 0x0 MSTORE PUSH1 0x5 PUSH1 0x20 MSTORE PUSH1 0x0 PUSH1 0x40 DUP2 KECCAK256 SSTORE DUP3 CALLVALUE LT PUSH2 0x680 JUMPI PUSH1 0x1 ADD PUSH1 0x1 DUP1 PUSH1 0xA0 SHL SUB SWAP1 PUSH1 0x0 DUP1 DUP1 DUP1 DUP8 DUP7 DUP7 SLOAD AND GAS CALL PUSH2 0x9D3 PUSH2 0x1155 JUMP JUMPDEST POP ISZERO PUSH2 0x66E JUMPI DUP4 CALLVALUE GT PUSH2 0xA36 JUMPI JUMPDEST PUSH32 0x768F20C3678CE21009970CF61F3485842971CA8D9F91B7DC7597689B26EDB79B SWAP2 PUSH1 0x20 SWAP2 SLOAD AND SWAP4 PUSH1 0x40 MLOAD SWAP1 DUP2 MSTORE LOG3 PUSH1 0x1 PUSH32 0x9B779B17422D0DF92223018B32B4D1FA46E071723D6817E2486D003BECC55F00 SSTORE STOP JUMPDEST PUSH1 0x0 DUP1 DUP1 DUP1 PUSH2 0xA45 DUP9 CALLVALUE PUSH2 0x111F JUMP JUMPDEST CALLER GAS CALL PUSH2 0xA50 PUSH2 0x1155 JUMP JUMPDEST POP PUSH2 0x9E1 JUMPI PUSH1 0x40 MLOAD PUSH4 0x12171D83 PUSH1 0xE3 SHL DUP2 MSTORE PUSH1 0x4 SWAP1 REVERT JUMPDEST CALLVALUE PUSH2 0x191 JUMPI PUSH1 0x0 CALLDATASIZE PUSH1 0x3 NOT ADD SLT PUSH2 0x191 JUMPI PUSH2 0xA80 PUSH2 0x10C3 JUMP JUMPDEST PUSH1 0x0 DUP1 SLOAD PUSH1 0x1 PUSH1 0x1 PUSH1 0xA0 SHL SUB NOT DUP2 AND DUP3 SSTORE PUSH1 0x1 PUSH1 0x1 PUSH1 0xA0 SHL SUB AND PUSH32 0x8BE0079C531659141344CD1FD0A4F28419497F9722A3DAAFE3B4186F6B6457E0 DUP3 DUP1 LOG3 STOP JUMPDEST CALLVALUE PUSH2 0x191 JUMPI PUSH1 0x0 CALLDATASIZE PUSH1 0x3 NOT ADD SLT PUSH2 0x191 JUMPI PUSH1 0x20 PUSH1 0xFF PUSH1 0x0 SLOAD PUSH1 0xA0 SHR AND PUSH1 0x40 MLOAD SWAP1 ISZERO ISZERO DUP2 MSTORE RETURN JUMPDEST CALLVALUE PUSH2 0x191 JUMPI PUSH1 0x20 CALLDATASIZE PUSH1 0x3 NOT ADD SLT PUSH2 0x191 JUMPI PUSH1 0x4 CALLDATALOAD PUSH2 0xB03 DUP2 PUSH2 0x11C7 JUMP JUMPDEST DUP1 SLOAD CALLER PUSH1 0x1 PUSH1 0x1 PUSH1 0xA0 SHL SUB SWAP2 DUP3 AND EQ ISZERO SWAP1 DUP2 PUSH2 0xB80 JUMPI JUMPDEST DUP2 PUSH2 0xB71 JUMPI JUMPDEST POP PUSH2 0xB60 JUMPI PUSH1 0x5 ADD DUP1 SLOAD PUSH1 0xFF PUSH1 0x80 SHL NOT AND PUSH1 0x1 PUSH1 0x82 SHL OR SWAP1 SSTORE PUSH32 0xBE7DFD27C273525E7D2E5355324E18149F6E9BC060FBC492714133C75A90C12D PUSH1 0x0 DUP1 LOG2 STOP JUMPDEST PUSH1 0x40 MLOAD PUSH3 0x82B429 PUSH1 0xE8 SHL DUP2 MSTORE PUSH1 0x4 SWAP1 REVERT JUMPDEST SWAP1 POP PUSH1 0x0 SLOAD AND CALLER EQ ISZERO DUP4 PUSH2 0xB20 JUMP JUMPDEST DUP1 SWAP2 POP PUSH1 0x1 DUP4 ADD SLOAD AND CALLER EQ ISZERO SWAP1 PUSH2 0xB1A JUMP JUMPDEST CALLVALUE PUSH2 0x191 JUMPI PUSH1 0x0 CALLDATASIZE PUSH1 0x3 NOT ADD SLT PUSH2 0x191 JUMPI PUSH2 0xBAB PUSH2 0x10C3 JUMP JUMPDEST PUSH1 0x0 SLOAD PUSH1 0xFF DUP2 PUSH1 0xA0 SHR AND ISZERO PUSH2 0xBF2 JUMPI PUSH1 0xFF PUSH1 0xA0 SHL NOT AND PUSH1 0x0 SSTORE PUSH1 0x40 MLOAD CALLER DUP2 MSTORE PUSH32 0x5DB9EE0A495BF2E6FF9C91A7834C1BA4FDD244A5E8AA4E537BD38AEAE4B073AA SWAP1 PUSH1 0x20 SWAP1 LOG1 STOP JUMPDEST PUSH1 0x40 MLOAD PUSH4 0x8DFC202B PUSH1 0xE0 SHL DUP2 MSTORE PUSH1 0x4 SWAP1 REVERT JUMPDEST CALLVALUE PUSH2 0x191 JUMPI PUSH1 0x0 CALLDATASIZE PUSH1 0x3 NOT ADD SLT PUSH2 0x191 JUMPI PUSH1 0x20 PUSH1 0x40 MLOAD PUSH2 0x7D0 DUP2 MSTORE RETURN JUMPDEST CALLVALUE PUSH2 0x191 JUMPI PUSH1 0x20 CALLDATASIZE PUSH1 0x3 NOT ADD SLT PUSH2 0x191 JUMPI PUSH1 0x4 CALLDATALOAD PUSH1 0x0 MSTORE PUSH1 0x5 PUSH1 0x20 MSTORE PUSH1 0x20 PUSH1 0x40 PUSH1 0x0 KECCAK256 SLOAD PUSH1 0x40 MLOAD SWAP1 DUP2 MSTORE RETURN JUMPDEST CALLVALUE PUSH2 0x191 JUMPI PUSH1 0x20 CALLDATASIZE PUSH1 0x3 NOT ADD SLT PUSH2 0x191 JUMPI PUSH1 0x4 CALLDATALOAD PUSH2 0xC69 PUSH2 0x10C3 JUMP JUMPDEST PUSH1 0x3 PUSH2 0xC74 DUP3 PUSH2 0x11F9 JUMP JUMPDEST ADD SWAP1 DUP2 SLOAD SWAP1 PUSH1 0xFF DUP3 PUSH1 0x40 SHR AND PUSH1 0x4 DUP2 LT ISZERO PUSH2 0x243 JUMPI PUSH2 0xCA9 JUMPI POP PUSH9 0xFF0000000000000000 NOT AND PUSH9 0x20000000000000000 OR SWAP1 SSTORE STOP JUMPDEST PUSH1 0x24 SWAP1 PUSH1 0x40 MLOAD SWAP1 PUSH4 0x1961FD93 PUSH1 0xE1 SHL DUP3 MSTORE PUSH1 0x4 DUP3 ADD MSTORE REVERT JUMPDEST CALLVALUE PUSH2 0x191 JUMPI PUSH1 0x60 CALLDATASIZE PUSH1 0x3 NOT ADD SLT PUSH2 0x191 JUMPI PUSH8 0xFFFFFFFFFFFFFFFF PUSH1 0x44 CALLDATALOAD GT PUSH2 0x191 JUMPI CALLDATASIZE PUSH1 0x23 PUSH1 0x44 CALLDATALOAD ADD SLT ISZERO PUSH2 0x191 JUMPI PUSH8 0xFFFFFFFFFFFFFFFF PUSH1 0x44 CALLDATALOAD PUSH1 0x4 ADD CALLDATALOAD GT PUSH2 0x191 JUMPI CALLDATASIZE PUSH1 0x24 PUSH1 0x44 CALLDATALOAD PUSH1 0x4 ADD CALLDATALOAD PUSH1 0x44 CALLDATALOAD ADD ADD GT PUSH2 0x191 JUMPI PUSH2 0xD21 PUSH2 0x10FE JUMP JUMPDEST PUSH2 0xD2C PUSH1 0x4 CALLDATALOAD PUSH2 0x11C7 JUMP JUMPDEST PUSH1 0x1 DUP2 ADD SLOAD PUSH1 0x1 PUSH1 0x1 PUSH1 0xA0 SHL SUB AND CALLER SUB PUSH2 0xB60 JUMPI PUSH1 0xFF PUSH1 0x5 DUP3 ADD SLOAD PUSH1 0x80 SHR AND PUSH1 0x6 DUP2 LT ISZERO PUSH2 0x243 JUMPI PUSH1 0x1 DUP2 EQ ISZERO SWAP1 DUP2 PUSH2 0x1045 JUMPI JUMPDEST POP PUSH2 0x102C JUMPI PUSH2 0xD78 PUSH1 0x2 DUP3 ADD SLOAD PUSH1 0x3 DUP4 ADD SLOAD SWAP1 PUSH2 0x111F JUMP JUMPDEST DUP1 PUSH1 0x24 CALLDATALOAD GT PUSH2 0x1004 JUMPI POP PUSH1 0x2 SLOAD PUSH2 0xD8E DUP2 PUSH2 0x10EF JUMP JUMPDEST PUSH1 0x2 SSTORE PUSH1 0x40 MLOAD PUSH1 0xA0 DUP2 ADD DUP2 DUP2 LT PUSH8 0xFFFFFFFFFFFFFFFF DUP3 GT OR PUSH2 0x492 JUMPI PUSH1 0x40 MSTORE PUSH1 0x4 CALLDATALOAD DUP2 MSTORE PUSH1 0x20 DUP2 ADD PUSH1 0x24 CALLDATALOAD DUP2 MSTORE PUSH2 0xDCB PUSH1 0x44 CALLDATALOAD PUSH1 0x4 ADD CALLDATALOAD PUSH2 0x112C JUMP JUMPDEST PUSH2 0xDD8 PUSH1 0x40 MLOAD SWAP2 DUP3 PUSH2 0x108B JUMP JUMPDEST PUSH1 0x44 CALLDATALOAD PUSH1 0x4 DUP2 ADD CALLDATALOAD DUP1 DUP4 MSTORE SWAP1 PUSH1 0x24 ADD PUSH1 0x20 DUP4 ADD CALLDATACOPY PUSH1 0x0 PUSH1 0x20 PUSH1 0x44 CALLDATALOAD PUSH1 0x4 ADD CALLDATALOAD DUP4 ADD ADD MSTORE PUSH1 0x40 DUP4 ADD SWAP1 DUP2 MSTORE PUSH8 0xFFFFFFFFFFFFFFFF TIMESTAMP AND PUSH1 0x60 DUP5 ADD MSTORE PUSH1 0x0 PUSH1 0x80 DUP5 ADD MSTORE DUP4 PUSH1 0x0 MSTORE PUSH1 0x4 PUSH1 0x20 MSTORE PUSH1 0x40 PUSH1 0x0 KECCAK256 SWAP2 DUP4 MLOAD DUP4 SSTORE MLOAD PUSH1 0x1 DUP4 ADD SSTORE MLOAD DUP1 MLOAD SWAP1 PUSH8 0xFFFFFFFFFFFFFFFF DUP3 GT PUSH2 0x492 JUMPI PUSH2 0xE52 PUSH1 0x2 DUP5 ADD SLOAD PUSH2 0x1051 JUMP JUMPDEST PUSH1 0x1F DUP2 GT PUSH2 0xFBD JUMPI JUMPDEST POP PUSH1 0x20 SWAP1 PUSH1 0x1F DUP4 GT PUSH1 0x1 EQ PUSH2 0xF4D JUMPI PUSH1 0x3 SWAP4 SWAP3 SWAP2 PUSH1 0x0 SWAP2 DUP4 PUSH2 0xF42 JUMPI JUMPDEST POP POP DUP2 PUSH1 0x1 SHL SWAP2 PUSH1 0x0 NOT SWAP1 DUP6 SHL SHR NOT AND OR PUSH1 0x2 DUP3 ADD SSTORE JUMPDEST ADD SWAP1 PUSH8 0xFFFFFFFFFFFFFFFF PUSH1 0x60 DUP3 ADD MLOAD AND PUSH1 0x80 DUP4 SLOAD SWAP3 ADD MLOAD PUSH1 0x4 DUP2 LT ISZERO PUSH2 0x243 JUMPI PUSH1 0xFF PUSH1 0x40 SHL SWAP1 PUSH1 0x40 SHL AND SWAP2 PUSH9 0xFFFFFFFFFFFFFFFFFF NOT AND OR OR SWAP1 SSTORE PUSH1 0x5 DUP3 ADD SLOAD SWAP2 PUSH1 0xFF DUP4 PUSH1 0x80 SHR AND SWAP3 PUSH1 0x6 DUP5 LT ISZERO PUSH2 0x243 JUMPI PUSH1 0x1 PUSH1 0x20 SWAP5 EQ PUSH2 0xF27 JUMPI JUMPDEST POP POP PUSH1 0x40 MLOAD PUSH1 0x24 CALLDATALOAD DUP2 MSTORE DUP2 PUSH32 0x9575A289A9BFC7A5FD845AB0763B8D498955692C0AA7FEC362DE9BB9D27AFBAA DUP5 PUSH1 0x4 CALLDATALOAD SWAP4 LOG3 PUSH1 0x40 MLOAD SWAP1 DUP2 MSTORE RETURN JUMPDEST PUSH1 0xFF PUSH1 0x80 SHL NOT AND PUSH1 0x1 PUSH1 0x81 SHL OR PUSH1 0x5 SWAP2 SWAP1 SWAP2 ADD SSTORE DUP3 DUP1 PUSH2 0xEED JUMP JUMPDEST ADD MLOAD SWAP1 POP DUP8 DUP1 PUSH2 0xE78 JUMP JUMPDEST SWAP1 PUSH1 0x1F NOT DUP4 AND SWAP2 PUSH1 0x2 DUP6 ADD PUSH1 0x0 MSTORE PUSH1 0x20 PUSH1 0x0 KECCAK256 SWAP3 PUSH1 0x0 JUMPDEST DUP2 DUP2 LT PUSH2 0xFA5 JUMPI POP SWAP2 PUSH1 0x1 SWAP4 SWAP2 DUP6 PUSH1 0x3 SWAP8 SWAP7 SWAP5 LT PUSH2 0xF8D JUMPI JUMPDEST POP POP POP DUP2 SHL ADD PUSH1 0x2 DUP3 ADD SSTORE PUSH2 0xE8F JUMP JUMPDEST ADD MLOAD PUSH1 0x0 NOT DUP4 DUP8 SHL PUSH1 0xF8 AND SHR NOT AND SWAP1 SSTORE DUP8 DUP1 DUP1 PUSH2 0xF7D JUMP JUMPDEST SWAP3 SWAP4 PUSH1 0x20 PUSH1 0x1 DUP2 SWAP3 DUP8 DUP7 ADD MLOAD DUP2 SSTORE ADD SWAP6 ADD SWAP4 ADD PUSH2 0xF64 JUMP JUMPDEST PUSH1 0x2 DUP5 ADD PUSH1 0x0 MSTORE PUSH1 0x20 PUSH1 0x0 KECCAK256 PUSH1 0x1F DUP5 ADD PUSH1 0x5 SHR DUP2 ADD PUSH1 0x20 DUP6 LT PUSH2 0xFFD JUMPI JUMPDEST PUSH1 0x1F DUP4 ADD PUSH1 0x5 SHR DUP3 ADD DUP2 LT PUSH2 0xFF1 JUMPI POP POP PUSH2 0xE5B JUMP JUMPDEST PUSH1 0x0 DUP2 SSTORE PUSH1 0x1 ADD PUSH2 0xFDB JUMP JUMPDEST POP DUP1 PUSH2 0xFDB JUMP JUMPDEST PUSH1 0x64 SWAP1 PUSH1 0x40 MLOAD SWAP1 PUSH4 0x73445D63 PUSH1 0xE0 SHL DUP3 MSTORE PUSH1 0x4 CALLDATALOAD PUSH1 0x4 DUP4 ADD MSTORE PUSH1 0x24 CALLDATALOAD PUSH1 0x24 DUP4 ADD MSTORE PUSH1 0x44 DUP3 ADD MSTORE REVERT JUMPDEST PUSH1 0x24 PUSH1 0x40 MLOAD PUSH4 0x1961FD93 PUSH1 0xE1 SHL DUP2 MSTORE PUSH1 0x4 CALLDATALOAD PUSH1 0x4 DUP3 ADD MSTORE REVERT JUMPDEST PUSH1 0x2 SWAP2 POP EQ ISZERO DUP3 PUSH2 0xD60 JUMP JUMPDEST SWAP1 PUSH1 0x1 DUP3 DUP2 SHR SWAP3 AND DUP1 ISZERO PUSH2 0x1081 JUMPI JUMPDEST PUSH1 0x20 DUP4 LT EQ PUSH2 0x106B JUMPI JUMP JUMPDEST PUSH4 0x4E487B71 PUSH1 0xE0 SHL PUSH1 0x0 MSTORE PUSH1 0x22 PUSH1 0x4 MSTORE PUSH1 0x24 PUSH1 0x0 REVERT JUMPDEST SWAP2 PUSH1 0x7F AND SWAP2 PUSH2 0x1060 JUMP JUMPDEST SWAP1 PUSH1 0x1F DUP1 NOT SWAP2 ADD AND DUP2 ADD SWAP1 DUP2 LT PUSH8 0xFFFFFFFFFFFFFFFF DUP3 GT OR PUSH2 0x492 JUMPI PUSH1 0x40 MSTORE JUMP JUMPDEST PUSH1 0x4 CALLDATALOAD SWAP1 PUSH1 0x1 PUSH1 0x1 PUSH1 0xA0 SHL SUB DUP3 AND DUP3 SUB PUSH2 0x191 JUMPI JUMP JUMPDEST PUSH1 0x0 SLOAD PUSH1 0x1 PUSH1 0x1 PUSH1 0xA0 SHL SUB AND CALLER SUB PUSH2 0x10D7 JUMPI JUMP JUMPDEST PUSH1 0x40 MLOAD PUSH4 0x118CDAA7 PUSH1 0xE0 SHL DUP2 MSTORE CALLER PUSH1 0x4 DUP3 ADD MSTORE PUSH1 0x24 SWAP1 REVERT JUMPDEST PUSH1 0x0 NOT DUP2 EQ PUSH2 0x692 JUMPI PUSH1 0x1 ADD SWAP1 JUMP JUMPDEST PUSH1 0xFF PUSH1 0x0 SLOAD PUSH1 0xA0 SHR AND PUSH2 0x110D JUMPI JUMP JUMPDEST PUSH1 0x40 MLOAD PUSH4 0xD93C0665 PUSH1 0xE0 SHL DUP2 MSTORE PUSH1 0x4 SWAP1 REVERT JUMPDEST SWAP2 SWAP1 DUP3 SUB SWAP2 DUP3 GT PUSH2 0x692 JUMPI JUMP JUMPDEST PUSH8 0xFFFFFFFFFFFFFFFF DUP2 GT PUSH2 0x492 JUMPI PUSH1 0x1F ADD PUSH1 0x1F NOT AND PUSH1 0x20 ADD SWAP1 JUMP JUMPDEST SWAP2 SWAP1 DUP3 ADD DUP1 SWAP3 GT PUSH2 0x692 JUMPI JUMP JUMPDEST RETURNDATASIZE ISZERO PUSH2 0x1180 JUMPI RETURNDATASIZE SWAP1 PUSH2 0x1166 DUP3 PUSH2 0x112C JUMP JUMPDEST SWAP2 PUSH2 0x1174 PUSH1 0x40 MLOAD SWAP4 DUP5 PUSH2 0x108B JUMP JUMPDEST DUP3 MSTORE RETURNDATASIZE PUSH1 0x0 PUSH1 0x20 DUP5 ADD RETURNDATACOPY JUMP JUMPDEST PUSH1 0x60 SWAP1 JUMP JUMPDEST PUSH32 0x9B779B17422D0DF92223018B32B4D1FA46E071723D6817E2486D003BECC55F00 PUSH1 0x2 DUP2 SLOAD EQ PUSH2 0x11B5 JUMPI PUSH1 0x2 SWAP1 SSTORE JUMP JUMPDEST PUSH1 0x40 MLOAD PUSH4 0x3EE5AEB5 PUSH1 0xE0 SHL DUP2 MSTORE PUSH1 0x4 SWAP1 REVERT JUMPDEST PUSH1 0x1 SLOAD DUP2 LT ISZERO PUSH2 0x11E1 JUMPI PUSH1 0x0 MSTORE PUSH1 0x3 PUSH1 0x20 MSTORE PUSH1 0x40 PUSH1 0x0 KECCAK256 SWAP1 JUMP JUMPDEST PUSH1 0x24 SWAP1 PUSH1 0x40 MLOAD SWAP1 PUSH4 0x28EB96E7 PUSH1 0xE1 SHL DUP3 MSTORE PUSH1 0x4 DUP3 ADD MSTORE REVERT JUMPDEST PUSH1 0x2 SLOAD DUP2 LT ISZERO PUSH2 0x1213 JUMPI PUSH1 0x0 MSTORE PUSH1 0x4 PUSH1 0x20 MSTORE PUSH1 0x40 PUSH1 0x0 KECCAK256 SWAP1 JUMP JUMPDEST PUSH1 0x24 SWAP1 PUSH1 0x40 MLOAD SWAP1 PUSH4 0x3373E461 PUSH1 0xE0 SHL DUP3 MSTORE PUSH1 0x4 DUP3 ADD MSTORE REVERT INVALID LOG2 PUSH5 0x6970667358 0x22 SLT KECCAK256 0xA5 STOP 0xCE 0x27 ADDRESS SELFBALANCE 0xB0 DUP14 SHR EXP PUSH14 0xECB86BA28519EE7D889616B3673 0xB6 EQ 0xD3 0xC6 0xD9 DIV 0xB1 PUSH5 0x736F6C6343 STOP ADDMOD EQ STOP CALLER "},"methodIdentifiers":{"BPS_DENOMINATOR()":"e1a45218","MAX_RETENTION_RATE()":"35dc63ff","approveSubcontract(uint256)":"c46017a4","claimPayment(uint256,uint256,string)":"1c4964be","claims(uint256)":"a888c2cd","completeSubcontract(uint256)":"c9c69450","disputeSubcontract(uint256)":"4288f937","nextClaimId()":"a0021cf1","nextSubcontractId()":"bf7c2d83","owner()":"8da5cb5b","pause()":"8456cb59","paused()":"5c975abb","registerSubcontract(address,uint256,uint256,uint64,uint64)":"b4acfc4a","rejectClaim(uint256)":"20341101","releaseDirectPayment(uint256)":"aec7f545","releaseRetention(uint256)":"78023037","renounceOwnership()":"715018a6","retentionBalance(uint256)":"33556de5","subcontracts(uint256)":"984d5e23","transferOwnership(address)":"f2fde38b","unpause()":"3f4ba83a"}}}}}