{"src/PropAIGovernance.sol":{"PropAIGovernance":{"abi":[{"inputs":[],"stateMutability":"nonpayable","type":"constructor"},{"inputs":[{"internalType":"uint256","name":"id","type":"uint256"}],"name":"AlreadyExecuted","type":"error"},{"inputs":[{"internalType":"uint256","name":"id","type":"uint256"},{"internalType":"address","name":"voter","type":"address"}],"name":"AlreadyVoted","type":"error"},{"inputs":[],"name":"InsufficientVotingPower","type":"error"},{"inputs":[],"name":"InvalidQuorum","type":"error"},{"inputs":[{"internalType":"address","name":"member","type":"address"}],"name":"MemberAlreadyExists","type":"error"},{"inputs":[],"name":"NotMember","type":"error"},{"inputs":[{"internalType":"address","name":"owner","type":"address"}],"name":"OwnableInvalidOwner","type":"error"},{"inputs":[{"internalType":"address","name":"account","type":"address"}],"name":"OwnableUnauthorizedAccount","type":"error"},{"inputs":[{"internalType":"uint256","name":"id","type":"uint256"}],"name":"ProposalNotActive","type":"error"},{"inputs":[{"internalType":"uint256","name":"id","type":"uint256"}],"name":"ProposalNotFound","type":"error"},{"inputs":[{"internalType":"uint256","name":"id","type":"uint256"}],"name":"ProposalNotSucceeded","type":"error"},{"inputs":[{"internalType":"uint256","name":"id","type":"uint256"}],"name":"QuorumNotReached","type":"error"},{"inputs":[],"name":"ReentrancyGuardReentrantCall","type":"error"},{"inputs":[],"name":"VotingPeriodInvalid","type":"error"},{"anonymous":false,"inputs":[{"indexed":true,"internalType":"address","name":"member","type":"address"},{"indexed":false,"internalType":"uint256","name":"votingPower","type":"uint256"}],"name":"MemberAdded","type":"event"},{"anonymous":false,"inputs":[{"indexed":true,"internalType":"address","name":"member","type":"address"}],"name":"MemberRemoved","type":"event"},{"anonymous":false,"inputs":[{"indexed":true,"internalType":"address","name":"member","type":"address"},{"indexed":false,"internalType":"uint256","name":"newPower","type":"uint256"}],"name":"MemberVotingPowerUpdated","type":"event"},{"anonymous":false,"inputs":[{"indexed":true,"internalType":"address","name":"previousOwner","type":"address"},{"indexed":true,"internalType":"address","name":"newOwner","type":"address"}],"name":"OwnershipTransferred","type":"event"},{"anonymous":false,"inputs":[{"indexed":true,"internalType":"uint256","name":"id","type":"uint256"}],"name":"ProposalCancelled","type":"event"},{"anonymous":false,"inputs":[{"indexed":true,"internalType":"uint256","name":"id","type":"uint256"},{"indexed":true,"internalType":"address","name":"proposer","type":"address"},{"indexed":false,"internalType":"string","name":"title","type":"string"}],"name":"ProposalCreated","type":"event"},{"anonymous":false,"inputs":[{"indexed":true,"internalType":"uint256","name":"id","type":"uint256"}],"name":"ProposalExecuted","type":"event"},{"anonymous":false,"inputs":[{"indexed":false,"internalType":"uint256","name":"oldQuorum","type":"uint256"},{"indexed":false,"internalType":"uint256","name":"newQuorum","type":"uint256"}],"name":"QuorumUpdated","type":"event"},{"anonymous":false,"inputs":[{"indexed":true,"internalType":"uint256","name":"proposalId","type":"uint256"},{"indexed":true,"internalType":"address","name":"voter","type":"address"},{"indexed":false,"internalType":"enum PropAIGovernance.VoteType","name":"voteType","type":"uint8"},{"indexed":false,"internalType":"uint256","name":"weight","type":"uint256"}],"name":"VoteCasted","type":"event"},{"inputs":[],"name":"BPS_DENOMINATOR","outputs":[{"internalType":"uint256","name":"","type":"uint256"}],"stateMutability":"view","type":"function"},{"inputs":[],"name":"MAX_VOTING_PERIOD","outputs":[{"internalType":"uint256","name":"","type":"uint256"}],"stateMutability":"view","type":"function"},{"inputs":[],"name":"MIN_VOTING_PERIOD","outputs":[{"internalType":"uint256","name":"","type":"uint256"}],"stateMutability":"view","type":"function"},{"inputs":[{"internalType":"address","name":"_member","type":"address"},{"internalType":"uint256","name":"_votingPower","type":"uint256"}],"name":"addMember","outputs":[],"stateMutability":"nonpayable","type":"function"},{"inputs":[{"internalType":"uint256","name":"_proposalId","type":"uint256"}],"name":"cancelProposal","outputs":[],"stateMutability":"nonpayable","type":"function"},{"inputs":[{"internalType":"uint256","name":"_proposalId","type":"uint256"},{"internalType":"enum PropAIGovernance.VoteType","name":"_voteType","type":"uint8"}],"name":"castVote","outputs":[],"stateMutability":"nonpayable","type":"function"},{"inputs":[{"internalType":"string","name":"_title","type":"string"},{"internalType":"string","name":"_description","type":"string"},{"internalType":"bytes32","name":"_documentHash","type":"bytes32"},{"internalType":"uint64","name":"_votingPeriod","type":"uint64"}],"name":"createProposal","outputs":[{"internalType":"uint256","name":"proposalId","type":"uint256"}],"stateMutability":"nonpayable","type":"function"},{"inputs":[{"internalType":"uint256","name":"_proposalId","type":"uint256"}],"name":"executeProposal","outputs":[],"stateMutability":"nonpayable","type":"function"},{"inputs":[{"internalType":"uint256","name":"_proposalId","type":"uint256"}],"name":"finalizeProposal","outputs":[],"stateMutability":"nonpayable","type":"function"},{"inputs":[{"internalType":"uint256","name":"_proposalId","type":"uint256"}],"name":"getProposalVotes","outputs":[{"internalType":"uint256","name":"forVotes","type":"uint256"},{"internalType":"uint256","name":"againstVotes","type":"uint256"},{"internalType":"uint256","name":"abstainVotes","type":"uint256"}],"stateMutability":"view","type":"function"},{"inputs":[{"internalType":"uint256","name":"","type":"uint256"},{"internalType":"address","name":"","type":"address"}],"name":"hasVoted","outputs":[{"internalType":"bool","name":"","type":"bool"}],"stateMutability":"view","type":"function"},{"inputs":[],"name":"memberCount","outputs":[{"internalType":"uint256","name":"","type":"uint256"}],"stateMutability":"view","type":"function"},{"inputs":[{"internalType":"address","name":"","type":"address"}],"name":"members","outputs":[{"internalType":"uint256","name":"votingPower","type":"uint256"},{"internalType":"bool","name":"isActive","type":"bool"}],"stateMutability":"view","type":"function"},{"inputs":[],"name":"nextProposalId","outputs":[{"internalType":"uint256","name":"","type":"uint256"}],"stateMutability":"view","type":"function"},{"inputs":[],"name":"owner","outputs":[{"internalType":"address","name":"","type":"address"}],"stateMutability":"view","type":"function"},{"inputs":[{"internalType":"uint256","name":"","type":"uint256"}],"name":"proposals","outputs":[{"internalType":"uint256","name":"id","type":"uint256"},{"internalType":"address","name":"proposer","type":"address"},{"internalType":"string","name":"title","type":"string"},{"internalType":"string","name":"description","type":"string"},{"internalType":"bytes32","name":"documentHash","type":"bytes32"},{"internalType":"uint64","name":"startTime","type":"uint64"},{"internalType":"uint64","name":"endTime","type":"uint64"},{"internalType":"uint256","name":"forVotes","type":"uint256"},{"internalType":"uint256","name":"againstVotes","type":"uint256"},{"internalType":"uint256","name":"abstainVotes","type":"uint256"},{"internalType":"enum PropAIGovernance.ProposalStatus","name":"status","type":"uint8"},{"internalType":"bool","name":"executed","type":"bool"}],"stateMutability":"view","type":"function"},{"inputs":[],"name":"quorumBps","outputs":[{"internalType":"uint256","name":"","type":"uint256"}],"stateMutability":"view","type":"function"},{"inputs":[{"internalType":"address","name":"_member","type":"address"}],"name":"removeMember","outputs":[],"stateMutability":"nonpayable","type":"function"},{"inputs":[],"name":"renounceOwnership","outputs":[],"stateMutability":"nonpayable","type":"function"},{"inputs":[{"internalType":"uint256","name":"_newQuorumBps","type":"uint256"}],"name":"setQuorum","outputs":[],"stateMutability":"nonpayable","type":"function"},{"inputs":[],"name":"totalVotingPower","outputs":[{"internalType":"uint256","name":"","type":"uint256"}],"stateMutability":"view","type":"function"},{"inputs":[{"internalType":"address","name":"newOwner","type":"address"}],"name":"transferOwnership","outputs":[],"stateMutability":"nonpayable","type":"function"},{"inputs":[{"internalType":"address","name":"_member","type":"address"},{"internalType":"uint256","name":"_newPower","type":"uint256"}],"name":"updateVotingPower","outputs":[],"stateMutability":"nonpayable","type":"function"},{"inputs":[{"internalType":"uint256","name":"","type":"uint256"},{"internalType":"address","name":"","type":"address"}],"name":"voteCast","outputs":[{"internalType":"enum PropAIGovernance.VoteType","name":"","type":"uint8"}],"stateMutability":"view","type":"function"}],"evm":{"bytecode":{"linkReferences":{},"object":"608080604052346100a457331561008e5760008054336001600160a01b03198216811783556040519290916001600160a01b0316907f8be0079c531659141344cd1fd0a4f28419497f9722a3daafe3b4186f6b6457e09080a360017f9b779b17422d0df92223018b32b4d1fa46e071723d6817e2486d003becc55f00556113886001556113ed90816100aa8239f35b631e4fbdf760e01b815260006004820152602490fd5b600080fdfe6080604052600436101561001257600080fd5b60003560e01c8063013cf08b1461104957806308ae4b0c146110015780630b1ca49a14610f4e5780630d61b51914610ea157806311aee38014610e83578063215809ca14610e655780632ab09d1414610e475780634385963214610dfa57806347c6614014610db95780635652077c14610cda5780635678138814610b54578063671b379314610b3657806368ef259e14610634578063715018a6146105db5780638da5cb5b146105b257806398041ea31461048f578063a64e024a14610471578063b52446061461041f578063c1ba4e59146103a0578063cd2ddd0c14610382578063e0a8f6f5146102ab578063e1a452181461028e578063eadc29c7146101b75763f2fde38b1461012457600080fd5b346101b25760203660031901126101b25761013d611284565b6101456112ea565b6001600160a01b0390811690811561019957600054826bffffffffffffffffffffffff60a01b821617600055167f8be0079c531659141344cd1fd0a4f28419497f9722a3daafe3b4186f6b6457e0600080a3005b604051631e4fbdf760e01b815260006004820152602490fd5b600080fd5b346101b25760403660031901126101b2576101d0611284565b602435906101dc6112ea565b6001600160a01b031660008181526006602052604090206001015490919060ff161561027c57801561026a5760208161024f7ff139a9266eff5871beb5bc3b0e48d5966594c3886853eded7d0ce54c24c9d25a9361024a600354876000526006865260406000205490611332565b611316565b600355836000526006825280604060002055604051908152a2005b60405163cabeb65560e01b8152600490fd5b60405163148fe22160e11b8152600490fd5b346101b25760003660031901126101b25760206040516127108152f35b346101b25760203660031901126101b2576004356102c881611385565b6001810154336001600160a01b0391821614159081610373575b5061027c57600901805460ff8116600681101561035d5760018114159081610353575b5061033a5760ff191660051790557f416e669c63d9a3a5e36ee7cc7e2104b8db28ccd286aa18966e98fa230c73b08c600080a2005b6040516344980d8f60e01b815260048101849052602490fd5b9050151584610305565b634e487b7160e01b600052602160045260246000fd5b905060005416331415836102e2565b346101b25760003660031901126101b2576020600154604051908152f35b346101b25760203660031901126101b2576004356103bc6112ea565b80158015610414575b6104025760407f6784e9bcb845caaa98267d7b0918f97d3d17f7cb35a05b52010f7eb587a0acb091600154908060015582519182526020820152a1005b60405163d173577960e01b8152600490fd5b5061271081116103c5565b346101b25760403660031901126101b25761043861129a565b600435600052600860205260406000209060018060a01b0316600052602052602060ff6040600020541661046f60405180926112dd565bf35b346101b25760003660031901126101b257602060405162278d008152f35b346101b25760403660031901126101b2576104a8611284565b602435906104b46112ea565b6001600160a01b031690811580156105aa575b61026a5781600052600660205260ff60016040600020015416610591576040519060408201908282106001600160401b0383111761057b577fede8eed4383e9241982619b94dd83e488b274cced0fd07b8c0092a393defd52f926020926040528181526001838201918183528660005260068552604060002090518155019051151560ff8019835416911617905561056181600354611316565b60035561056f600454611323565b600455604051908152a2005b634e487b7160e01b600052604160045260246000fd5b604051631f5da49160e21b815260048101839052602490fd5b5080156104c7565b346101b25760003660031901126101b2576000546040516001600160a01b039091168152602090f35b346101b25760003660031901126101b2576105f46112ea565b600080546001600160a01b0319811682556001600160a01b03167f8be0079c531659141344cd1fd0a4f28419497f9722a3daafe3b4186f6b6457e08280a3005b346101b25760803660031901126101b2576004356001600160401b0381116101b2576106649036906004016112b0565b6024356001600160401b0381116101b2576106839036906004016112b0565b919092606435926001600160401b0384168094036101b25733600052600660205260ff600160406000200154161561027c576203f48084108015610b2a575b610b1857600254936106d385611323565b6002556001600160401b034216908101906001600160401b038211610b0257604051966101808801908882106001600160401b0383111761057b576001600160401b039461073e92604052888a523360208b015261073236898961133f565b60408b0152369161133f565b6060880152604435608088015260a08701521660c0850152600060e085015260006101008501526000610120850152600161014085015260006101608501528260005260056020526040600020845181556001810160018060a01b036020870151166bffffffffffffffffffffffff60a01b82541617905560408501518051906001600160401b03821161057b5781906107db6002850154611143565b601f8111610aaf575b50602090601f8311600114610a4257600092610a37575b50508160011b916000199060031b1c19161760028201555b60608501518051906001600160401b03821161057b576108366003840154611143565b601f81116109f0575b50602090601f831160011461097d57600993929160009183610972575b50508160011b916000199060031b1c19161760038201555b60808601516004820155600581016001600160401b0360a0880151168154906fffffffffffffffff000000000000000060c08a015160401b16916fffffffffffffffffffffffffffffffff19161717905560e0860151600682015561010086015160078201556101208601516008820155019361014081015191600683101561035d578585937f7585f467599d0f008985f231af99293be388626ac16ca59505c2f8f88969cd639360ff61ff0061016060209b54930151151560081b1692169061ffff1916171790558360405191878352818884015260408301376000604085830101526040813395601f80199101168101030190a3604051908152f35b01519050888061085c565b906003840160005260206000209160005b601f19851681106109d8575091839160019360099695601f198116106109bf575b505050811b016003820155610874565b015160001960f88460031b161c191690558880806109af565b9192602060018192868501518155019401920161098e565b600384016000526020600020601f840160051c810160208510610a30575b601f830160051c82018110610a2457505061083f565b60008155600101610a0e565b5080610a0e565b0151905087806107fb565b600285016000908152602081209350601f198516905b818110610a975750908460019594939210610a7e575b505050811b016002820155610813565b015160001960f88460031b161c19169055878080610a6e565b92936020600181928786015181550195019301610a58565b909150600284016000526020600020601f840160051c810160208510610afb575b90849392915b601f830160051c82018110610aec5750506107e4565b60008155859450600101610ad6565b5080610ad0565b634e487b7160e01b600052601160045260246000fd5b604051631ceafa7560e11b8152600490fd5b5062278d0084116106c2565b346101b25760003660031901126101b2576020600354604051908152f35b346101b25760403660031901126101b25760243560043560038210156101b2573360005260206006815260ff600160406000200154161561027c57610b9882611385565b9060ff600983015416600681101561035d5760010361033a576001600160401b03600583015460401c16421161033a578260005260078152604060002033600052815260ff60406000205416610cbb5733600052600681526040600020549183600052600782526040600020336000528252604060002060ff19906001828254161790558460005260088352604060002033600052835260406000209081541660ff871617905560018514600014610c9357600601610c58838254611316565b90555b610c6860405180956112dd565b8301527f2c429843b755aefd47bd35f951ec584e567e65542f31d255ff570e130d0dd40460403393a3005b84610cad57600701610ca6838254611316565b9055610c5b565b600801610ca6838254611316565b6040516304f9da6360e01b815260048101849052336024820152604490fd5b346101b25760203660031901126101b257600435610cf781611385565b90600982019182549160ff8316600681101561035d57600103610da1576001600160401b03600583015460401c16421115610da157506006810154610d506007830154926008610d478585611316565b91015490611316565b60035460015490818102918183041490151715610b025761271090041115610d8257505050600260ff19825416179055005b1115610d965750805460ff19166003179055005b60ff19166002179055005b602490604051906344980d8f60e01b82526004820152fd5b346101b25760203660031901126101b2576060610dd7600435611385565b600681015490600860078201549101549060405192835260208301526040820152f35b346101b25760403660031901126101b257610e1361129a565b600435600052600760205260406000209060018060a01b0316600052602052602060ff604060002054166040519015158152f35b346101b25760003660031901126101b2576020600254604051908152f35b346101b25760003660031901126101b25760206040516203f4808152f35b346101b25760003660031901126101b2576020600454604051908152f35b346101b25760203660031901126101b257600435610ebd6112ea565b6009610ec882611385565b01805460ff8116600681101561035d57600303610f355760ff8160081c16610f1c5761ffff19166101041790557f712ae1383f79ac853f8d882153778e0260ef8f03b504e2866e0593e04d2b291f600080a2005b604051636a64e96160e01b815260048101849052602490fd5b6040516367da758160e11b815260048101849052602490fd5b346101b25760203660031901126101b257610f67611284565b610f6f6112ea565b6001600160a01b031660008181526006602052604090206001015460ff161561027c57806000526006602052610fac604060002054600354611332565b600355600081815260066020526040812060018101805460ff19169055556004548015610b0257600019016004557f6e76fb4c77256006d9c38ec7d82b45a8c8f3c27b1d6766fffc42dfb8de684492600080a2005b346101b25760203660031901126101b2576001600160a01b03611022611284565b16600052600660205260408060002060ff6001825492015416825191825215156020820152f35b346101b25760203660031901126101b2576004356000526005602052604060002080549060018060a01b03600182015416906110876002820161119e565b916110946003830161119e565b9160048101549260058201546006830154906110ee6007850154936110e0600960088801549701549960ff8b16986040519c8d5260208d015260408c61018091829101528c0190611244565b908a820360608c0152611244565b9560808901526001600160401b039081811660a08a015260401c1660c088015260e0870152610100860152610120850152600681101561035d57839260ff9161014085015260081c1615156101608301520390f35b90600182811c92168015611173575b602083101461115d57565b634e487b7160e01b600052602260045260246000fd5b91607f1691611152565b90601f801991011681019081106001600160401b0382111761057b57604052565b90604051918260008254926111b284611143565b90818452600194858116908160001461122157506001146111de575b50506111dc9250038361117d565b565b9093915060005260209081600020936000915b8183106112095750506111dc935082010138806111ce565b855488840185015294850194879450918301916111f1565b9150506111dc94506020925060ff191682840152151560051b82010138806111ce565b919082519283825260005b848110611270575050826000602080949584010152601f8019910116010190565b60208183018101518483018201520161124f565b600435906001600160a01b03821682036101b257565b602435906001600160a01b03821682036101b257565b9181601f840112156101b2578235916001600160401b0383116101b257602083818601950101116101b257565b90600382101561035d5752565b6000546001600160a01b031633036112fe57565b60405163118cdaa760e01b8152336004820152602490fd5b91908201809211610b0257565b6000198114610b025760010190565b91908203918211610b0257565b9291926001600160401b03821161057b5760405191611368601f8201601f19166020018461117d565b8294818452818301116101b2578281602093846000960137010152565b60025481101561139f576000526005602052604060002090565b6024906040519063428d06a960e01b82526004820152fdfea2646970667358221220c47e132fde72d605caba27bd1b403d4df6dee56c34092efd2ef3e868633436d264736f6c63430008140033","opcodes":"PUSH1 0x80 DUP1 PUSH1 0x40 MSTORE CALLVALUE PUSH2 0xA4 JUMPI CALLER ISZERO PUSH2 0x8E JUMPI PUSH1 0x0 DUP1 SLOAD CALLER PUSH1 0x1 PUSH1 0x1 PUSH1 0xA0 SHL SUB NOT DUP3 AND DUP2 OR DUP4 SSTORE PUSH1 0x40 MLOAD SWAP3 SWAP1 SWAP2 PUSH1 0x1 PUSH1 0x1 PUSH1 0xA0 SHL SUB AND SWAP1 PUSH32 0x8BE0079C531659141344CD1FD0A4F28419497F9722A3DAAFE3B4186F6B6457E0 SWAP1 DUP1 LOG3 PUSH1 0x1 PUSH32 0x9B779B17422D0DF92223018B32B4D1FA46E071723D6817E2486D003BECC55F00 SSTORE PUSH2 0x1388 PUSH1 0x1 SSTORE PUSH2 0x13ED SWAP1 DUP2 PUSH2 0xAA DUP3 CODECOPY RETURN JUMPDEST PUSH4 0x1E4FBDF7 PUSH1 0xE0 SHL DUP2 MSTORE PUSH1 0x0 PUSH1 0x4 DUP3 ADD MSTORE PUSH1 0x24 SWAP1 REVERT JUMPDEST PUSH1 0x0 DUP1 REVERT INVALID PUSH1 0x80 PUSH1 0x40 MSTORE PUSH1 0x4 CALLDATASIZE LT ISZERO PUSH2 0x12 JUMPI PUSH1 0x0 DUP1 REVERT JUMPDEST PUSH1 0x0 CALLDATALOAD PUSH1 0xE0 SHR DUP1 PUSH4 0x13CF08B EQ PUSH2 0x1049 JUMPI DUP1 PUSH4 0x8AE4B0C EQ PUSH2 0x1001 JUMPI DUP1 PUSH4 0xB1CA49A EQ PUSH2 0xF4E JUMPI DUP1 PUSH4 0xD61B519 EQ PUSH2 0xEA1 JUMPI DUP1 PUSH4 0x11AEE380 EQ PUSH2 0xE83 JUMPI DUP1 PUSH4 0x215809CA EQ PUSH2 0xE65 JUMPI DUP1 PUSH4 0x2AB09D14 EQ PUSH2 0xE47 JUMPI DUP1 PUSH4 0x43859632 EQ PUSH2 0xDFA JUMPI DUP1 PUSH4 0x47C66140 EQ PUSH2 0xDB9 JUMPI DUP1 PUSH4 0x5652077C EQ PUSH2 0xCDA JUMPI DUP1 PUSH4 0x56781388 EQ PUSH2 0xB54 JUMPI DUP1 PUSH4 0x671B3793 EQ PUSH2 0xB36 JUMPI DUP1 PUSH4 0x68EF259E EQ PUSH2 0x634 JUMPI DUP1 PUSH4 0x715018A6 EQ PUSH2 0x5DB JUMPI DUP1 PUSH4 0x8DA5CB5B EQ PUSH2 0x5B2 JUMPI DUP1 PUSH4 0x98041EA3 EQ PUSH2 0x48F JUMPI DUP1 PUSH4 0xA64E024A EQ PUSH2 0x471 JUMPI DUP1 PUSH4 0xB5244606 EQ PUSH2 0x41F JUMPI DUP1 PUSH4 0xC1BA4E59 EQ PUSH2 0x3A0 JUMPI DUP1 PUSH4 0xCD2DDD0C EQ PUSH2 0x382 JUMPI DUP1 PUSH4 0xE0A8F6F5 EQ PUSH2 0x2AB JUMPI DUP1 PUSH4 0xE1A45218 EQ PUSH2 0x28E JUMPI DUP1 PUSH4 0xEADC29C7 EQ PUSH2 0x1B7 JUMPI PUSH4 0xF2FDE38B EQ PUSH2 0x124 JUMPI PUSH1 0x0 DUP1 REVERT JUMPDEST CALLVALUE PUSH2 0x1B2 JUMPI PUSH1 0x20 CALLDATASIZE PUSH1 0x3 NOT ADD SLT PUSH2 0x1B2 JUMPI PUSH2 0x13D PUSH2 0x1284 JUMP JUMPDEST PUSH2 0x145 PUSH2 0x12EA JUMP JUMPDEST PUSH1 0x1 PUSH1 0x1 PUSH1 0xA0 SHL SUB SWAP1 DUP2 AND SWAP1 DUP2 ISZERO PUSH2 0x199 JUMPI PUSH1 0x0 SLOAD DUP3 PUSH12 0xFFFFFFFFFFFFFFFFFFFFFFFF PUSH1 0xA0 SHL DUP3 AND OR PUSH1 0x0 SSTORE AND PUSH32 0x8BE0079C531659141344CD1FD0A4F28419497F9722A3DAAFE3B4186F6B6457E0 PUSH1 0x0 DUP1 LOG3 STOP JUMPDEST PUSH1 0x40 MLOAD PUSH4 0x1E4FBDF7 PUSH1 0xE0 SHL DUP2 MSTORE PUSH1 0x0 PUSH1 0x4 DUP3 ADD MSTORE PUSH1 0x24 SWAP1 REVERT JUMPDEST PUSH1 0x0 DUP1 REVERT JUMPDEST CALLVALUE PUSH2 0x1B2 JUMPI PUSH1 0x40 CALLDATASIZE PUSH1 0x3 NOT ADD SLT PUSH2 0x1B2 JUMPI PUSH2 0x1D0 PUSH2 0x1284 JUMP JUMPDEST PUSH1 0x24 CALLDATALOAD SWAP1 PUSH2 0x1DC PUSH2 0x12EA JUMP JUMPDEST PUSH1 0x1 PUSH1 0x1 PUSH1 0xA0 SHL SUB AND PUSH1 0x0 DUP2 DUP2 MSTORE PUSH1 0x6 PUSH1 0x20 MSTORE PUSH1 0x40 SWAP1 KECCAK256 PUSH1 0x1 ADD SLOAD SWAP1 SWAP2 SWAP1 PUSH1 0xFF AND ISZERO PUSH2 0x27C JUMPI DUP1 ISZERO PUSH2 0x26A JUMPI PUSH1 0x20 DUP2 PUSH2 0x24F PUSH32 0xF139A9266EFF5871BEB5BC3B0E48D5966594C3886853EDED7D0CE54C24C9D25A SWAP4 PUSH2 0x24A PUSH1 0x3 SLOAD DUP8 PUSH1 0x0 MSTORE PUSH1 0x6 DUP7 MSTORE PUSH1 0x40 PUSH1 0x0 KECCAK256 SLOAD SWAP1 PUSH2 0x1332 JUMP JUMPDEST PUSH2 0x1316 JUMP JUMPDEST PUSH1 0x3 SSTORE DUP4 PUSH1 0x0 MSTORE PUSH1 0x6 DUP3 MSTORE DUP1 PUSH1 0x40 PUSH1 0x0 KECCAK256 SSTORE PUSH1 0x40 MLOAD SWAP1 DUP2 MSTORE LOG2 STOP JUMPDEST PUSH1 0x40 MLOAD PUSH4 0xCABEB655 PUSH1 0xE0 SHL DUP2 MSTORE PUSH1 0x4 SWAP1 REVERT JUMPDEST PUSH1 0x40 MLOAD PUSH4 0x148FE221 PUSH1 0xE1 SHL DUP2 MSTORE PUSH1 0x4 SWAP1 REVERT JUMPDEST CALLVALUE PUSH2 0x1B2 JUMPI PUSH1 0x0 CALLDATASIZE PUSH1 0x3 NOT ADD SLT PUSH2 0x1B2 JUMPI PUSH1 0x20 PUSH1 0x40 MLOAD PUSH2 0x2710 DUP2 MSTORE RETURN JUMPDEST CALLVALUE PUSH2 0x1B2 JUMPI PUSH1 0x20 CALLDATASIZE PUSH1 0x3 NOT ADD SLT PUSH2 0x1B2 JUMPI PUSH1 0x4 CALLDATALOAD PUSH2 0x2C8 DUP2 PUSH2 0x1385 JUMP JUMPDEST PUSH1 0x1 DUP2 ADD SLOAD CALLER PUSH1 0x1 PUSH1 0x1 PUSH1 0xA0 SHL SUB SWAP2 DUP3 AND EQ ISZERO SWAP1 DUP2 PUSH2 0x373 JUMPI JUMPDEST POP PUSH2 0x27C JUMPI PUSH1 0x9 ADD DUP1 SLOAD PUSH1 0xFF DUP2 AND PUSH1 0x6 DUP2 LT ISZERO PUSH2 0x35D JUMPI PUSH1 0x1 DUP2 EQ ISZERO SWAP1 DUP2 PUSH2 0x353 JUMPI JUMPDEST POP PUSH2 0x33A JUMPI PUSH1 0xFF NOT AND PUSH1 0x5 OR SWAP1 SSTORE PUSH32 0x416E669C63D9A3A5E36EE7CC7E2104B8DB28CCD286AA18966E98FA230C73B08C PUSH1 0x0 DUP1 LOG2 STOP JUMPDEST PUSH1 0x40 MLOAD PUSH4 0x44980D8F PUSH1 0xE0 SHL DUP2 MSTORE PUSH1 0x4 DUP2 ADD DUP5 SWAP1 MSTORE PUSH1 0x24 SWAP1 REVERT JUMPDEST SWAP1 POP ISZERO ISZERO DUP5 PUSH2 0x305 JUMP JUMPDEST PUSH4 0x4E487B71 PUSH1 0xE0 SHL PUSH1 0x0 MSTORE PUSH1 0x21 PUSH1 0x4 MSTORE PUSH1 0x24 PUSH1 0x0 REVERT JUMPDEST SWAP1 POP PUSH1 0x0 SLOAD AND CALLER EQ ISZERO DUP4 PUSH2 0x2E2 JUMP JUMPDEST CALLVALUE PUSH2 0x1B2 JUMPI PUSH1 0x0 CALLDATASIZE PUSH1 0x3 NOT ADD SLT PUSH2 0x1B2 JUMPI PUSH1 0x20 PUSH1 0x1 SLOAD PUSH1 0x40 MLOAD SWAP1 DUP2 MSTORE RETURN JUMPDEST CALLVALUE PUSH2 0x1B2 JUMPI PUSH1 0x20 CALLDATASIZE PUSH1 0x3 NOT ADD SLT PUSH2 0x1B2 JUMPI PUSH1 0x4 CALLDATALOAD PUSH2 0x3BC PUSH2 0x12EA JUMP JUMPDEST DUP1 ISZERO DUP1 ISZERO PUSH2 0x414 JUMPI JUMPDEST PUSH2 0x402 JUMPI PUSH1 0x40 PUSH32 0x6784E9BCB845CAAA98267D7B0918F97D3D17F7CB35A05B52010F7EB587A0ACB0 SWAP2 PUSH1 0x1 SLOAD SWAP1 DUP1 PUSH1 0x1 SSTORE DUP3 MLOAD SWAP2 DUP3 MSTORE PUSH1 0x20 DUP3 ADD MSTORE LOG1 STOP JUMPDEST PUSH1 0x40 MLOAD PUSH4 0xD1735779 PUSH1 0xE0 SHL DUP2 MSTORE PUSH1 0x4 SWAP1 REVERT JUMPDEST POP PUSH2 0x2710 DUP2 GT PUSH2 0x3C5 JUMP JUMPDEST CALLVALUE PUSH2 0x1B2 JUMPI PUSH1 0x40 CALLDATASIZE PUSH1 0x3 NOT ADD SLT PUSH2 0x1B2 JUMPI PUSH2 0x438 PUSH2 0x129A JUMP JUMPDEST PUSH1 0x4 CALLDATALOAD PUSH1 0x0 MSTORE PUSH1 0x8 PUSH1 0x20 MSTORE PUSH1 0x40 PUSH1 0x0 KECCAK256 SWAP1 PUSH1 0x1 DUP1 PUSH1 0xA0 SHL SUB AND PUSH1 0x0 MSTORE PUSH1 0x20 MSTORE PUSH1 0x20 PUSH1 0xFF PUSH1 0x40 PUSH1 0x0 KECCAK256 SLOAD AND PUSH2 0x46F PUSH1 0x40 MLOAD DUP1 SWAP3 PUSH2 0x12DD JUMP JUMPDEST RETURN JUMPDEST CALLVALUE PUSH2 0x1B2 JUMPI PUSH1 0x0 CALLDATASIZE PUSH1 0x3 NOT ADD SLT PUSH2 0x1B2 JUMPI PUSH1 0x20 PUSH1 0x40 MLOAD PUSH3 0x278D00 DUP2 MSTORE RETURN JUMPDEST CALLVALUE PUSH2 0x1B2 JUMPI PUSH1 0x40 CALLDATASIZE PUSH1 0x3 NOT ADD SLT PUSH2 0x1B2 JUMPI PUSH2 0x4A8 PUSH2 0x1284 JUMP JUMPDEST PUSH1 0x24 CALLDATALOAD SWAP1 PUSH2 0x4B4 PUSH2 0x12EA JUMP JUMPDEST PUSH1 0x1 PUSH1 0x1 PUSH1 0xA0 SHL SUB AND SWAP1 DUP2 ISZERO DUP1 ISZERO PUSH2 0x5AA JUMPI JUMPDEST PUSH2 0x26A JUMPI DUP2 PUSH1 0x0 MSTORE PUSH1 0x6 PUSH1 0x20 MSTORE PUSH1 0xFF PUSH1 0x1 PUSH1 0x40 PUSH1 0x0 KECCAK256 ADD SLOAD AND PUSH2 0x591 JUMPI PUSH1 0x40 MLOAD SWAP1 PUSH1 0x40 DUP3 ADD SWAP1 DUP3 DUP3 LT PUSH1 0x1 PUSH1 0x1 PUSH1 0x40 SHL SUB DUP4 GT OR PUSH2 0x57B JUMPI PUSH32 0xEDE8EED4383E9241982619B94DD83E488B274CCED0FD07B8C0092A393DEFD52F SWAP3 PUSH1 0x20 SWAP3 PUSH1 0x40 MSTORE DUP2 DUP2 MSTORE PUSH1 0x1 DUP4 DUP3 ADD SWAP2 DUP2 DUP4 MSTORE DUP7 PUSH1 0x0 MSTORE PUSH1 0x6 DUP6 MSTORE PUSH1 0x40 PUSH1 0x0 KECCAK256 SWAP1 MLOAD DUP2 SSTORE ADD SWAP1 MLOAD ISZERO ISZERO PUSH1 0xFF DUP1 NOT DUP4 SLOAD AND SWAP2 AND OR SWAP1 SSTORE PUSH2 0x561 DUP2 PUSH1 0x3 SLOAD PUSH2 0x1316 JUMP JUMPDEST PUSH1 0x3 SSTORE PUSH2 0x56F PUSH1 0x4 SLOAD PUSH2 0x1323 JUMP JUMPDEST PUSH1 0x4 SSTORE PUSH1 0x40 MLOAD SWAP1 DUP2 MSTORE LOG2 STOP JUMPDEST PUSH4 0x4E487B71 PUSH1 0xE0 SHL PUSH1 0x0 MSTORE PUSH1 0x41 PUSH1 0x4 MSTORE PUSH1 0x24 PUSH1 0x0 REVERT JUMPDEST PUSH1 0x40 MLOAD PUSH4 0x1F5DA491 PUSH1 0xE2 SHL DUP2 MSTORE PUSH1 0x4 DUP2 ADD DUP4 SWAP1 MSTORE PUSH1 0x24 SWAP1 REVERT JUMPDEST POP DUP1 ISZERO PUSH2 0x4C7 JUMP JUMPDEST CALLVALUE PUSH2 0x1B2 JUMPI PUSH1 0x0 CALLDATASIZE PUSH1 0x3 NOT ADD SLT PUSH2 0x1B2 JUMPI PUSH1 0x0 SLOAD PUSH1 0x40 MLOAD PUSH1 0x1 PUSH1 0x1 PUSH1 0xA0 SHL SUB SWAP1 SWAP2 AND DUP2 MSTORE PUSH1 0x20 SWAP1 RETURN JUMPDEST CALLVALUE PUSH2 0x1B2 JUMPI PUSH1 0x0 CALLDATASIZE PUSH1 0x3 NOT ADD SLT PUSH2 0x1B2 JUMPI PUSH2 0x5F4 PUSH2 0x12EA JUMP JUMPDEST PUSH1 0x0 DUP1 SLOAD PUSH1 0x1 PUSH1 0x1 PUSH1 0xA0 SHL SUB NOT DUP2 AND DUP3 SSTORE PUSH1 0x1 PUSH1 0x1 PUSH1 0xA0 SHL SUB AND PUSH32 0x8BE0079C531659141344CD1FD0A4F28419497F9722A3DAAFE3B4186F6B6457E0 DUP3 DUP1 LOG3 STOP JUMPDEST CALLVALUE PUSH2 0x1B2 JUMPI PUSH1 0x80 CALLDATASIZE PUSH1 0x3 NOT ADD SLT PUSH2 0x1B2 JUMPI PUSH1 0x4 CALLDATALOAD PUSH1 0x1 PUSH1 0x1 PUSH1 0x40 SHL SUB DUP2 GT PUSH2 0x1B2 JUMPI PUSH2 0x664 SWAP1 CALLDATASIZE SWAP1 PUSH1 0x4 ADD PUSH2 0x12B0 JUMP JUMPDEST PUSH1 0x24 CALLDATALOAD PUSH1 0x1 PUSH1 0x1 PUSH1 0x40 SHL SUB DUP2 GT PUSH2 0x1B2 JUMPI PUSH2 0x683 SWAP1 CALLDATASIZE SWAP1 PUSH1 0x4 ADD PUSH2 0x12B0 JUMP JUMPDEST SWAP2 SWAP1 SWAP3 PUSH1 0x64 CALLDATALOAD SWAP3 PUSH1 0x1 PUSH1 0x1 PUSH1 0x40 SHL SUB DUP5 AND DUP1 SWAP5 SUB PUSH2 0x1B2 JUMPI CALLER PUSH1 0x0 MSTORE PUSH1 0x6 PUSH1 0x20 MSTORE PUSH1 0xFF PUSH1 0x1 PUSH1 0x40 PUSH1 0x0 KECCAK256 ADD SLOAD AND ISZERO PUSH2 0x27C JUMPI PUSH3 0x3F480 DUP5 LT DUP1 ISZERO PUSH2 0xB2A JUMPI JUMPDEST PUSH2 0xB18 JUMPI PUSH1 0x2 SLOAD SWAP4 PUSH2 0x6D3 DUP6 PUSH2 0x1323 JUMP JUMPDEST PUSH1 0x2 SSTORE PUSH1 0x1 PUSH1 0x1 PUSH1 0x40 SHL SUB TIMESTAMP AND SWAP1 DUP2 ADD SWAP1 PUSH1 0x1 PUSH1 0x1 PUSH1 0x40 SHL SUB DUP3 GT PUSH2 0xB02 JUMPI PUSH1 0x40 MLOAD SWAP7 PUSH2 0x180 DUP9 ADD SWAP1 DUP9 DUP3 LT PUSH1 0x1 PUSH1 0x1 PUSH1 0x40 SHL SUB DUP4 GT OR PUSH2 0x57B JUMPI PUSH1 0x1 PUSH1 0x1 PUSH1 0x40 SHL SUB SWAP5 PUSH2 0x73E SWAP3 PUSH1 0x40 MSTORE DUP9 DUP11 MSTORE CALLER PUSH1 0x20 DUP12 ADD MSTORE PUSH2 0x732 CALLDATASIZE DUP10 DUP10 PUSH2 0x133F JUMP JUMPDEST PUSH1 0x40 DUP12 ADD MSTORE CALLDATASIZE SWAP2 PUSH2 0x133F JUMP JUMPDEST PUSH1 0x60 DUP9 ADD MSTORE PUSH1 0x44 CALLDATALOAD PUSH1 0x80 DUP9 ADD MSTORE PUSH1 0xA0 DUP8 ADD MSTORE AND PUSH1 0xC0 DUP6 ADD MSTORE PUSH1 0x0 PUSH1 0xE0 DUP6 ADD MSTORE PUSH1 0x0 PUSH2 0x100 DUP6 ADD MSTORE PUSH1 0x0 PUSH2 0x120 DUP6 ADD MSTORE PUSH1 0x1 PUSH2 0x140 DUP6 ADD MSTORE PUSH1 0x0 PUSH2 0x160 DUP6 ADD MSTORE DUP3 PUSH1 0x0 MSTORE PUSH1 0x5 PUSH1 0x20 MSTORE PUSH1 0x40 PUSH1 0x0 KECCAK256 DUP5 MLOAD DUP2 SSTORE PUSH1 0x1 DUP2 ADD PUSH1 0x1 DUP1 PUSH1 0xA0 SHL SUB PUSH1 0x20 DUP8 ADD MLOAD AND PUSH12 0xFFFFFFFFFFFFFFFFFFFFFFFF PUSH1 0xA0 SHL DUP3 SLOAD AND OR SWAP1 SSTORE PUSH1 0x40 DUP6 ADD MLOAD DUP1 MLOAD SWAP1 PUSH1 0x1 PUSH1 0x1 PUSH1 0x40 SHL SUB DUP3 GT PUSH2 0x57B JUMPI DUP2 SWAP1 PUSH2 0x7DB PUSH1 0x2 DUP6 ADD SLOAD PUSH2 0x1143 JUMP JUMPDEST PUSH1 0x1F DUP2 GT PUSH2 0xAAF JUMPI JUMPDEST POP PUSH1 0x20 SWAP1 PUSH1 0x1F DUP4 GT PUSH1 0x1 EQ PUSH2 0xA42 JUMPI PUSH1 0x0 SWAP3 PUSH2 0xA37 JUMPI JUMPDEST POP POP DUP2 PUSH1 0x1 SHL SWAP2 PUSH1 0x0 NOT SWAP1 PUSH1 0x3 SHL SHR NOT AND OR PUSH1 0x2 DUP3 ADD SSTORE JUMPDEST PUSH1 0x60 DUP6 ADD MLOAD DUP1 MLOAD SWAP1 PUSH1 0x1 PUSH1 0x1 PUSH1 0x40 SHL SUB DUP3 GT PUSH2 0x57B JUMPI PUSH2 0x836 PUSH1 0x3 DUP5 ADD SLOAD PUSH2 0x1143 JUMP JUMPDEST PUSH1 0x1F DUP2 GT PUSH2 0x9F0 JUMPI JUMPDEST POP PUSH1 0x20 SWAP1 PUSH1 0x1F DUP4 GT PUSH1 0x1 EQ PUSH2 0x97D JUMPI PUSH1 0x9 SWAP4 SWAP3 SWAP2 PUSH1 0x0 SWAP2 DUP4 PUSH2 0x972 JUMPI JUMPDEST POP POP DUP2 PUSH1 0x1 SHL SWAP2 PUSH1 0x0 NOT SWAP1 PUSH1 0x3 SHL SHR NOT AND OR PUSH1 0x3 DUP3 ADD SSTORE JUMPDEST PUSH1 0x80 DUP7 ADD MLOAD PUSH1 0x4 DUP3 ADD SSTORE PUSH1 0x5 DUP2 ADD PUSH1 0x1 PUSH1 0x1 PUSH1 0x40 SHL SUB PUSH1 0xA0 DUP9 ADD MLOAD AND DUP2 SLOAD SWAP1 PUSH16 0xFFFFFFFFFFFFFFFF0000000000000000 PUSH1 0xC0 DUP11 ADD MLOAD PUSH1 0x40 SHL AND SWAP2 PUSH16 0xFFFFFFFFFFFFFFFFFFFFFFFFFFFFFFFF NOT AND OR OR SWAP1 SSTORE PUSH1 0xE0 DUP7 ADD MLOAD PUSH1 0x6 DUP3 ADD SSTORE PUSH2 0x100 DUP7 ADD MLOAD PUSH1 0x7 DUP3 ADD SSTORE PUSH2 0x120 DUP7 ADD MLOAD PUSH1 0x8 DUP3 ADD SSTORE ADD SWAP4 PUSH2 0x140 DUP2 ADD MLOAD SWAP2 PUSH1 0x6 DUP4 LT ISZERO PUSH2 0x35D JUMPI DUP6 DUP6 SWAP4 PUSH32 0x7585F467599D0F008985F231AF99293BE388626AC16CA59505C2F8F88969CD63 SWAP4 PUSH1 0xFF PUSH2 0xFF00 PUSH2 0x160 PUSH1 0x20 SWAP12 SLOAD SWAP4 ADD MLOAD ISZERO ISZERO PUSH1 0x8 SHL AND SWAP3 AND SWAP1 PUSH2 0xFFFF NOT AND OR OR SWAP1 SSTORE DUP4 PUSH1 0x40 MLOAD SWAP2 DUP8 DUP4 MSTORE DUP2 DUP9 DUP5 ADD MSTORE PUSH1 0x40 DUP4 ADD CALLDATACOPY PUSH1 0x0 PUSH1 0x40 DUP6 DUP4 ADD ADD MSTORE PUSH1 0x40 DUP2 CALLER SWAP6 PUSH1 0x1F DUP1 NOT SWAP2 ADD AND DUP2 ADD SUB ADD SWAP1 LOG3 PUSH1 0x40 MLOAD SWAP1 DUP2 MSTORE RETURN JUMPDEST ADD MLOAD SWAP1 POP DUP9 DUP1 PUSH2 0x85C JUMP JUMPDEST SWAP1 PUSH1 0x3 DUP5 ADD PUSH1 0x0 MSTORE PUSH1 0x20 PUSH1 0x0 KECCAK256 SWAP2 PUSH1 0x0 JUMPDEST PUSH1 0x1F NOT DUP6 AND DUP2 LT PUSH2 0x9D8 JUMPI POP SWAP2 DUP4 SWAP2 PUSH1 0x1 SWAP4 PUSH1 0x9 SWAP7 SWAP6 PUSH1 0x1F NOT DUP2 AND LT PUSH2 0x9BF JUMPI JUMPDEST POP POP POP DUP2 SHL ADD PUSH1 0x3 DUP3 ADD SSTORE PUSH2 0x874 JUMP JUMPDEST ADD MLOAD PUSH1 0x0 NOT PUSH1 0xF8 DUP5 PUSH1 0x3 SHL AND SHR NOT AND SWAP1 SSTORE DUP9 DUP1 DUP1 PUSH2 0x9AF JUMP JUMPDEST SWAP2 SWAP3 PUSH1 0x20 PUSH1 0x1 DUP2 SWAP3 DUP7 DUP6 ADD MLOAD DUP2 SSTORE ADD SWAP5 ADD SWAP3 ADD PUSH2 0x98E JUMP JUMPDEST PUSH1 0x3 DUP5 ADD PUSH1 0x0 MSTORE PUSH1 0x20 PUSH1 0x0 KECCAK256 PUSH1 0x1F DUP5 ADD PUSH1 0x5 SHR DUP2 ADD PUSH1 0x20 DUP6 LT PUSH2 0xA30 JUMPI JUMPDEST PUSH1 0x1F DUP4 ADD PUSH1 0x5 SHR DUP3 ADD DUP2 LT PUSH2 0xA24 JUMPI POP POP PUSH2 0x83F JUMP JUMPDEST PUSH1 0x0 DUP2 SSTORE PUSH1 0x1 ADD PUSH2 0xA0E JUMP JUMPDEST POP DUP1 PUSH2 0xA0E JUMP JUMPDEST ADD MLOAD SWAP1 POP DUP8 DUP1 PUSH2 0x7FB JUMP JUMPDEST PUSH1 0x2 DUP6 ADD PUSH1 0x0 SWAP1 DUP2 MSTORE PUSH1 0x20 DUP2 KECCAK256 SWAP4 POP PUSH1 0x1F NOT DUP6 AND SWAP1 JUMPDEST DUP2 DUP2 LT PUSH2 0xA97 JUMPI POP SWAP1 DUP5 PUSH1 0x1 SWAP6 SWAP5 SWAP4 SWAP3 LT PUSH2 0xA7E JUMPI JUMPDEST POP POP POP DUP2 SHL ADD PUSH1 0x2 DUP3 ADD SSTORE PUSH2 0x813 JUMP JUMPDEST ADD MLOAD PUSH1 0x0 NOT PUSH1 0xF8 DUP5 PUSH1 0x3 SHL AND SHR NOT AND SWAP1 SSTORE DUP8 DUP1 DUP1 PUSH2 0xA6E JUMP JUMPDEST SWAP3 SWAP4 PUSH1 0x20 PUSH1 0x1 DUP2 SWAP3 DUP8 DUP7 ADD MLOAD DUP2 SSTORE ADD SWAP6 ADD SWAP4 ADD PUSH2 0xA58 JUMP JUMPDEST SWAP1 SWAP2 POP PUSH1 0x2 DUP5 ADD PUSH1 0x0 MSTORE PUSH1 0x20 PUSH1 0x0 KECCAK256 PUSH1 0x1F DUP5 ADD PUSH1 0x5 SHR DUP2 ADD PUSH1 0x20 DUP6 LT PUSH2 0xAFB JUMPI JUMPDEST SWAP1 DUP5 SWAP4 SWAP3 SWAP2 JUMPDEST PUSH1 0x1F DUP4 ADD PUSH1 0x5 SHR DUP3 ADD DUP2 LT PUSH2 0xAEC JUMPI POP POP PUSH2 0x7E4 JUMP JUMPDEST PUSH1 0x0 DUP2 SSTORE DUP6 SWAP5 POP PUSH1 0x1 ADD PUSH2 0xAD6 JUMP JUMPDEST POP DUP1 PUSH2 0xAD0 JUMP JUMPDEST PUSH4 0x4E487B71 PUSH1 0xE0 SHL PUSH1 0x0 MSTORE PUSH1 0x11 PUSH1 0x4 MSTORE PUSH1 0x24 PUSH1 0x0 REVERT JUMPDEST PUSH1 0x40 MLOAD PUSH4 0x1CEAFA75 PUSH1 0xE1 SHL DUP2 MSTORE PUSH1 0x4 SWAP1 REVERT JUMPDEST POP PUSH3 0x278D00 DUP5 GT PUSH2 0x6C2 JUMP JUMPDEST CALLVALUE PUSH2 0x1B2 JUMPI PUSH1 0x0 CALLDATASIZE PUSH1 0x3 NOT ADD SLT PUSH2 0x1B2 JUMPI PUSH1 0x20 PUSH1 0x3 SLOAD PUSH1 0x40 MLOAD SWAP1 DUP2 MSTORE RETURN JUMPDEST CALLVALUE PUSH2 0x1B2 JUMPI PUSH1 0x40 CALLDATASIZE PUSH1 0x3 NOT ADD SLT PUSH2 0x1B2 JUMPI PUSH1 0x24 CALLDATALOAD PUSH1 0x4 CALLDATALOAD PUSH1 0x3 DUP3 LT ISZERO PUSH2 0x1B2 JUMPI CALLER PUSH1 0x0 MSTORE PUSH1 0x20 PUSH1 0x6 DUP2 MSTORE PUSH1 0xFF PUSH1 0x1 PUSH1 0x40 PUSH1 0x0 KECCAK256 ADD SLOAD AND ISZERO PUSH2 0x27C JUMPI PUSH2 0xB98 DUP3 PUSH2 0x1385 JUMP JUMPDEST SWAP1 PUSH1 0xFF PUSH1 0x9 DUP4 ADD SLOAD AND PUSH1 0x6 DUP2 LT ISZERO PUSH2 0x35D JUMPI PUSH1 0x1 SUB PUSH2 0x33A JUMPI PUSH1 0x1 PUSH1 0x1 PUSH1 0x40 SHL SUB PUSH1 0x5 DUP4 ADD SLOAD PUSH1 0x40 SHR AND TIMESTAMP GT PUSH2 0x33A JUMPI DUP3 PUSH1 0x0 MSTORE PUSH1 0x7 DUP2 MSTORE PUSH1 0x40 PUSH1 0x0 KECCAK256 CALLER PUSH1 0x0 MSTORE DUP2 MSTORE PUSH1 0xFF PUSH1 0x40 PUSH1 0x0 KECCAK256 SLOAD AND PUSH2 0xCBB JUMPI CALLER PUSH1 0x0 MSTORE PUSH1 0x6 DUP2 MSTORE PUSH1 0x40 PUSH1 0x0 KECCAK256 SLOAD SWAP2 DUP4 PUSH1 0x0 MSTORE PUSH1 0x7 DUP3 MSTORE PUSH1 0x40 PUSH1 0x0 KECCAK256 CALLER PUSH1 0x0 MSTORE DUP3 MSTORE PUSH1 0x40 PUSH1 0x0 KECCAK256 PUSH1 0xFF NOT SWAP1 PUSH1 0x1 DUP3 DUP3 SLOAD AND OR SWAP1 SSTORE DUP5 PUSH1 0x0 MSTORE PUSH1 0x8 DUP4 MSTORE PUSH1 0x40 PUSH1 0x0 KECCAK256 CALLER PUSH1 0x0 MSTORE DUP4 MSTORE PUSH1 0x40 PUSH1 0x0 KECCAK256 SWAP1 DUP2 SLOAD AND PUSH1 0xFF DUP8 AND OR SWAP1 SSTORE PUSH1 0x1 DUP6 EQ PUSH1 0x0 EQ PUSH2 0xC93 JUMPI PUSH1 0x6 ADD PUSH2 0xC58 DUP4 DUP3 SLOAD PUSH2 0x1316 JUMP JUMPDEST SWAP1 SSTORE JUMPDEST PUSH2 0xC68 PUSH1 0x40 MLOAD DUP1 SWAP6 PUSH2 0x12DD JUMP JUMPDEST DUP4 ADD MSTORE PUSH32 0x2C429843B755AEFD47BD35F951EC584E567E65542F31D255FF570E130D0DD404 PUSH1 0x40 CALLER SWAP4 LOG3 STOP JUMPDEST DUP5 PUSH2 0xCAD JUMPI PUSH1 0x7 ADD PUSH2 0xCA6 DUP4 DUP3 SLOAD PUSH2 0x1316 JUMP JUMPDEST SWAP1 SSTORE PUSH2 0xC5B JUMP JUMPDEST PUSH1 0x8 ADD PUSH2 0xCA6 DUP4 DUP3 SLOAD PUSH2 0x1316 JUMP JUMPDEST PUSH1 0x40 MLOAD PUSH4 0x4F9DA63 PUSH1 0xE0 SHL DUP2 MSTORE PUSH1 0x4 DUP2 ADD DUP5 SWAP1 MSTORE CALLER PUSH1 0x24 DUP3 ADD MSTORE PUSH1 0x44 SWAP1 REVERT JUMPDEST CALLVALUE PUSH2 0x1B2 JUMPI PUSH1 0x20 CALLDATASIZE PUSH1 0x3 NOT ADD SLT PUSH2 0x1B2 JUMPI PUSH1 0x4 CALLDATALOAD PUSH2 0xCF7 DUP2 PUSH2 0x1385 JUMP JUMPDEST SWAP1 PUSH1 0x9 DUP3 ADD SWAP2 DUP3 SLOAD SWAP2 PUSH1 0xFF DUP4 AND PUSH1 0x6 DUP2 LT ISZERO PUSH2 0x35D JUMPI PUSH1 0x1 SUB PUSH2 0xDA1 JUMPI PUSH1 0x1 PUSH1 0x1 PUSH1 0x40 SHL SUB PUSH1 0x5 DUP4 ADD SLOAD PUSH1 0x40 SHR AND TIMESTAMP GT ISZERO PUSH2 0xDA1 JUMPI POP PUSH1 0x6 DUP2 ADD SLOAD PUSH2 0xD50 PUSH1 0x7 DUP4 ADD SLOAD SWAP3 PUSH1 0x8 PUSH2 0xD47 DUP6 DUP6 PUSH2 0x1316 JUMP JUMPDEST SWAP2 ADD SLOAD SWAP1 PUSH2 0x1316 JUMP JUMPDEST PUSH1 0x3 SLOAD PUSH1 0x1 SLOAD SWAP1 DUP2 DUP2 MUL SWAP2 DUP2 DUP4 DIV EQ SWAP1 ISZERO OR ISZERO PUSH2 0xB02 JUMPI PUSH2 0x2710 SWAP1 DIV GT ISZERO PUSH2 0xD82 JUMPI POP POP POP PUSH1 0x2 PUSH1 0xFF NOT DUP3 SLOAD AND OR SWAP1 SSTORE STOP JUMPDEST GT ISZERO PUSH2 0xD96 JUMPI POP DUP1 SLOAD PUSH1 0xFF NOT AND PUSH1 0x3 OR SWAP1 SSTORE STOP JUMPDEST PUSH1 0xFF NOT AND PUSH1 0x2 OR SWAP1 SSTORE STOP JUMPDEST PUSH1 0x24 SWAP1 PUSH1 0x40 MLOAD SWAP1 PUSH4 0x44980D8F PUSH1 0xE0 SHL DUP3 MSTORE PUSH1 0x4 DUP3 ADD MSTORE REVERT JUMPDEST CALLVALUE PUSH2 0x1B2 JUMPI PUSH1 0x20 CALLDATASIZE PUSH1 0x3 NOT ADD SLT PUSH2 0x1B2 JUMPI PUSH1 0x60 PUSH2 0xDD7 PUSH1 0x4 CALLDATALOAD PUSH2 0x1385 JUMP JUMPDEST PUSH1 0x6 DUP2 ADD SLOAD SWAP1 PUSH1 0x8 PUSH1 0x7 DUP3 ADD SLOAD SWAP2 ADD SLOAD SWAP1 PUSH1 0x40 MLOAD SWAP3 DUP4 MSTORE PUSH1 0x20 DUP4 ADD MSTORE PUSH1 0x40 DUP3 ADD MSTORE RETURN JUMPDEST CALLVALUE PUSH2 0x1B2 JUMPI PUSH1 0x40 CALLDATASIZE PUSH1 0x3 NOT ADD SLT PUSH2 0x1B2 JUMPI PUSH2 0xE13 PUSH2 0x129A JUMP JUMPDEST PUSH1 0x4 CALLDATALOAD PUSH1 0x0 MSTORE PUSH1 0x7 PUSH1 0x20 MSTORE PUSH1 0x40 PUSH1 0x0 KECCAK256 SWAP1 PUSH1 0x1 DUP1 PUSH1 0xA0 SHL SUB AND PUSH1 0x0 MSTORE PUSH1 0x20 MSTORE PUSH1 0x20 PUSH1 0xFF PUSH1 0x40 PUSH1 0x0 KECCAK256 SLOAD AND PUSH1 0x40 MLOAD SWAP1 ISZERO ISZERO DUP2 MSTORE RETURN JUMPDEST CALLVALUE PUSH2 0x1B2 JUMPI PUSH1 0x0 CALLDATASIZE PUSH1 0x3 NOT ADD SLT PUSH2 0x1B2 JUMPI PUSH1 0x20 PUSH1 0x2 SLOAD PUSH1 0x40 MLOAD SWAP1 DUP2 MSTORE RETURN JUMPDEST CALLVALUE PUSH2 0x1B2 JUMPI PUSH1 0x0 CALLDATASIZE PUSH1 0x3 NOT ADD SLT PUSH2 0x1B2 JUMPI PUSH1 0x20 PUSH1 0x40 MLOAD PUSH3 0x3F480 DUP2 MSTORE RETURN JUMPDEST CALLVALUE PUSH2 0x1B2 JUMPI PUSH1 0x0 CALLDATASIZE PUSH1 0x3 NOT ADD SLT PUSH2 0x1B2 JUMPI PUSH1 0x20 PUSH1 0x4 SLOAD PUSH1 0x40 MLOAD SWAP1 DUP2 MSTORE RETURN JUMPDEST CALLVALUE PUSH2 0x1B2 JUMPI PUSH1 0x20 CALLDATASIZE PUSH1 0x3 NOT ADD SLT PUSH2 0x1B2 JUMPI PUSH1 0x4 CALLDATALOAD PUSH2 0xEBD PUSH2 0x12EA JUMP JUMPDEST PUSH1 0x9 PUSH2 0xEC8 DUP3 PUSH2 0x1385 JUMP JUMPDEST ADD DUP1 SLOAD PUSH1 0xFF DUP2 AND PUSH1 0x6 DUP2 LT ISZERO PUSH2 0x35D JUMPI PUSH1 0x3 SUB PUSH2 0xF35 JUMPI PUSH1 0xFF DUP2 PUSH1 0x8 SHR AND PUSH2 0xF1C JUMPI PUSH2 0xFFFF NOT AND PUSH2 0x104 OR SWAP1 SSTORE PUSH32 0x712AE1383F79AC853F8D882153778E0260EF8F03B504E2866E0593E04D2B291F PUSH1 0x0 DUP1 LOG2 STOP JUMPDEST PUSH1 0x40 MLOAD PUSH4 0x6A64E961 PUSH1 0xE0 SHL DUP2 MSTORE PUSH1 0x4 DUP2 ADD DUP5 SWAP1 MSTORE PUSH1 0x24 SWAP1 REVERT JUMPDEST PUSH1 0x40 MLOAD PUSH4 0x67DA7581 PUSH1 0xE1 SHL DUP2 MSTORE PUSH1 0x4 DUP2 ADD DUP5 SWAP1 MSTORE PUSH1 0x24 SWAP1 REVERT JUMPDEST CALLVALUE PUSH2 0x1B2 JUMPI PUSH1 0x20 CALLDATASIZE PUSH1 0x3 NOT ADD SLT PUSH2 0x1B2 JUMPI PUSH2 0xF67 PUSH2 0x1284 JUMP JUMPDEST PUSH2 0xF6F PUSH2 0x12EA JUMP JUMPDEST PUSH1 0x1 PUSH1 0x1 PUSH1 0xA0 SHL SUB AND PUSH1 0x0 DUP2 DUP2 MSTORE PUSH1 0x6 PUSH1 0x20 MSTORE PUSH1 0x40 SWAP1 KECCAK256 PUSH1 0x1 ADD SLOAD PUSH1 0xFF AND ISZERO PUSH2 0x27C JUMPI DUP1 PUSH1 0x0 MSTORE PUSH1 0x6 PUSH1 0x20 MSTORE PUSH2 0xFAC PUSH1 0x40 PUSH1 0x0 KECCAK256 SLOAD PUSH1 0x3 SLOAD PUSH2 0x1332 JUMP JUMPDEST PUSH1 0x3 SSTORE PUSH1 0x0 DUP2 DUP2 MSTORE PUSH1 0x6 PUSH1 0x20 MSTORE PUSH1 0x40 DUP2 KECCAK256 PUSH1 0x1 DUP2 ADD DUP1 SLOAD PUSH1 0xFF NOT AND SWAP1 SSTORE SSTORE PUSH1 0x4 SLOAD DUP1 ISZERO PUSH2 0xB02 JUMPI PUSH1 0x0 NOT ADD PUSH1 0x4 SSTORE PUSH32 0x6E76FB4C77256006D9C38EC7D82B45A8C8F3C27B1D6766FFFC42DFB8DE684492 PUSH1 0x0 DUP1 LOG2 STOP JUMPDEST CALLVALUE PUSH2 0x1B2 JUMPI PUSH1 0x20 CALLDATASIZE PUSH1 0x3 NOT ADD SLT PUSH2 0x1B2 JUMPI PUSH1 0x1 PUSH1 0x1 PUSH1 0xA0 SHL SUB PUSH2 0x1022 PUSH2 0x1284 JUMP JUMPDEST AND PUSH1 0x0 MSTORE PUSH1 0x6 PUSH1 0x20 MSTORE PUSH1 0x40 DUP1 PUSH1 0x0 KECCAK256 PUSH1 0xFF PUSH1 0x1 DUP3 SLOAD SWAP3 ADD SLOAD AND DUP3 MLOAD SWAP2 DUP3 MSTORE ISZERO ISZERO PUSH1 0x20 DUP3 ADD MSTORE RETURN JUMPDEST CALLVALUE PUSH2 0x1B2 JUMPI PUSH1 0x20 CALLDATASIZE PUSH1 0x3 NOT ADD SLT PUSH2 0x1B2 JUMPI PUSH1 0x4 CALLDATALOAD PUSH1 0x0 MSTORE PUSH1 0x5 PUSH1 0x20 MSTORE PUSH1 0x40 PUSH1 0x0 KECCAK256 DUP1 SLOAD SWAP1 PUSH1 0x1 DUP1 PUSH1 0xA0 SHL SUB PUSH1 0x1 DUP3 ADD SLOAD AND SWAP1 PUSH2 0x1087 PUSH1 0x2 DUP3 ADD PUSH2 0x119E JUMP JUMPDEST SWAP2 PUSH2 0x1094 PUSH1 0x3 DUP4 ADD PUSH2 0x119E JUMP JUMPDEST SWAP2 PUSH1 0x4 DUP2 ADD SLOAD SWAP3 PUSH1 0x5 DUP3 ADD SLOAD PUSH1 0x6 DUP4 ADD SLOAD SWAP1 PUSH2 0x10EE PUSH1 0x7 DUP6 ADD SLOAD SWAP4 PUSH2 0x10E0 PUSH1 0x9 PUSH1 0x8 DUP9 ADD SLOAD SWAP8 ADD SLOAD SWAP10 PUSH1 0xFF DUP12 AND SWAP9 PUSH1 0x40 MLOAD SWAP13 DUP14 MSTORE PUSH1 0x20 DUP14 ADD MSTORE PUSH1 0x40 DUP13 PUSH2 0x180 SWAP2 DUP3 SWAP2 ADD MSTORE DUP13 ADD SWAP1 PUSH2 0x1244 JUMP JUMPDEST SWAP1 DUP11 DUP3 SUB PUSH1 0x60 DUP13 ADD MSTORE PUSH2 0x1244 JUMP JUMPDEST SWAP6 PUSH1 0x80 DUP10 ADD MSTORE PUSH1 0x1 PUSH1 0x1 PUSH1 0x40 SHL SUB SWAP1 DUP2 DUP2 AND PUSH1 0xA0 DUP11 ADD MSTORE PUSH1 0x40 SHR AND PUSH1 0xC0 DUP9 ADD MSTORE PUSH1 0xE0 DUP8 ADD MSTORE PUSH2 0x100 DUP7 ADD MSTORE PUSH2 0x120 DUP6 ADD MSTORE PUSH1 0x6 DUP2 LT ISZERO PUSH2 0x35D JUMPI DUP4 SWAP3 PUSH1 0xFF SWAP2 PUSH2 0x140 DUP6 ADD MSTORE PUSH1 0x8 SHR AND ISZERO ISZERO PUSH2 0x160 DUP4 ADD MSTORE SUB SWAP1 RETURN JUMPDEST SWAP1 PUSH1 0x1 DUP3 DUP2 SHR SWAP3 AND DUP1 ISZERO PUSH2 0x1173 JUMPI JUMPDEST PUSH1 0x20 DUP4 LT EQ PUSH2 0x115D JUMPI JUMP JUMPDEST PUSH4 0x4E487B71 PUSH1 0xE0 SHL PUSH1 0x0 MSTORE PUSH1 0x22 PUSH1 0x4 MSTORE PUSH1 0x24 PUSH1 0x0 REVERT JUMPDEST SWAP2 PUSH1 0x7F AND SWAP2 PUSH2 0x1152 JUMP JUMPDEST SWAP1 PUSH1 0x1F DUP1 NOT SWAP2 ADD AND DUP2 ADD SWAP1 DUP2 LT PUSH1 0x1 PUSH1 0x1 PUSH1 0x40 SHL SUB DUP3 GT OR PUSH2 0x57B JUMPI PUSH1 0x40 MSTORE JUMP JUMPDEST SWAP1 PUSH1 0x40 MLOAD SWAP2 DUP3 PUSH1 0x0 DUP3 SLOAD SWAP3 PUSH2 0x11B2 DUP5 PUSH2 0x1143 JUMP JUMPDEST SWAP1 DUP2 DUP5 MSTORE PUSH1 0x1 SWAP5 DUP6 DUP2 AND SWAP1 DUP2 PUSH1 0x0 EQ PUSH2 0x1221 JUMPI POP PUSH1 0x1 EQ PUSH2 0x11DE JUMPI JUMPDEST POP POP PUSH2 0x11DC SWAP3 POP SUB DUP4 PUSH2 0x117D JUMP JUMPDEST JUMP JUMPDEST SWAP1 SWAP4 SWAP2 POP PUSH1 0x0 MSTORE PUSH1 0x20 SWAP1 DUP2 PUSH1 0x0 KECCAK256 SWAP4 PUSH1 0x0 SWAP2 JUMPDEST DUP2 DUP4 LT PUSH2 0x1209 JUMPI POP POP PUSH2 0x11DC SWAP4 POP DUP3 ADD ADD CODESIZE DUP1 PUSH2 0x11CE JUMP JUMPDEST DUP6 SLOAD DUP9 DUP5 ADD DUP6 ADD MSTORE SWAP5 DUP6 ADD SWAP5 DUP8 SWAP5 POP SWAP2 DUP4 ADD SWAP2 PUSH2 0x11F1 JUMP JUMPDEST SWAP2 POP POP PUSH2 0x11DC SWAP5 POP PUSH1 0x20 SWAP3 POP PUSH1 0xFF NOT AND DUP3 DUP5 ADD MSTORE ISZERO ISZERO PUSH1 0x5 SHL DUP3 ADD ADD CODESIZE DUP1 PUSH2 0x11CE JUMP JUMPDEST SWAP2 SWAP1 DUP3 MLOAD SWAP3 DUP4 DUP3 MSTORE PUSH1 0x0 JUMPDEST DUP5 DUP2 LT PUSH2 0x1270 JUMPI POP POP DUP3 PUSH1 0x0 PUSH1 0x20 DUP1 SWAP5 SWAP6 DUP5 ADD ADD MSTORE PUSH1 0x1F DUP1 NOT SWAP2 ADD AND ADD ADD SWAP1 JUMP JUMPDEST PUSH1 0x20 DUP2 DUP4 ADD DUP2 ADD MLOAD DUP5 DUP4 ADD DUP3 ADD MSTORE ADD PUSH2 0x124F JUMP JUMPDEST PUSH1 0x4 CALLDATALOAD SWAP1 PUSH1 0x1 PUSH1 0x1 PUSH1 0xA0 SHL SUB DUP3 AND DUP3 SUB PUSH2 0x1B2 JUMPI JUMP JUMPDEST PUSH1 0x24 CALLDATALOAD SWAP1 PUSH1 0x1 PUSH1 0x1 PUSH1 0xA0 SHL SUB DUP3 AND DUP3 SUB PUSH2 0x1B2 JUMPI JUMP JUMPDEST SWAP2 DUP2 PUSH1 0x1F DUP5 ADD SLT ISZERO PUSH2 0x1B2 JUMPI DUP3 CALLDATALOAD SWAP2 PUSH1 0x1 PUSH1 0x1 PUSH1 0x40 SHL SUB DUP4 GT PUSH2 0x1B2 JUMPI PUSH1 0x20 DUP4 DUP2 DUP7 ADD SWAP6 ADD ADD GT PUSH2 0x1B2 JUMPI JUMP JUMPDEST SWAP1 PUSH1 0x3 DUP3 LT ISZERO PUSH2 0x35D JUMPI MSTORE JUMP JUMPDEST PUSH1 0x0 SLOAD PUSH1 0x1 PUSH1 0x1 PUSH1 0xA0 SHL SUB AND CALLER SUB PUSH2 0x12FE JUMPI JUMP JUMPDEST PUSH1 0x40 MLOAD PUSH4 0x118CDAA7 PUSH1 0xE0 SHL DUP2 MSTORE CALLER PUSH1 0x4 DUP3 ADD MSTORE PUSH1 0x24 SWAP1 REVERT JUMPDEST SWAP2 SWAP1 DUP3 ADD DUP1 SWAP3 GT PUSH2 0xB02 JUMPI JUMP JUMPDEST PUSH1 0x0 NOT DUP2 EQ PUSH2 0xB02 JUMPI PUSH1 0x1 ADD SWAP1 JUMP JUMPDEST SWAP2 SWAP1 DUP3 SUB SWAP2 DUP3 GT PUSH2 0xB02 JUMPI JUMP JUMPDEST SWAP3 SWAP2 SWAP3 PUSH1 0x1 PUSH1 0x1 PUSH1 0x40 SHL SUB DUP3 GT PUSH2 0x57B JUMPI PUSH1 0x40 MLOAD SWAP2 PUSH2 0x1368 PUSH1 0x1F DUP3 ADD PUSH1 0x1F NOT AND PUSH1 0x20 ADD DUP5 PUSH2 0x117D JUMP JUMPDEST DUP3 SWAP5 DUP2 DUP5 MSTORE DUP2 DUP4 ADD GT PUSH2 0x1B2 JUMPI DUP3 DUP2 PUSH1 0x20 SWAP4 DUP5 PUSH1 0x0 SWAP7 ADD CALLDATACOPY ADD ADD MSTORE JUMP JUMPDEST PUSH1 0x2 SLOAD DUP2 LT ISZERO PUSH2 0x139F JUMPI PUSH1 0x0 MSTORE PUSH1 0x5 PUSH1 0x20 MSTORE PUSH1 0x40 PUSH1 0x0 KECCAK256 SWAP1 JUMP JUMPDEST PUSH1 0x24 SWAP1 PUSH1 0x40 MLOAD SWAP1 PUSH4 0x428D06A9 PUSH1 0xE0 SHL DUP3 MSTORE PUSH1 0x4 DUP3 ADD MSTORE REVERT INVALID LOG2 PUSH5 0x6970667358 0x22 SLT KECCAK256 0xC4 PUSH31 0x132FDE72D605CABA27BD1B403D4DF6DEE56C34092EFD2EF3E868633436D264 PUSH20 0x6F6C634300081400330000000000000000000000 "},"methodIdentifiers":{"BPS_DENOMINATOR()":"e1a45218","MAX_VOTING_PERIOD()":"a64e024a","MIN_VOTING_PERIOD()":"215809ca","addMember(address,uint256)":"98041ea3","cancelProposal(uint256)":"e0a8f6f5","castVote(uint256,uint8)":"56781388","createProposal(string,string,bytes32,uint64)":"68ef259e","executeProposal(uint256)":"0d61b519","finalizeProposal(uint256)":"5652077c","getProposalVotes(uint256)":"47c66140","hasVoted(uint256,address)":"43859632","memberCount()":"11aee380","members(address)":"08ae4b0c","nextProposalId()":"2ab09d14","owner()":"8da5cb5b","proposals(uint256)":"013cf08b","quorumBps()":"cd2ddd0c","removeMember(address)":"0b1ca49a","renounceOwnership()":"715018a6","setQuorum(uint256)":"c1ba4e59","totalVotingPower()":"671b3793","transferOwnership(address)":"f2fde38b","updateVotingPower(address,uint256)":"eadc29c7","voteCast(uint256,address)":"b5244606"}}}}}